{
  "contractName": "Comments",
  "abi": [
    {
      "anonymous": false,
      "inputs": [
        {
          "indexed": false,
          "internalType": "address",
          "name": "author",
          "type": "address"
        },
        {
          "indexed": false,
          "internalType": "string",
          "name": "content",
          "type": "string"
        },
        {
          "indexed": false,
          "internalType": "uint256",
          "name": "tips",
          "type": "uint256"
        },
        {
          "indexed": false,
          "internalType": "uint256",
          "name": "timestamp",
          "type": "uint256"
        }
      ],
      "name": "commentAdded",
      "type": "event"
    },
    {
      "anonymous": false,
      "inputs": [
        {
          "indexed": false,
          "internalType": "uint256",
          "name": "id",
          "type": "uint256"
        },
        {
          "indexed": false,
          "internalType": "uint256",
          "name": "amount",
          "type": "uint256"
        }
      ],
      "name": "commentTipped",
      "type": "event"
    },
    {
      "anonymous": false,
      "inputs": [
        {
          "indexed": false,
          "internalType": "uint256",
          "name": "id",
          "type": "uint256"
        },
        {
          "indexed": false,
          "internalType": "uint256",
          "name": "amount",
          "type": "uint256"
        }
      ],
      "name": "commentUnTipped",
      "type": "event"
    },
    {
      "inputs": [
        {
          "internalType": "uint256",
          "name": "",
          "type": "uint256"
        },
        {
          "internalType": "address",
          "name": "",
          "type": "address"
        }
      ],
      "name": "addressToTips",
      "outputs": [
        {
          "internalType": "uint256",
          "name": "",
          "type": "uint256"
        }
      ],
      "stateMutability": "view",
      "type": "function",
      "constant": true
    },
    {
      "inputs": [
        {
          "internalType": "uint256",
          "name": "",
          "type": "uint256"
        }
      ],
      "name": "addressesTipped",
      "outputs": [
        {
          "internalType": "address",
          "name": "",
          "type": "address"
        }
      ],
      "stateMutability": "view",
      "type": "function",
      "constant": true
    },
    {
      "inputs": [],
      "name": "commentCount",
      "outputs": [
        {
          "internalType": "uint256",
          "name": "",
          "type": "uint256"
        }
      ],
      "stateMutability": "view",
      "type": "function",
      "constant": true
    },
    {
      "inputs": [
        {
          "internalType": "uint256",
          "name": "",
          "type": "uint256"
        }
      ],
      "name": "comments",
      "outputs": [
        {
          "internalType": "uint256",
          "name": "id",
          "type": "uint256"
        },
        {
          "internalType": "uint256",
          "name": "tips",
          "type": "uint256"
        },
        {
          "internalType": "string",
          "name": "content",
          "type": "string"
        },
        {
          "internalType": "address payable",
          "name": "author",
          "type": "address"
        }
      ],
      "stateMutability": "view",
      "type": "function",
      "constant": true
    },
    {
      "inputs": [
        {
          "internalType": "uint256",
          "name": "",
          "type": "uint256"
        },
        {
          "internalType": "address",
          "name": "",
          "type": "address"
        }
      ],
      "name": "tippers",
      "outputs": [
        {
          "internalType": "bool",
          "name": "",
          "type": "bool"
        }
      ],
      "stateMutability": "view",
      "type": "function",
      "constant": true
    },
    {
      "inputs": [],
      "name": "tipsSum",
      "outputs": [
        {
          "internalType": "uint256",
          "name": "",
          "type": "uint256"
        }
      ],
      "stateMutability": "view",
      "type": "function",
      "constant": true
    },
    {
      "inputs": [
        {
          "internalType": "address",
          "name": "_tipper",
          "type": "address"
        },
        {
          "internalType": "uint256",
          "name": "_balance",
          "type": "uint256"
        }
      ],
      "name": "setTip",
      "outputs": [],
      "stateMutability": "nonpayable",
      "type": "function"
    },
    {
      "inputs": [],
      "name": "getTotalTipsSum",
      "outputs": [
        {
          "internalType": "uint256",
          "name": "",
          "type": "uint256"
        }
      ],
      "stateMutability": "view",
      "type": "function",
      "constant": true
    },
    {
      "inputs": [],
      "name": "getTippers",
      "outputs": [
        {
          "internalType": "address[]",
          "name": "",
          "type": "address[]"
        }
      ],
      "stateMutability": "view",
      "type": "function",
      "constant": true
    },
    {
      "inputs": [
        {
          "internalType": "uint256",
          "name": "_id",
          "type": "uint256"
        },
        {
          "internalType": "uint256",
          "name": "_amount",
          "type": "uint256"
        }
      ],
      "name": "tipComment",
      "outputs": [],
      "stateMutability": "nonpayable",
      "type": "function"
    },
    {
      "inputs": [
        {
          "internalType": "string",
          "name": "_content",
          "type": "string"
        },
        {
          "internalType": "uint256",
          "name": "_value",
          "type": "uint256"
        }
      ],
      "name": "addComment",
      "outputs": [],
      "stateMutability": "nonpayable",
      "type": "function"
    },
    {
      "inputs": [],
      "name": "getCommentCount",
      "outputs": [
        {
          "internalType": "uint256",
          "name": "",
          "type": "uint256"
        }
      ],
      "stateMutability": "view",
      "type": "function",
      "constant": true
    },
    {
      "inputs": [
        {
          "internalType": "uint256",
          "name": "_id",
          "type": "uint256"
        }
      ],
      "name": "getCommentById",
      "outputs": [
        {
          "components": [
            {
              "internalType": "uint256",
              "name": "id",
              "type": "uint256"
            },
            {
              "internalType": "uint256",
              "name": "tips",
              "type": "uint256"
            },
            {
              "internalType": "string",
              "name": "content",
              "type": "string"
            },
            {
              "internalType": "address payable",
              "name": "author",
              "type": "address"
            }
          ],
          "internalType": "struct Comments.Comment",
          "name": "",
          "type": "tuple"
        }
      ],
      "stateMutability": "view",
      "type": "function",
      "constant": true
    }
  ],
  "bytecode": "0x60806040526000805534801561001457600080fd5b50611868806100246000396000f3fe608060405234801561001057600080fd5b50600436106100cf5760003560e01c80636c43dbb41161008c578063e2f5e0df11610066578063e2f5e0df14610229578063e37f9b0a14610259578063fb4061ce14610277578063fc4fce1d14610295576100cf565b80636c43dbb4146101aa5780638ebb4c15146101da57806396a3d8d71461020d576100cf565b806316e31ea3146100d45780631ee59c50146100f25780632e2179511461010e5780634126d13b1461013e57806345ff20de1461016e5780635427c40a1461018c575b600080fd5b6100dc6102b1565b6040516100e99190610ea4565b60405180910390f35b61010c60048036038101906101079190610f5d565b6102ba565b005b61012860048036038101906101239190610f9d565b61047c565b6040516101359190610fd9565b60405180910390f35b61015860048036038101906101539190610ff4565b6104bb565b6040516101659190610ea4565b60405180910390f35b6101766104e0565b6040516101839190610ea4565b60405180910390f35b6101946104e6565b6040516101a19190610ea4565b60405180910390f35b6101c460048036038101906101bf9190610f9d565b6104ec565b6040516101d19190611160565b60405180910390f35b6101f460048036038101906101ef9190610f9d565b610615565b60405161020494939291906111db565b60405180910390f35b6102276004803603810190610222919061135c565b6106ed565b005b610243600480360381019061023e9190610ff4565b61081b565b60405161025091906113d3565b60405180910390f35b61026161084a565b60405161026e91906114ac565b60405180910390f35b61027f6108d8565b60405161028c9190610ea4565b60405180910390f35b6102af60048036038101906102aa91906114ce565b6108e2565b005b60008054905090565b60005b600054811015610477576004600082815260200190815260200160002060008473ffffffffffffffffffffffffffffffffffffffff1673ffffffffffffffffffffffffffffffffffffffff16815260200190815260200160002060009054906101000a900460ff1680156103815750816005600083815260200190815260200160002060008573ffffffffffffffffffffffffffffffffffffffff1673ffffffffffffffffffffffffffffffffffffffff1681526020019081526020016000205414155b1561046457816005600083815260200190815260200160002060008573ffffffffffffffffffffffffffffffffffffffff1673ffffffffffffffffffffffffffffffffffffffff168152602001908152602001600020546103e2919061153d565b600360008381526020019081526020016000206001016000828254610407919061153d565b92505081905550816005600083815260200190815260200160002060008573ffffffffffffffffffffffffffffffffffffffff1673ffffffffffffffffffffffffffffffffffffffff168152602001908152602001600020819055505b808061046f90611571565b9150506102bd565b505050565b6002818154811061048c57600080fd5b906000526020600020016000915054906101000a900473ffffffffffffffffffffffffffffffffffffffff1681565b6005602052816000526040600020602052806000526040600020600091509150505481565b60005481565b60015481565b6104f4610d1d565b600360008381526020019081526020016000206040518060800160405290816000820154815260200160018201548152602001600282018054610536906115e9565b80601f0160208091040260200160405190810160405280929190818152602001828054610562906115e9565b80156105af5780601f10610584576101008083540402835291602001916105af565b820191906000526020600020905b81548152906001019060200180831161059257829003601f168201915b505050505081526020016003820160009054906101000a900473ffffffffffffffffffffffffffffffffffffffff1673ffffffffffffffffffffffffffffffffffffffff1673ffffffffffffffffffffffffffffffffffffffff16815250509050919050565b6003602052806000526040600020600091509050806000015490806001015490806002018054610644906115e9565b80601f0160208091040260200160405190810160405280929190818152602001828054610670906115e9565b80156106bd5780601f10610692576101008083540402835291602001916106bd565b820191906000526020600020905b8154815290600101906020018083116106a057829003601f168201915b5050505050908060030160009054906101000a900473ffffffffffffffffffffffffffffffffffffffff16905084565b60405180608001604052806000548152602001600081526020018381526020013373ffffffffffffffffffffffffffffffffffffffff1681525060036000805481526020019081526020016000206000820151816000015560208201518160010155604082015181600201908051906020019061076b929190610d5b565b5060608201518160030160006101000a81548173ffffffffffffffffffffffffffffffffffffffff021916908373ffffffffffffffffffffffffffffffffffffffff1602179055509050507f83e3daed4f60a9f1f3f515f6fc6bcd2ea924cfc69b9781cf92a4251d588db90333836000426040516107ec9493929190611660565b60405180910390a1610800600054826108e2565b60008081548092919061081290611571565b91905055505050565b60046020528160005260406000206020528060005260406000206000915091509054906101000a900460ff1681565b606060028054806020026020016040519081016040528092919081815260200182805480156108ce57602002820191906000526020600020905b8160009054906101000a900473ffffffffffffffffffffffffffffffffffffffff1673ffffffffffffffffffffffffffffffffffffffff1681526020019060010190808311610884575b5050505050905090565b6000600154905090565b600073ffffffffffffffffffffffffffffffffffffffff163373ffffffffffffffffffffffffffffffffffffffff161415610952576040517f08c379a0000000000000000000000000000000000000000000000000000000008152600401610949906116f8565b60405180910390fd5b600015156004600084815260200190815260200160002060003373ffffffffffffffffffffffffffffffffffffffff1673ffffffffffffffffffffffffffffffffffffffff16815260200190815260200160002060009054906101000a900460ff161515146109f6576040517f08c379a00000000000000000000000000000000000000000000000000000000081526004016109ed90611764565b60405180910390fd5b600060036000848152602001908152602001600020905081816001016000828254610a219190611784565b925050819055508160016000828254610a3a9190611784565b9250508190555060016004600085815260200190815260200160002060003373ffffffffffffffffffffffffffffffffffffffff1673ffffffffffffffffffffffffffffffffffffffff16815260200190815260200160002060006101000a81548160ff021916908315150217905550816005600085815260200190815260200160002060003373ffffffffffffffffffffffffffffffffffffffff1673ffffffffffffffffffffffffffffffffffffffff1681526020019081526020016000206000828254610b0a9190611784565b92505081905550610b1a33610c0b565b50806003600085815260200190815260200160002060008201548160000155600182015481600101556002820181600201908054610b57906115e9565b610b62929190610de1565b506003820160009054906101000a900473ffffffffffffffffffffffffffffffffffffffff168160030160006101000a81548173ffffffffffffffffffffffffffffffffffffffff021916908373ffffffffffffffffffffffffffffffffffffffff1602179055509050507f7a0ba520c66559516642648cf084154311abd5e3408c3ac4c16df3494c739d4a8383604051610bfe9291906117da565b60405180910390a1505050565b600080600090505b600280549050811015610caf5760028181548110610c3457610c33611803565b5b9060005260206000200160009054906101000a900473ffffffffffffffffffffffffffffffffffffffff1673ffffffffffffffffffffffffffffffffffffffff168373ffffffffffffffffffffffffffffffffffffffff161415610c9c576000915050610d18565b8080610ca790611571565b915050610c13565b506002829080600181540180825580915050600190039060005260206000200160009091909190916101000a81548173ffffffffffffffffffffffffffffffffffffffff021916908373ffffffffffffffffffffffffffffffffffffffff160217905550600190505b919050565b6040518060800160405280600081526020016000815260200160608152602001600073ffffffffffffffffffffffffffffffffffffffff1681525090565b828054610d67906115e9565b90600052602060002090601f016020900481019282610d895760008555610dd0565b82601f10610da257805160ff1916838001178555610dd0565b82800160010185558215610dd0579182015b82811115610dcf578251825591602001919060010190610db4565b5b509050610ddd9190610e6e565b5090565b828054610ded906115e9565b90600052602060002090601f016020900481019282610e0f5760008555610e5d565b82601f10610e205780548555610e5d565b82800160010185558215610e5d57600052602060002091601f016020900482015b82811115610e5c578254825591600101919060010190610e41565b5b509050610e6a9190610e6e565b5090565b5b80821115610e87576000816000905550600101610e6f565b5090565b6000819050919050565b610e9e81610e8b565b82525050565b6000602082019050610eb96000830184610e95565b92915050565b6000604051905090565b600080fd5b600080fd5b600073ffffffffffffffffffffffffffffffffffffffff82169050919050565b6000610efe82610ed3565b9050919050565b610f0e81610ef3565b8114610f1957600080fd5b50565b600081359050610f2b81610f05565b92915050565b610f3a81610e8b565b8114610f4557600080fd5b50565b600081359050610f5781610f31565b92915050565b60008060408385031215610f7457610f73610ec9565b5b6000610f8285828601610f1c565b9250506020610f9385828601610f48565b9150509250929050565b600060208284031215610fb357610fb2610ec9565b5b6000610fc184828501610f48565b91505092915050565b610fd381610ef3565b82525050565b6000602082019050610fee6000830184610fca565b92915050565b6000806040838503121561100b5761100a610ec9565b5b600061101985828601610f48565b925050602061102a85828601610f1c565b9150509250929050565b61103d81610e8b565b82525050565b600081519050919050565b600082825260208201905092915050565b60005b8381101561107d578082015181840152602081019050611062565b8381111561108c576000848401525b50505050565b6000601f19601f8301169050919050565b60006110ae82611043565b6110b8818561104e565b93506110c881856020860161105f565b6110d181611092565b840191505092915050565b60006110e782610ed3565b9050919050565b6110f7816110dc565b82525050565b60006080830160008301516111156000860182611034565b5060208301516111286020860182611034565b506040830151848203604086015261114082826110a3565b915050606083015161115560608601826110ee565b508091505092915050565b6000602082019050818103600083015261117a81846110fd565b905092915050565b600082825260208201905092915050565b600061119e82611043565b6111a88185611182565b93506111b881856020860161105f565b6111c181611092565b840191505092915050565b6111d5816110dc565b82525050565b60006080820190506111f06000830187610e95565b6111fd6020830186610e95565b818103604083015261120f8185611193565b905061121e60608301846111cc565b95945050505050565b600080fd5b600080fd5b7f4e487b7100000000000000000000000000000000000000000000000000000000600052604160045260246000fd5b61126982611092565b810181811067ffffffffffffffff8211171561128857611287611231565b5b80604052505050565b600061129b610ebf565b90506112a78282611260565b919050565b600067ffffffffffffffff8211156112c7576112c6611231565b5b6112d082611092565b9050602081019050919050565b82818337600083830152505050565b60006112ff6112fa846112ac565b611291565b90508281526020810184848401111561131b5761131a61122c565b5b6113268482856112dd565b509392505050565b600082601f83011261134357611342611227565b5b81356113538482602086016112ec565b91505092915050565b6000806040838503121561137357611372610ec9565b5b600083013567ffffffffffffffff81111561139157611390610ece565b5b61139d8582860161132e565b92505060206113ae85828601610f48565b9150509250929050565b60008115159050919050565b6113cd816113b8565b82525050565b60006020820190506113e860008301846113c4565b92915050565b600081519050919050565b600082825260208201905092915050565b6000819050602082019050919050565b61142381610ef3565b82525050565b6000611435838361141a565b60208301905092915050565b6000602082019050919050565b6000611459826113ee565b61146381856113f9565b935061146e8361140a565b8060005b8381101561149f5781516114868882611429565b975061149183611441565b925050600181019050611472565b5085935050505092915050565b600060208201905081810360008301526114c6818461144e565b905092915050565b600080604083850312156114e5576114e4610ec9565b5b60006114f385828601610f48565b925050602061150485828601610f48565b9150509250929050565b7f4e487b7100000000000000000000000000000000000000000000000000000000600052601160045260246000fd5b600061154882610e8b565b915061155383610e8b565b9250828210156115665761156561150e565b5b828203905092915050565b600061157c82610e8b565b91507fffffffffffffffffffffffffffffffffffffffffffffffffffffffffffffffff8214156115af576115ae61150e565b5b600182019050919050565b7f4e487b7100000000000000000000000000000000000000000000000000000000600052602260045260246000fd5b6000600282049050600182168061160157607f821691505b60208210811415611615576116146115ba565b5b50919050565b6000819050919050565b6000819050919050565b600061164a6116456116408461161b565b611625565b610e8b565b9050919050565b61165a8161162f565b82525050565b60006080820190506116756000830187610fca565b81810360208301526116878186611193565b90506116966040830185611651565b6116a36060830184610e95565b95945050505050565b7f53656e6465722063616e27742062652061646472657373203000000000000000600082015250565b60006116e2601983611182565b91506116ed826116ac565b602082019050919050565b60006020820190508181036000830152611711816116d5565b9050919050565b7f5573657220616c72656164792074697070656400000000000000000000000000600082015250565b600061174e601383611182565b915061175982611718565b602082019050919050565b6000602082019050818103600083015261177d81611741565b9050919050565b600061178f82610e8b565b915061179a83610e8b565b9250827fffffffffffffffffffffffffffffffffffffffffffffffffffffffffffffffff038211156117cf576117ce61150e565b5b828201905092915050565b60006040820190506117ef6000830185610e95565b6117fc6020830184610e95565b9392505050565b7f4e487b7100000000000000000000000000000000000000000000000000000000600052603260045260246000fdfea26469706673582212208bba05552165c961802102cddcd5d67c86a460b951e4aebf4ad415aa32df7b8e64736f6c63430008090033",
  "immutableReferences": {},
  "source": "// SPDX-License-Identifier: MIT\npragma solidity >=0.4.22 <0.9.0;\n/*\n    1. Dodanie msg.sender do listy \n    2. Przy pierwszym onLoad na strone zapisanie id bloku + sprawdzenie czy w liscie msg.sender zawiera sie adres ktory wykonywa transakcje\n    3.1 Jeli msg.sender zrobi transakcje to \n*/\n\n\ncontract Comments {\n\n    event commentAdded(\n        address author,\n        string content,\n        uint256 tips,\n        uint timestamp\n    );\n\n    event commentTipped(\n        uint id,\n        uint amount\n    );\n    \n    event commentUnTipped(\n        uint id,\n        uint amount\n    );\n\n    struct Comment {\n        uint id;\n        uint256 tips;\n        string content;\n        address payable author;\n    }\n\n    \n    uint public commentCount = 0;\n    uint public tipsSum;\n    address[] public addressesTipped;\n    \n    mapping(uint => Comment) public comments;\n    mapping(uint => mapping(address => bool)) public tippers; // Comment.id => (tipper => bool)\n    mapping(uint => mapping(address => uint)) public addressToTips; // (commentId => (adres => wartosc tipa))\n    \n    \n    function setTip(address _tipper, uint _balance) public{\n        for(uint i = 0; i < commentCount; i++) {\n            if(tippers[i][_tipper] && addressToTips[i][_tipper] != _balance) {\n                comments[i].tips -= addressToTips[i][_tipper] - _balance;\n                addressToTips[i][_tipper] = _balance;\n            }\n        }\n    }\n    \n    function getTotalTipsSum() public view returns(uint){\n        return tipsSum;\n    }\n    \n    function getTippers() public view returns (address[] memory) {\n        return addressesTipped;\n    }\n        \n    function addTipper(address _tipper) private returns(bool){\n        for(uint i = 0; i < addressesTipped.length; i++) {\n            if(_tipper == addressesTipped[i]) {\n                return false;\n            }\n        }\n        addressesTipped.push(_tipper);\n        return true;\n    }    \n        \n    function tipComment(uint _id, uint _amount) public {\n        require(msg.sender != address(0), \"Sender can't be address 0\");\n        require(tippers[_id][msg.sender] == false, \"User already tipped\");\n        \n        Comment storage _comment = comments[_id];\n        \n        _comment.tips += _amount;\n        tipsSum += _amount;\n        \n        \n        // User tipped (can only once)\n        tippers[_id][msg.sender] = true;\n        addressToTips[_id][msg.sender] += _amount;\n        \n        // Add msg.sender to addressesTipped\n        addTipper(msg.sender);\n        \n        \n        comments[_id] = _comment;\n\n        emit commentTipped(_id, _amount);\n        \n    }\n\n    function addComment(string memory _content, uint _value) public {\n        comments[commentCount] = Comment(commentCount, 0, _content, payable(msg.sender));\n        emit commentAdded(msg.sender, _content, 0, block.timestamp);\n        tipComment(commentCount, _value);\n        commentCount++;\n    }\n    \n    function getCommentCount() public view returns (uint){\n        return commentCount;\n    }\n    \n    function getCommentById(uint _id) public view returns (Comment memory) {\n        return comments[_id];\n    }\n    \n    \n}",
  "sourcePath": "E:\\Projects\\HashUp\\hashup-contracts\\contracts\\Comments.sol",
  "compiler": {
    "name": "solc",
    "version": "0.8.9+commit.e5eed63a.Emscripten.clang"
  },
  "schemaVersion": "3.4.3",
  "updatedAt": "2021-11-22T19:12:28.510Z",
  "networkType": "ethereum",
  "devdoc": {
    "kind": "dev",
    "methods": {},
    "version": 1
  },
  "userdoc": {
    "kind": "user",
    "methods": {},
    "version": 1
  }
}