{
  "contractName": "Comments",
  "abi": [
    {
      "anonymous": false,
      "inputs": [
        {
          "indexed": false,
          "internalType": "address",
          "name": "author",
          "type": "address"
        },
        {
          "indexed": false,
          "internalType": "string",
          "name": "content",
          "type": "string"
        },
        {
          "indexed": false,
          "internalType": "uint256",
          "name": "tips",
          "type": "uint256"
        },
        {
          "indexed": false,
          "internalType": "uint256",
          "name": "timestamp",
          "type": "uint256"
        }
      ],
      "name": "commentAdded",
      "type": "event"
    },
    {
      "anonymous": false,
      "inputs": [
        {
          "indexed": false,
          "internalType": "uint256",
          "name": "id",
          "type": "uint256"
        },
        {
          "indexed": false,
          "internalType": "uint256",
          "name": "amount",
          "type": "uint256"
        }
      ],
      "name": "commentTipped",
      "type": "event"
    },
    {
      "inputs": [],
      "name": "commentCount",
      "outputs": [
        {
          "internalType": "uint256",
          "name": "",
          "type": "uint256"
        }
      ],
      "stateMutability": "view",
      "type": "function",
      "constant": true
    },
    {
      "inputs": [
        {
          "internalType": "uint256",
          "name": "",
          "type": "uint256"
        }
      ],
      "name": "comments",
      "outputs": [
        {
          "internalType": "uint256",
          "name": "id",
          "type": "uint256"
        },
        {
          "internalType": "uint256",
          "name": "tips",
          "type": "uint256"
        },
        {
          "internalType": "string",
          "name": "content",
          "type": "string"
        },
        {
          "internalType": "address payable",
          "name": "author",
          "type": "address"
        }
      ],
      "stateMutability": "view",
      "type": "function",
      "constant": true
    },
    {
      "inputs": [
        {
          "internalType": "uint256",
          "name": "_id",
          "type": "uint256"
        }
      ],
      "name": "tipComment",
      "outputs": [],
      "stateMutability": "payable",
      "type": "function",
      "payable": true
    },
    {
      "inputs": [
        {
          "internalType": "string",
          "name": "_content",
          "type": "string"
        }
      ],
      "name": "addComment",
      "outputs": [],
      "stateMutability": "nonpayable",
      "type": "function"
    }
  ],
  "bytecode": "0x60806040526000805534801561001457600080fd5b50610bb5806100246000396000f3fe60806040526004361061003f5760003560e01c806345ff20de146100445780634802a76c1461006f578063843b43861461008b5780638ebb4c15146100b4575b600080fd5b34801561005057600080fd5b506100596100f4565b6040516100669190610571565b60405180910390f35b610089600480360381019061008491906105cc565b6100fa565b005b34801561009757600080fd5b506100b260048036038101906100ad919061073f565b6102bc565b005b3480156100c057600080fd5b506100db60048036038101906100d691906105cc565b6103dd565b6040516100eb9493929190610851565b60405180910390f35b60005481565b600073ffffffffffffffffffffffffffffffffffffffff163373ffffffffffffffffffffffffffffffffffffffff16141561016a576040517f08c379a0000000000000000000000000000000000000000000000000000000008152600401610161906108e9565b60405180910390fd5b67016345785d8a00003410156101b5576040517f08c379a00000000000000000000000000000000000000000000000000000000081526004016101ac90610955565b60405180910390fd5b600081101580156101c7575060005481105b6101d057600080fd5b60006001600083815260200190815260200160002060030160009054906101000a900473ffffffffffffffffffffffffffffffffffffffff1690508073ffffffffffffffffffffffffffffffffffffffff166108fc349081150290604051600060405180830381858888f19350505050158015610251573d6000803e3d6000fd5b503460016000848152602001908152602001600020600101600082825461027891906109a4565b925050819055507f7a0ba520c66559516642648cf084154311abd5e3408c3ac4c16df3494c739d4a82346040516102b09291906109fa565b60405180910390a15050565b60405180608001604052806000548152602001600081526020018281526020013373ffffffffffffffffffffffffffffffffffffffff1681525060016000805481526020019081526020016000206000820151816000015560208201518160010155604082015181600201908051906020019061033a9291906104b5565b5060608201518160030160006101000a81548173ffffffffffffffffffffffffffffffffffffffff021916908373ffffffffffffffffffffffffffffffffffffffff1602179055509050507f83e3daed4f60a9f1f3f515f6fc6bcd2ea924cfc69b9781cf92a4251d588db90333826000426040516103bb9493929190610a89565b60405180910390a16000808154809291906103d590610ad5565b919050555050565b600160205280600052604060002060009150905080600001549080600101549080600201805461040c90610b4d565b80601f016020809104026020016040519081016040528092919081815260200182805461043890610b4d565b80156104855780601f1061045a57610100808354040283529160200191610485565b820191906000526020600020905b81548152906001019060200180831161046857829003601f168201915b5050505050908060030160009054906101000a900473ffffffffffffffffffffffffffffffffffffffff16905084565b8280546104c190610b4d565b90600052602060002090601f0160209004810192826104e3576000855561052a565b82601f106104fc57805160ff191683800117855561052a565b8280016001018555821561052a579182015b8281111561052957825182559160200191906001019061050e565b5b509050610537919061053b565b5090565b5b8082111561055457600081600090555060010161053c565b5090565b6000819050919050565b61056b81610558565b82525050565b60006020820190506105866000830184610562565b92915050565b6000604051905090565b600080fd5b600080fd5b6105a981610558565b81146105b457600080fd5b50565b6000813590506105c6816105a0565b92915050565b6000602082840312156105e2576105e1610596565b5b60006105f0848285016105b7565b91505092915050565b600080fd5b600080fd5b6000601f19601f8301169050919050565b7f4e487b7100000000000000000000000000000000000000000000000000000000600052604160045260246000fd5b61064c82610603565b810181811067ffffffffffffffff8211171561066b5761066a610614565b5b80604052505050565b600061067e61058c565b905061068a8282610643565b919050565b600067ffffffffffffffff8211156106aa576106a9610614565b5b6106b382610603565b9050602081019050919050565b82818337600083830152505050565b60006106e26106dd8461068f565b610674565b9050828152602081018484840111156106fe576106fd6105fe565b5b6107098482856106c0565b509392505050565b600082601f830112610726576107256105f9565b5b81356107368482602086016106cf565b91505092915050565b60006020828403121561075557610754610596565b5b600082013567ffffffffffffffff8111156107735761077261059b565b5b61077f84828501610711565b91505092915050565b600081519050919050565b600082825260208201905092915050565b60005b838110156107c25780820151818401526020810190506107a7565b838111156107d1576000848401525b50505050565b60006107e282610788565b6107ec8185610793565b93506107fc8185602086016107a4565b61080581610603565b840191505092915050565b600073ffffffffffffffffffffffffffffffffffffffff82169050919050565b600061083b82610810565b9050919050565b61084b81610830565b82525050565b60006080820190506108666000830187610562565b6108736020830186610562565b818103604083015261088581856107d7565b90506108946060830184610842565b95945050505050565b7f53656e6465722063616e27742062652061646472657373203000000000000000600082015250565b60006108d3601983610793565b91506108de8261089d565b602082019050919050565b60006020820190508181036000830152610902816108c6565b9050919050565b7f546f20736d616c6c20616d6f756e74206f662065746865720000000000000000600082015250565b600061093f601883610793565b915061094a82610909565b602082019050919050565b6000602082019050818103600083015261096e81610932565b9050919050565b7f4e487b7100000000000000000000000000000000000000000000000000000000600052601160045260246000fd5b60006109af82610558565b91506109ba83610558565b9250827fffffffffffffffffffffffffffffffffffffffffffffffffffffffffffffffff038211156109ef576109ee610975565b5b828201905092915050565b6000604082019050610a0f6000830185610562565b610a1c6020830184610562565b9392505050565b6000610a2e82610810565b9050919050565b610a3e81610a23565b82525050565b6000819050919050565b6000819050919050565b6000610a73610a6e610a6984610a44565b610a4e565b610558565b9050919050565b610a8381610a58565b82525050565b6000608082019050610a9e6000830187610a35565b8181036020830152610ab081866107d7565b9050610abf6040830185610a7a565b610acc6060830184610562565b95945050505050565b6000610ae082610558565b91507fffffffffffffffffffffffffffffffffffffffffffffffffffffffffffffffff821415610b1357610b12610975565b5b600182019050919050565b7f4e487b7100000000000000000000000000000000000000000000000000000000600052602260045260246000fd5b60006002820490506001821680610b6557607f821691505b60208210811415610b7957610b78610b1e565b5b5091905056fea2646970667358221220f151a5e45cdb2d1a5a5c4277bb883d81c54ff1c1c5c9261c1d754b495d8838ec64736f6c63430008090033",
  "immutableReferences": {},
  "source": "// SPDX-License-Identifier: MIT\npragma solidity >=0.4.22 <0.9.0;\n\ncontract Comments {\n\n    event commentAdded(\n        address author,\n        string content,\n        uint256 tips,\n        uint timestamp\n    );\n\n    event commentTipped(\n        uint id,\n        uint amount\n    );\n\n    struct Comment {\n        uint id;\n        uint256 tips;\n        string content;\n        address payable author;\n    }\n\n\n    uint public commentCount = 0;\n\n\n    mapping(uint => Comment) public comments;\n\n\n\n    function tipComment(uint _id) external payable{\n        require(msg.sender != address(0), \"Sender can't be address 0\");\n        require(msg.value >= 0.1 ether, \"To small amount of ether\");\n        require(_id >= 0 && _id < commentCount);\n\n        address payable _author = comments[_id].author;\n\n        _author.transfer(msg.value);\n\n        comments[_id].tips += msg.value ;\n\n        emit commentTipped(_id, msg.value);\n\n    }\n\n    function addComment(string memory _content) public {\n        comments[commentCount] = Comment(commentCount, 0, _content, payable(msg.sender));\n        emit commentAdded(msg.sender, _content, 0, block.timestamp);\n        commentCount++;\n    }\n\n}",
  "sourcePath": "E:\\Projects\\HashUp\\hashup-contracts\\contracts\\Comments.sol",
  "compiler": {
    "name": "solc",
    "version": "0.8.9+commit.e5eed63a.Emscripten.clang"
  },
  "schemaVersion": "3.4.3",
  "updatedAt": "2021-11-12T21:16:32.984Z",
  "networkType": "ethereum",
  "devdoc": {
    "kind": "dev",
    "methods": {},
    "version": 1
  },
  "userdoc": {
    "kind": "user",
    "methods": {},
    "version": 1
  }
}