{
  "contractName": "Comments",
  "abi": [
    {
      "anonymous": false,
      "inputs": [
        {
          "indexed": false,
          "internalType": "address",
          "name": "author",
          "type": "address"
        },
        {
          "indexed": false,
          "internalType": "string",
          "name": "content",
          "type": "string"
        },
        {
          "indexed": false,
          "internalType": "uint256",
          "name": "tips",
          "type": "uint256"
        },
        {
          "indexed": false,
          "internalType": "uint256",
          "name": "timestamp",
          "type": "uint256"
        }
      ],
      "name": "commentAdded",
      "type": "event"
    },
    {
      "anonymous": false,
      "inputs": [
        {
          "indexed": false,
          "internalType": "uint256",
          "name": "id",
          "type": "uint256"
        },
        {
          "indexed": false,
          "internalType": "uint256",
          "name": "amount",
          "type": "uint256"
        }
      ],
      "name": "commentTipped",
      "type": "event"
    },
    {
      "inputs": [],
      "name": "commentCount",
      "outputs": [
        {
          "internalType": "uint256",
          "name": "",
          "type": "uint256"
        }
      ],
      "stateMutability": "view",
      "type": "function",
      "constant": true
    },
    {
      "inputs": [
        {
          "internalType": "uint256",
          "name": "",
          "type": "uint256"
        }
      ],
      "name": "comments",
      "outputs": [
        {
          "internalType": "uint256",
          "name": "id",
          "type": "uint256"
        },
        {
          "internalType": "uint256",
          "name": "tips",
          "type": "uint256"
        },
        {
          "internalType": "string",
          "name": "content",
          "type": "string"
        },
        {
          "internalType": "address payable",
          "name": "author",
          "type": "address"
        }
      ],
      "stateMutability": "view",
      "type": "function",
      "constant": true
    },
    {
      "inputs": [
        {
          "internalType": "uint256",
          "name": "_id",
          "type": "uint256"
        }
      ],
      "name": "tipComment",
      "outputs": [],
      "stateMutability": "payable",
      "type": "function",
      "payable": true
    },
    {
      "inputs": [
        {
          "internalType": "string",
          "name": "_content",
          "type": "string"
        }
      ],
      "name": "addComment",
      "outputs": [],
      "stateMutability": "nonpayable",
      "type": "function"
    }
  ],
  "bytecode": "0x60806040526000805534801561001457600080fd5b50610ce0806100246000396000f3fe60806040526004361061003f5760003560e01c806345ff20de146100445780634802a76c1461006f578063843b43861461008b5780638ebb4c15146100b4575b600080fd5b34801561005057600080fd5b506100596100f4565b604051610066919061069c565b60405180910390f35b610089600480360381019061008491906106f7565b6100fa565b005b34801561009757600080fd5b506100b260048036038101906100ad919061086a565b61035a565b005b3480156100c057600080fd5b506100db60048036038101906100d691906106f7565b61047b565b6040516100eb949392919061097c565b60405180910390f35b60005481565b600073ffffffffffffffffffffffffffffffffffffffff163373ffffffffffffffffffffffffffffffffffffffff16141561016a576040517f08c379a000000000000000000000000000000000000000000000000000000000815260040161016190610a14565b60405180910390fd5b67016345785d8a00003410156101b5576040517f08c379a00000000000000000000000000000000000000000000000000000000081526004016101ac90610a80565b60405180910390fd5b600060016000838152602001908152602001600020905060006001600084815260200190815260200160002060030160009054906101000a900473ffffffffffffffffffffffffffffffffffffffff1690508073ffffffffffffffffffffffffffffffffffffffff166108fc349081150290604051600060405180830381858888f1935050505015801561024d573d6000803e3d6000fd5b5060018260010160008282546102639190610acf565b925050819055508160016000858152602001908152602001600020600082015481600001556001820154816001015560028201816002019080546102a690610b54565b6102b1929190610553565b506003820160009054906101000a900473ffffffffffffffffffffffffffffffffffffffff168160030160006101000a81548173ffffffffffffffffffffffffffffffffffffffff021916908373ffffffffffffffffffffffffffffffffffffffff1602179055509050507f7a0ba520c66559516642648cf084154311abd5e3408c3ac4c16df3494c739d4a833460405161034d929190610b86565b60405180910390a1505050565b60405180608001604052806000548152602001600081526020018281526020013373ffffffffffffffffffffffffffffffffffffffff168152506001600080548152602001908152602001600020600082015181600001556020820151816001015560408201518160020190805190602001906103d89291906105e0565b5060608201518160030160006101000a81548173ffffffffffffffffffffffffffffffffffffffff021916908373ffffffffffffffffffffffffffffffffffffffff1602179055509050507f83e3daed4f60a9f1f3f515f6fc6bcd2ea924cfc69b9781cf92a4251d588db90333826000426040516104599493929190610c15565b60405180910390a160008081548092919061047390610c61565b919050555050565b60016020528060005260406000206000915090508060000154908060010154908060020180546104aa90610b54565b80601f01602080910402602001604051908101604052809291908181526020018280546104d690610b54565b80156105235780601f106104f857610100808354040283529160200191610523565b820191906000526020600020905b81548152906001019060200180831161050657829003601f168201915b5050505050908060030160009054906101000a900473ffffffffffffffffffffffffffffffffffffffff16905084565b82805461055f90610b54565b90600052602060002090601f01602090048101928261058157600085556105cf565b82601f1061059257805485556105cf565b828001600101855582156105cf57600052602060002091601f016020900482015b828111156105ce5782548255916001019190600101906105b3565b5b5090506105dc9190610666565b5090565b8280546105ec90610b54565b90600052602060002090601f01602090048101928261060e5760008555610655565b82601f1061062757805160ff1916838001178555610655565b82800160010185558215610655579182015b82811115610654578251825591602001919060010190610639565b5b5090506106629190610666565b5090565b5b8082111561067f576000816000905550600101610667565b5090565b6000819050919050565b61069681610683565b82525050565b60006020820190506106b1600083018461068d565b92915050565b6000604051905090565b600080fd5b600080fd5b6106d481610683565b81146106df57600080fd5b50565b6000813590506106f1816106cb565b92915050565b60006020828403121561070d5761070c6106c1565b5b600061071b848285016106e2565b91505092915050565b600080fd5b600080fd5b6000601f19601f8301169050919050565b7f4e487b7100000000000000000000000000000000000000000000000000000000600052604160045260246000fd5b6107778261072e565b810181811067ffffffffffffffff821117156107965761079561073f565b5b80604052505050565b60006107a96106b7565b90506107b5828261076e565b919050565b600067ffffffffffffffff8211156107d5576107d461073f565b5b6107de8261072e565b9050602081019050919050565b82818337600083830152505050565b600061080d610808846107ba565b61079f565b90508281526020810184848401111561082957610828610729565b5b6108348482856107eb565b509392505050565b600082601f83011261085157610850610724565b5b81356108618482602086016107fa565b91505092915050565b6000602082840312156108805761087f6106c1565b5b600082013567ffffffffffffffff81111561089e5761089d6106c6565b5b6108aa8482850161083c565b91505092915050565b600081519050919050565b600082825260208201905092915050565b60005b838110156108ed5780820151818401526020810190506108d2565b838111156108fc576000848401525b50505050565b600061090d826108b3565b61091781856108be565b93506109278185602086016108cf565b6109308161072e565b840191505092915050565b600073ffffffffffffffffffffffffffffffffffffffff82169050919050565b60006109668261093b565b9050919050565b6109768161095b565b82525050565b6000608082019050610991600083018761068d565b61099e602083018661068d565b81810360408301526109b08185610902565b90506109bf606083018461096d565b95945050505050565b7f53656e6465722063616e27742062652061646472657373203000000000000000600082015250565b60006109fe6019836108be565b9150610a09826109c8565b602082019050919050565b60006020820190508181036000830152610a2d816109f1565b9050919050565b7f546f20736d616c6c20616d6f756e74206f662065746865720000000000000000600082015250565b6000610a6a6018836108be565b9150610a7582610a34565b602082019050919050565b60006020820190508181036000830152610a9981610a5d565b9050919050565b7f4e487b7100000000000000000000000000000000000000000000000000000000600052601160045260246000fd5b6000610ada82610683565b9150610ae583610683565b9250827fffffffffffffffffffffffffffffffffffffffffffffffffffffffffffffffff03821115610b1a57610b19610aa0565b5b828201905092915050565b7f4e487b7100000000000000000000000000000000000000000000000000000000600052602260045260246000fd5b60006002820490506001821680610b6c57607f821691505b60208210811415610b8057610b7f610b25565b5b50919050565b6000604082019050610b9b600083018561068d565b610ba8602083018461068d565b9392505050565b6000610bba8261093b565b9050919050565b610bca81610baf565b82525050565b6000819050919050565b6000819050919050565b6000610bff610bfa610bf584610bd0565b610bda565b610683565b9050919050565b610c0f81610be4565b82525050565b6000608082019050610c2a6000830187610bc1565b8181036020830152610c3c8186610902565b9050610c4b6040830185610c06565b610c58606083018461068d565b95945050505050565b6000610c6c82610683565b91507fffffffffffffffffffffffffffffffffffffffffffffffffffffffffffffffff821415610c9f57610c9e610aa0565b5b60018201905091905056fea2646970667358221220bea0f179ef954bc181aa97388477eb0cdf1ac4e7c77f92e798181727012e1c9864736f6c63430008090033",
  "immutableReferences": {},
  "source": "// SPDX-License-Identifier: MIT\npragma solidity >=0.4.22 <0.9.0;\n\ncontract Comments {\n\n    event commentAdded(\n        address author,\n        string content,\n        uint256 tips,\n        uint timestamp\n    );\n\n    event commentTipped(\n        uint id,\n        uint amount\n    );\n\n    struct Comment {\n        uint id;\n        uint256 tips;\n        string content;\n        address payable author;\n    }\n\n\n    uint public commentCount = 0;\n\n\n    mapping(uint => Comment) public comments;\n\n\n\n    function tipComment(uint _id) public payable{\n        require(msg.sender != address(0), \"Sender can't be address 0\");\n        require(msg.value >= 0.1 ether, \"To small amount of ether\");\n\n        \n        Comment storage _comment = comments[_id];\n\n        address payable _author = comments[_id].author;\n\n        _author.transfer(msg.value);\n\n        _comment.tips += 1;\n\n        comments[_id] = _comment;\n\n        emit commentTipped(_id, msg.value);\n\n    }\n\n\n    function addComment(string memory _content) public {\n        comments[commentCount] = Comment(commentCount, 0, _content, payable(msg.sender));\n        emit commentAdded(msg.sender, _content, 0, block.timestamp);\n        commentCount++;\n    }\n\n}",
  "sourcePath": "E:\\Projects\\HashUp\\hashup-contracts\\contracts\\Comments.sol",
  "compiler": {
    "name": "solc",
    "version": "0.8.9+commit.e5eed63a.Emscripten.clang"
  },
  "schemaVersion": "3.4.3",
  "updatedAt": "2021-11-13T11:51:23.023Z",
  "networkType": "ethereum",
  "devdoc": {
    "kind": "dev",
    "methods": {},
    "version": 1
  },
  "userdoc": {
    "kind": "user",
    "methods": {},
    "version": 1
  }
}