{
  "contractName": "Comments",
  "abi": [
    {
      "anonymous": false,
      "inputs": [
        {
          "indexed": false,
          "internalType": "address",
          "name": "author",
          "type": "address"
        },
        {
          "indexed": false,
          "internalType": "string",
          "name": "content",
          "type": "string"
        },
        {
          "indexed": false,
          "internalType": "uint256",
          "name": "tips",
          "type": "uint256"
        },
        {
          "indexed": false,
          "internalType": "uint256",
          "name": "timestamp",
          "type": "uint256"
        }
      ],
      "name": "commentAdded",
      "type": "event"
    },
    {
      "anonymous": false,
      "inputs": [
        {
          "indexed": false,
          "internalType": "uint256",
          "name": "id",
          "type": "uint256"
        },
        {
          "indexed": false,
          "internalType": "uint256",
          "name": "amount",
          "type": "uint256"
        }
      ],
      "name": "commentTipped",
      "type": "event"
    },
    {
      "inputs": [],
      "name": "commentCount",
      "outputs": [
        {
          "internalType": "uint256",
          "name": "",
          "type": "uint256"
        }
      ],
      "stateMutability": "view",
      "type": "function",
      "constant": true
    },
    {
      "inputs": [
        {
          "internalType": "uint256",
          "name": "",
          "type": "uint256"
        }
      ],
      "name": "comments",
      "outputs": [
        {
          "internalType": "uint256",
          "name": "id",
          "type": "uint256"
        },
        {
          "internalType": "uint256",
          "name": "tips",
          "type": "uint256"
        },
        {
          "internalType": "string",
          "name": "content",
          "type": "string"
        },
        {
          "internalType": "address payable",
          "name": "author",
          "type": "address"
        }
      ],
      "stateMutability": "view",
      "type": "function",
      "constant": true
    },
    {
      "inputs": [
        {
          "internalType": "uint256",
          "name": "",
          "type": "uint256"
        },
        {
          "internalType": "address",
          "name": "",
          "type": "address"
        }
      ],
      "name": "tippers",
      "outputs": [
        {
          "internalType": "bool",
          "name": "",
          "type": "bool"
        }
      ],
      "stateMutability": "view",
      "type": "function",
      "constant": true
    },
    {
      "inputs": [
        {
          "internalType": "uint256",
          "name": "_id",
          "type": "uint256"
        },
        {
          "internalType": "uint256",
          "name": "_amount",
          "type": "uint256"
        }
      ],
      "name": "tipComment",
      "outputs": [],
      "stateMutability": "payable",
      "type": "function",
      "payable": true
    },
    {
      "inputs": [
        {
          "internalType": "string",
          "name": "_content",
          "type": "string"
        },
        {
          "internalType": "uint256",
          "name": "_value",
          "type": "uint256"
        }
      ],
      "name": "addComment",
      "outputs": [],
      "stateMutability": "nonpayable",
      "type": "function"
    },
    {
      "inputs": [],
      "name": "getCommentCount",
      "outputs": [
        {
          "internalType": "uint256",
          "name": "",
          "type": "uint256"
        }
      ],
      "stateMutability": "view",
      "type": "function",
      "constant": true
    },
    {
      "inputs": [
        {
          "internalType": "uint256",
          "name": "_id",
          "type": "uint256"
        }
      ],
      "name": "getCommentById",
      "outputs": [
        {
          "components": [
            {
              "internalType": "uint256",
              "name": "id",
              "type": "uint256"
            },
            {
              "internalType": "uint256",
              "name": "tips",
              "type": "uint256"
            },
            {
              "internalType": "string",
              "name": "content",
              "type": "string"
            },
            {
              "internalType": "address payable",
              "name": "author",
              "type": "address"
            }
          ],
          "internalType": "struct Comments.Comment",
          "name": "",
          "type": "tuple"
        }
      ],
      "stateMutability": "view",
      "type": "function",
      "constant": true
    }
  ],
  "bytecode": "0x60806040526000805534801561001457600080fd5b50611230806100246000396000f3fe6080604052600436106100705760003560e01c80638ebb4c151161004e5780638ebb4c151461010857806396a3d8d714610148578063e2f5e0df14610171578063fc4fce1d146101ae57610070565b806316e31ea31461007557806345ff20de146100a05780636c43dbb4146100cb575b600080fd5b34801561008157600080fd5b5061008a6101ca565b6040516100979190610a0a565b60405180910390f35b3480156100ac57600080fd5b506100b56101d3565b6040516100c29190610a0a565b60405180910390f35b3480156100d757600080fd5b506100f260048036038101906100ed9190610a65565b6101d9565b6040516100ff9190610bde565b60405180910390f35b34801561011457600080fd5b5061012f600480360381019061012a9190610a65565b610302565b60405161013f9493929190610c59565b60405180910390f35b34801561015457600080fd5b5061016f600480360381019061016a9190610dda565b6103da565b005b34801561017d57600080fd5b5061019860048036038101906101939190610e74565b6105b5565b6040516101a59190610ecf565b60405180910390f35b6101c860048036038101906101c39190610eea565b6105e4565b005b60008054905090565b60005481565b6101e1610883565b60016000838152602001908152602001600020604051806080016040529081600082015481526020016001820154815260200160028201805461022390610f59565b80601f016020809104026020016040519081016040528092919081815260200182805461024f90610f59565b801561029c5780601f106102715761010080835404028352916020019161029c565b820191906000526020600020905b81548152906001019060200180831161027f57829003601f168201915b505050505081526020016003820160009054906101000a900473ffffffffffffffffffffffffffffffffffffffff1673ffffffffffffffffffffffffffffffffffffffff1673ffffffffffffffffffffffffffffffffffffffff16815250509050919050565b600160205280600052604060002060009150905080600001549080600101549080600201805461033190610f59565b80601f016020809104026020016040519081016040528092919081815260200182805461035d90610f59565b80156103aa5780601f1061037f576101008083540402835291602001916103aa565b820191906000526020600020905b81548152906001019060200180831161038d57829003601f168201915b5050505050908060030160009054906101000a900473ffffffffffffffffffffffffffffffffffffffff16905084565b604051806080016040528060005481526020018281526020018381526020013373ffffffffffffffffffffffffffffffffffffffff168152506001600080548152602001908152602001600020600082015181600001556020820151816001015560408201518160020190805190602001906104579291906108c1565b5060608201518160030160006101000a81548173ffffffffffffffffffffffffffffffffffffffff021916908373ffffffffffffffffffffffffffffffffffffffff1602179055509050506001600260008054815260200190815260200160002060003373ffffffffffffffffffffffffffffffffffffffff1673ffffffffffffffffffffffffffffffffffffffff16815260200190815260200160002060006101000a81548160ff0219169083151502179055507f83e3daed4f60a9f1f3f515f6fc6bcd2ea924cfc69b9781cf92a4251d588db90333836000426040516105429493929190610fdf565b60405180910390a17f7a0ba520c66559516642648cf084154311abd5e3408c3ac4c16df3494c739d4a6001600080548152602001908152602001600020600001548260405161059292919061102b565b60405180910390a16000808154809291906105ac90611083565b91905055505050565b60026020528160005260406000206020528060005260406000206000915091509054906101000a900460ff1681565b600073ffffffffffffffffffffffffffffffffffffffff163373ffffffffffffffffffffffffffffffffffffffff161415610654576040517f08c379a000000000000000000000000000000000000000000000000000000000815260040161064b90611118565b60405180910390fd5b600015156002600084815260200190815260200160002060003373ffffffffffffffffffffffffffffffffffffffff1673ffffffffffffffffffffffffffffffffffffffff16815260200190815260200160002060009054906101000a900460ff161515146106f8576040517f08c379a00000000000000000000000000000000000000000000000000000000081526004016106ef90611184565b60405180910390fd5b60006001600084815260200190815260200160002090508181600101600082825461072391906111a4565b9250508190555060016002600085815260200190815260200160002060003373ffffffffffffffffffffffffffffffffffffffff1673ffffffffffffffffffffffffffffffffffffffff16815260200190815260200160002060006101000a81548160ff0219169083151502179055508060016000858152602001908152602001600020600082015481600001556001820154816001015560028201816002019080546107cf90610f59565b6107da929190610947565b506003820160009054906101000a900473ffffffffffffffffffffffffffffffffffffffff168160030160006101000a81548173ffffffffffffffffffffffffffffffffffffffff021916908373ffffffffffffffffffffffffffffffffffffffff1602179055509050507f7a0ba520c66559516642648cf084154311abd5e3408c3ac4c16df3494c739d4a838360405161087692919061102b565b60405180910390a1505050565b6040518060800160405280600081526020016000815260200160608152602001600073ffffffffffffffffffffffffffffffffffffffff1681525090565b8280546108cd90610f59565b90600052602060002090601f0160209004810192826108ef5760008555610936565b82601f1061090857805160ff1916838001178555610936565b82800160010185558215610936579182015b8281111561093557825182559160200191906001019061091a565b5b50905061094391906109d4565b5090565b82805461095390610f59565b90600052602060002090601f01602090048101928261097557600085556109c3565b82601f1061098657805485556109c3565b828001600101855582156109c357600052602060002091601f016020900482015b828111156109c25782548255916001019190600101906109a7565b5b5090506109d091906109d4565b5090565b5b808211156109ed5760008160009055506001016109d5565b5090565b6000819050919050565b610a04816109f1565b82525050565b6000602082019050610a1f60008301846109fb565b92915050565b6000604051905090565b600080fd5b600080fd5b610a42816109f1565b8114610a4d57600080fd5b50565b600081359050610a5f81610a39565b92915050565b600060208284031215610a7b57610a7a610a2f565b5b6000610a8984828501610a50565b91505092915050565b610a9b816109f1565b82525050565b600081519050919050565b600082825260208201905092915050565b60005b83811015610adb578082015181840152602081019050610ac0565b83811115610aea576000848401525b50505050565b6000601f19601f8301169050919050565b6000610b0c82610aa1565b610b168185610aac565b9350610b26818560208601610abd565b610b2f81610af0565b840191505092915050565b600073ffffffffffffffffffffffffffffffffffffffff82169050919050565b6000610b6582610b3a565b9050919050565b610b7581610b5a565b82525050565b6000608083016000830151610b936000860182610a92565b506020830151610ba66020860182610a92565b5060408301518482036040860152610bbe8282610b01565b9150506060830151610bd36060860182610b6c565b508091505092915050565b60006020820190508181036000830152610bf88184610b7b565b905092915050565b600082825260208201905092915050565b6000610c1c82610aa1565b610c268185610c00565b9350610c36818560208601610abd565b610c3f81610af0565b840191505092915050565b610c5381610b5a565b82525050565b6000608082019050610c6e60008301876109fb565b610c7b60208301866109fb565b8181036040830152610c8d8185610c11565b9050610c9c6060830184610c4a565b95945050505050565b600080fd5b600080fd5b7f4e487b7100000000000000000000000000000000000000000000000000000000600052604160045260246000fd5b610ce782610af0565b810181811067ffffffffffffffff82111715610d0657610d05610caf565b5b80604052505050565b6000610d19610a25565b9050610d258282610cde565b919050565b600067ffffffffffffffff821115610d4557610d44610caf565b5b610d4e82610af0565b9050602081019050919050565b82818337600083830152505050565b6000610d7d610d7884610d2a565b610d0f565b905082815260208101848484011115610d9957610d98610caa565b5b610da4848285610d5b565b509392505050565b600082601f830112610dc157610dc0610ca5565b5b8135610dd1848260208601610d6a565b91505092915050565b60008060408385031215610df157610df0610a2f565b5b600083013567ffffffffffffffff811115610e0f57610e0e610a34565b5b610e1b85828601610dac565b9250506020610e2c85828601610a50565b9150509250929050565b6000610e4182610b3a565b9050919050565b610e5181610e36565b8114610e5c57600080fd5b50565b600081359050610e6e81610e48565b92915050565b60008060408385031215610e8b57610e8a610a2f565b5b6000610e9985828601610a50565b9250506020610eaa85828601610e5f565b9150509250929050565b60008115159050919050565b610ec981610eb4565b82525050565b6000602082019050610ee46000830184610ec0565b92915050565b60008060408385031215610f0157610f00610a2f565b5b6000610f0f85828601610a50565b9250506020610f2085828601610a50565b9150509250929050565b7f4e487b7100000000000000000000000000000000000000000000000000000000600052602260045260246000fd5b60006002820490506001821680610f7157607f821691505b60208210811415610f8557610f84610f2a565b5b50919050565b610f9481610e36565b82525050565b6000819050919050565b6000819050919050565b6000610fc9610fc4610fbf84610f9a565b610fa4565b6109f1565b9050919050565b610fd981610fae565b82525050565b6000608082019050610ff46000830187610f8b565b81810360208301526110068186610c11565b90506110156040830185610fd0565b61102260608301846109fb565b95945050505050565b600060408201905061104060008301856109fb565b61104d60208301846109fb565b9392505050565b7f4e487b7100000000000000000000000000000000000000000000000000000000600052601160045260246000fd5b600061108e826109f1565b91507fffffffffffffffffffffffffffffffffffffffffffffffffffffffffffffffff8214156110c1576110c0611054565b5b600182019050919050565b7f53656e6465722063616e27742062652061646472657373203000000000000000600082015250565b6000611102601983610c00565b915061110d826110cc565b602082019050919050565b60006020820190508181036000830152611131816110f5565b9050919050565b7f5573657220616c72656164792074697070656400000000000000000000000000600082015250565b600061116e601383610c00565b915061117982611138565b602082019050919050565b6000602082019050818103600083015261119d81611161565b9050919050565b60006111af826109f1565b91506111ba836109f1565b9250827fffffffffffffffffffffffffffffffffffffffffffffffffffffffffffffffff038211156111ef576111ee611054565b5b82820190509291505056fea26469706673582212206e106e636da62f1b9b2e1b7693dceb901008938ea10ca95920cf9c0da8f5488564736f6c63430008090033",
  "immutableReferences": {},
  "source": "// SPDX-License-Identifier: MIT\npragma solidity >=0.4.22 <0.9.0;\npragma experimental ABIEncoderV2;\ncontract Comments {\n\n    event commentAdded(\n        address author,\n        string content,\n        uint256 tips,\n        uint timestamp\n    );\n\n    event commentTipped(\n        uint id,\n        uint amount\n    );\n\n    struct Comment {\n        uint id;\n        uint256 tips;\n        string content;\n        address payable author;\n    }\n\n\n    uint public commentCount = 0;\n\n\n    mapping(uint => Comment) public comments;\n    mapping(uint => mapping(address => bool)) public tippers; // Comment.id => (tipper => bool)\n\n\n    function tipComment(uint _id, uint _amount) public payable{\n        require(msg.sender != address(0), \"Sender can't be address 0\");\n        require(tippers[_id][msg.sender] == false, \"User already tipped\");\n        \n        Comment storage _comment = comments[_id];\n        \n        _comment.tips += _amount;\n        \n        // User tipped (can only once)\n        tippers[_id][msg.sender] = true;\n        \n        comments[_id] = _comment;\n\n        emit commentTipped(_id, _amount);\n        \n    }\n\n\n    function addComment(string memory _content, uint _value) public {\n        comments[commentCount] = Comment(commentCount, _value, _content, payable(msg.sender));\n        tippers[commentCount][msg.sender] = true;\n        emit commentAdded(msg.sender, _content, 0, block.timestamp);\n        emit commentTipped(comments[commentCount].id, _value);\n        commentCount++;\n    }\n    \n    function getCommentCount() public view returns(uint){\n        return commentCount;\n    }\n    \n    function getCommentById(uint _id) public view returns(Comment memory) {\n        return comments[_id];\n    }\n    \n    \n}",
  "sourcePath": "E:\\Projects\\HashUp\\hashup-contracts\\contracts\\Comments.sol",
  "compiler": {
    "name": "solc",
    "version": "0.8.9+commit.e5eed63a.Emscripten.clang"
  },
  "schemaVersion": "3.4.3",
  "updatedAt": "2021-11-18T19:45:52.956Z",
  "networkType": "ethereum",
  "devdoc": {
    "kind": "dev",
    "methods": {},
    "version": 1
  },
  "userdoc": {
    "kind": "user",
    "methods": {},
    "version": 1
  }
}