{
  "contractName": "Comments",
  "abi": [
    {
      "anonymous": false,
      "inputs": [
        {
          "indexed": false,
          "internalType": "address",
          "name": "author",
          "type": "address"
        },
        {
          "indexed": false,
          "internalType": "string",
          "name": "content",
          "type": "string"
        },
        {
          "indexed": false,
          "internalType": "uint256",
          "name": "tips",
          "type": "uint256"
        },
        {
          "indexed": false,
          "internalType": "uint256",
          "name": "timestamp",
          "type": "uint256"
        }
      ],
      "name": "commentAdded",
      "type": "event"
    },
    {
      "anonymous": false,
      "inputs": [
        {
          "indexed": false,
          "internalType": "uint256",
          "name": "id",
          "type": "uint256"
        },
        {
          "indexed": false,
          "internalType": "uint256",
          "name": "amount",
          "type": "uint256"
        }
      ],
      "name": "commentTipped",
      "type": "event"
    },
    {
      "anonymous": false,
      "inputs": [
        {
          "indexed": false,
          "internalType": "uint256",
          "name": "id",
          "type": "uint256"
        },
        {
          "indexed": false,
          "internalType": "uint256",
          "name": "unTippedAmount",
          "type": "uint256"
        },
        {
          "indexed": false,
          "internalType": "address",
          "name": "tipper",
          "type": "address"
        }
      ],
      "name": "commentUnTipped",
      "type": "event"
    },
    {
      "inputs": [
        {
          "internalType": "uint256",
          "name": "",
          "type": "uint256"
        },
        {
          "internalType": "address",
          "name": "",
          "type": "address"
        }
      ],
      "name": "addressToTips",
      "outputs": [
        {
          "internalType": "uint256",
          "name": "",
          "type": "uint256"
        }
      ],
      "stateMutability": "view",
      "type": "function",
      "constant": true
    },
    {
      "inputs": [
        {
          "internalType": "uint256",
          "name": "",
          "type": "uint256"
        }
      ],
      "name": "addressesTipped",
      "outputs": [
        {
          "internalType": "address",
          "name": "",
          "type": "address"
        }
      ],
      "stateMutability": "view",
      "type": "function",
      "constant": true
    },
    {
      "inputs": [],
      "name": "commentCount",
      "outputs": [
        {
          "internalType": "uint256",
          "name": "",
          "type": "uint256"
        }
      ],
      "stateMutability": "view",
      "type": "function",
      "constant": true
    },
    {
      "inputs": [
        {
          "internalType": "uint256",
          "name": "",
          "type": "uint256"
        }
      ],
      "name": "comments",
      "outputs": [
        {
          "internalType": "uint256",
          "name": "id",
          "type": "uint256"
        },
        {
          "internalType": "uint256",
          "name": "tips",
          "type": "uint256"
        },
        {
          "internalType": "string",
          "name": "content",
          "type": "string"
        },
        {
          "internalType": "address payable",
          "name": "author",
          "type": "address"
        }
      ],
      "stateMutability": "view",
      "type": "function",
      "constant": true
    },
    {
      "inputs": [
        {
          "internalType": "uint256",
          "name": "",
          "type": "uint256"
        },
        {
          "internalType": "address",
          "name": "",
          "type": "address"
        }
      ],
      "name": "tippers",
      "outputs": [
        {
          "internalType": "bool",
          "name": "",
          "type": "bool"
        }
      ],
      "stateMutability": "view",
      "type": "function",
      "constant": true
    },
    {
      "inputs": [
        {
          "internalType": "uint256",
          "name": "_id",
          "type": "uint256"
        }
      ],
      "name": "getCommentTippers",
      "outputs": [
        {
          "internalType": "address[]",
          "name": "",
          "type": "address[]"
        }
      ],
      "stateMutability": "view",
      "type": "function",
      "constant": true
    },
    {
      "inputs": [
        {
          "internalType": "address",
          "name": "_tipper",
          "type": "address"
        },
        {
          "internalType": "uint256",
          "name": "_balance",
          "type": "uint256"
        }
      ],
      "name": "setTip",
      "outputs": [],
      "stateMutability": "nonpayable",
      "type": "function"
    },
    {
      "inputs": [
        {
          "internalType": "uint256",
          "name": "_id",
          "type": "uint256"
        },
        {
          "internalType": "address",
          "name": "_tipper",
          "type": "address"
        }
      ],
      "name": "getAddressToTips",
      "outputs": [
        {
          "internalType": "uint256",
          "name": "",
          "type": "uint256"
        }
      ],
      "stateMutability": "view",
      "type": "function",
      "constant": true
    },
    {
      "inputs": [],
      "name": "getTippers",
      "outputs": [
        {
          "internalType": "address[]",
          "name": "",
          "type": "address[]"
        }
      ],
      "stateMutability": "view",
      "type": "function",
      "constant": true
    },
    {
      "inputs": [
        {
          "internalType": "uint256",
          "name": "_id",
          "type": "uint256"
        },
        {
          "internalType": "uint256",
          "name": "_amount",
          "type": "uint256"
        }
      ],
      "name": "tipComment",
      "outputs": [],
      "stateMutability": "nonpayable",
      "type": "function"
    },
    {
      "inputs": [
        {
          "internalType": "address",
          "name": "_addr",
          "type": "address"
        }
      ],
      "name": "getBalance",
      "outputs": [
        {
          "internalType": "uint256",
          "name": "",
          "type": "uint256"
        }
      ],
      "stateMutability": "view",
      "type": "function",
      "constant": true
    },
    {
      "inputs": [
        {
          "internalType": "string",
          "name": "_content",
          "type": "string"
        },
        {
          "internalType": "uint256",
          "name": "_value",
          "type": "uint256"
        }
      ],
      "name": "addComment",
      "outputs": [],
      "stateMutability": "nonpayable",
      "type": "function"
    },
    {
      "inputs": [],
      "name": "getCommentCount",
      "outputs": [
        {
          "internalType": "uint256",
          "name": "",
          "type": "uint256"
        }
      ],
      "stateMutability": "view",
      "type": "function",
      "constant": true
    },
    {
      "inputs": [
        {
          "internalType": "uint256",
          "name": "_id",
          "type": "uint256"
        }
      ],
      "name": "getCommentById",
      "outputs": [
        {
          "components": [
            {
              "internalType": "uint256",
              "name": "id",
              "type": "uint256"
            },
            {
              "internalType": "uint256",
              "name": "tips",
              "type": "uint256"
            },
            {
              "internalType": "string",
              "name": "content",
              "type": "string"
            },
            {
              "internalType": "address payable",
              "name": "author",
              "type": "address"
            },
            {
              "internalType": "address[]",
              "name": "tippers",
              "type": "address[]"
            }
          ],
          "internalType": "struct Comments.Comment",
          "name": "",
          "type": "tuple"
        }
      ],
      "stateMutability": "view",
      "type": "function",
      "constant": true
    },
    {
      "inputs": [],
      "name": "pay",
      "outputs": [],
      "stateMutability": "payable",
      "type": "function",
      "payable": true
    }
  ],
  "bytecode": "0x60806040526000805534801561001457600080fd5b50611f2a806100246000396000f3fe6080604052600436106100e85760003560e01c80636c43dbb41161008a578063e2f5e0df11610059578063e2f5e0df14610310578063e37f9b0a1461034d578063f8b2cb4f14610378578063fc4fce1d146103b5576100e8565b80636c43dbb41461022d5780638ebb4c151461026a57806396a3d8d7146102aa57806399ffd94d146102d3576100e8565b80632e217951116100c65780632e2179511461014b5780634126d13b1461018857806345ff20de146101c55780635c0397c2146101f0576100e8565b806316e31ea3146100ed5780631b9265b8146101185780631ee59c5014610122575b600080fd5b3480156100f957600080fd5b506101026103de565b60405161010f9190611419565b60405180910390f35b6101206103e7565b005b34801561012e57600080fd5b50610149600480360381019061014491906114d2565b6103e9565b005b34801561015757600080fd5b50610172600480360381019061016d9190611512565b6105fc565b60405161017f919061154e565b60405180910390f35b34801561019457600080fd5b506101af60048036038101906101aa9190611569565b61063b565b6040516101bc9190611419565b60405180910390f35b3480156101d157600080fd5b506101da610660565b6040516101e79190611419565b60405180910390f35b3480156101fc57600080fd5b5061021760048036038101906102129190611569565b610666565b6040516102249190611419565b60405180910390f35b34801561023957600080fd5b50610254600480360381019061024f9190611512565b6106c1565b60405161026191906117ad565b60405180910390f35b34801561027657600080fd5b50610291600480360381019061028c9190611512565b610878565b6040516102a19493929190611828565b60405180910390f35b3480156102b657600080fd5b506102d160048036038101906102cc91906119a9565b610950565b005b3480156102df57600080fd5b506102fa60048036038101906102f59190611512565b610aa4565b6040516103079190611a74565b60405180910390f35b34801561031c57600080fd5b5061033760048036038101906103329190611569565b610b48565b6040516103449190611ab1565b60405180910390f35b34801561035957600080fd5b50610362610b77565b60405161036f9190611a74565b60405180910390f35b34801561038457600080fd5b5061039f600480360381019061039a9190611acc565b610c05565b6040516103ac9190611419565b60405180910390f35b3480156103c157600080fd5b506103dc60048036038101906103d79190611af9565b610c39565b005b60008054905090565b565b60005b6000548110156105f7576003600082815260200190815260200160002060008473ffffffffffffffffffffffffffffffffffffffff1673ffffffffffffffffffffffffffffffffffffffff16815260200190815260200160002060009054906101000a900460ff1680156104b05750816004600083815260200190815260200160002060008573ffffffffffffffffffffffffffffffffffffffff1673ffffffffffffffffffffffffffffffffffffffff1681526020019081526020016000205414155b156105e457816004600083815260200190815260200160002060008573ffffffffffffffffffffffffffffffffffffffff1673ffffffffffffffffffffffffffffffffffffffff168152602001908152602001600020546105119190611b68565b6002600083815260200190815260200160002060010160008282546105369190611b68565b92505081905550816004600083815260200190815260200160002060008573ffffffffffffffffffffffffffffffffffffffff1673ffffffffffffffffffffffffffffffffffffffff168152602001908152602001600020819055507f12acb37b084712c6154943d0c7df0982d0d9ac29ea123f73a09334c4d9b7f96f816002600084815260200190815260200160002060010154856040516105db93929190611b9c565b60405180910390a15b80806105ef90611bd3565b9150506103ec565b505050565b6001818154811061060c57600080fd5b906000526020600020016000915054906101000a900473ffffffffffffffffffffffffffffffffffffffff1681565b6004602052816000526040600020602052806000526040600020600091509150505481565b60005481565b60006004600084815260200190815260200160002060008373ffffffffffffffffffffffffffffffffffffffff1673ffffffffffffffffffffffffffffffffffffffff16815260200190815260200160002054905092915050565b6106c96111af565b600260008381526020019081526020016000206040518060a0016040529081600082015481526020016001820154815260200160028201805461070b90611c4b565b80601f016020809104026020016040519081016040528092919081815260200182805461073790611c4b565b80156107845780601f1061075957610100808354040283529160200191610784565b820191906000526020600020905b81548152906001019060200180831161076757829003601f168201915b505050505081526020016003820160009054906101000a900473ffffffffffffffffffffffffffffffffffffffff1673ffffffffffffffffffffffffffffffffffffffff1673ffffffffffffffffffffffffffffffffffffffff1681526020016004820180548060200260200160405190810160405280929190818152602001828054801561086857602002820191906000526020600020905b8160009054906101000a900473ffffffffffffffffffffffffffffffffffffffff1673ffffffffffffffffffffffffffffffffffffffff168152602001906001019080831161081e575b5050505050815250509050919050565b60026020528060005260406000206000915090508060000154908060010154908060020180546108a790611c4b565b80601f01602080910402602001604051908101604052809291908181526020018280546108d390611c4b565b80156109205780601f106108f557610100808354040283529160200191610920565b820191906000526020600020905b81548152906001019060200180831161090357829003601f168201915b5050505050908060030160009054906101000a900473ffffffffffffffffffffffffffffffffffffffff16905084565b60606040518060a001604052806000548152602001600081526020018481526020013373ffffffffffffffffffffffffffffffffffffffff168152602001828152506002600080548152602001908152602001600020600082015181600001556020820151816001015560408201518160020190805190602001906109d69291906111f4565b5060608201518160030160006101000a81548173ffffffffffffffffffffffffffffffffffffffff021916908373ffffffffffffffffffffffffffffffffffffffff1602179055506080820151816004019080519060200190610a3a92919061127a565b509050507f83e3daed4f60a9f1f3f515f6fc6bcd2ea924cfc69b9781cf92a4251d588db9033384600042604051610a749493929190611cc2565b60405180910390a1610a8860005483610c39565b600080815480929190610a9a90611bd3565b9190505550505050565b606060026000838152602001908152602001600020600401805480602002602001604051908101604052809291908181526020018280548015610b3c57602002820191906000526020600020905b8160009054906101000a900473ffffffffffffffffffffffffffffffffffffffff1673ffffffffffffffffffffffffffffffffffffffff1681526020019060010190808311610af2575b50505050509050919050565b60036020528160005260406000206020528060005260406000206000915091509054906101000a900460ff1681565b60606001805480602002602001604051908101604052809291908181526020018280548015610bfb57602002820191906000526020600020905b8160009054906101000a900473ffffffffffffffffffffffffffffffffffffffff1673ffffffffffffffffffffffffffffffffffffffff1681526020019060010190808311610bb1575b5050505050905090565b6000670de0b6b3a76400008273ffffffffffffffffffffffffffffffffffffffff1631610c329190611d3d565b9050919050565b600073ffffffffffffffffffffffffffffffffffffffff163373ffffffffffffffffffffffffffffffffffffffff161415610ca9576040517f08c379a0000000000000000000000000000000000000000000000000000000008152600401610ca090611dba565b60405180910390fd5b600015156003600084815260200190815260200160002060003373ffffffffffffffffffffffffffffffffffffffff1673ffffffffffffffffffffffffffffffffffffffff16815260200190815260200160002060009054906101000a900460ff16151514610d4d576040517f08c379a0000000000000000000000000000000000000000000000000000000008152600401610d4490611e26565b60405180910390fd5b600060026000848152602001908152602001600020905081816001016000828254610d789190611e46565b9250508190555060016003600085815260200190815260200160002060003373ffffffffffffffffffffffffffffffffffffffff1673ffffffffffffffffffffffffffffffffffffffff16815260200190815260200160002060006101000a81548160ff021916908315150217905550816004600085815260200190815260200160002060003373ffffffffffffffffffffffffffffffffffffffff1673ffffffffffffffffffffffffffffffffffffffff1681526020019081526020016000206000828254610e489190611e46565b9250508190555080600401339080600181540180825580915050600190039060005260206000200160009091909190916101000a81548173ffffffffffffffffffffffffffffffffffffffff021916908373ffffffffffffffffffffffffffffffffffffffff160217905550610ebd3361109d565b50806002600085815260200190815260200160002060008201548160000155600182015481600101556002820181600201908054610efa90611c4b565b610f05929190611304565b506003820160009054906101000a900473ffffffffffffffffffffffffffffffffffffffff168160030160006101000a81548173ffffffffffffffffffffffffffffffffffffffff021916908373ffffffffffffffffffffffffffffffffffffffff1602179055506004820181600401908054610f83929190611391565b5090505060005b60018054905081101561105a5761104760018281548110610fae57610fad611e9c565b5b9060005260206000200160009054906101000a900473ffffffffffffffffffffffffffffffffffffffff16670de0b6b3a764000060018481548110610ff657610ff5611e9c565b5b9060005260206000200160009054906101000a900473ffffffffffffffffffffffffffffffffffffffff1673ffffffffffffffffffffffffffffffffffffffff16316110429190611d3d565b6103e9565b808061105290611bd3565b915050610f8a565b507f7a0ba520c66559516642648cf084154311abd5e3408c3ac4c16df3494c739d4a838260010154604051611090929190611ecb565b60405180910390a1505050565b600080600090505b60018054905081101561114157600181815481106110c6576110c5611e9c565b5b9060005260206000200160009054906101000a900473ffffffffffffffffffffffffffffffffffffffff1673ffffffffffffffffffffffffffffffffffffffff168373ffffffffffffffffffffffffffffffffffffffff16141561112e5760009150506111aa565b808061113990611bd3565b9150506110a5565b506001829080600181540180825580915050600190039060005260206000200160009091909190916101000a81548173ffffffffffffffffffffffffffffffffffffffff021916908373ffffffffffffffffffffffffffffffffffffffff160217905550600190505b919050565b6040518060a00160405280600081526020016000815260200160608152602001600073ffffffffffffffffffffffffffffffffffffffff168152602001606081525090565b82805461120090611c4b565b90600052602060002090601f0160209004810192826112225760008555611269565b82601f1061123b57805160ff1916838001178555611269565b82800160010185558215611269579182015b8281111561126857825182559160200191906001019061124d565b5b50905061127691906113e3565b5090565b8280548282559060005260206000209081019282156112f3579160200282015b828111156112f25782518260006101000a81548173ffffffffffffffffffffffffffffffffffffffff021916908373ffffffffffffffffffffffffffffffffffffffff1602179055509160200191906001019061129a565b5b50905061130091906113e3565b5090565b82805461131090611c4b565b90600052602060002090601f0160209004810192826113325760008555611380565b82601f106113435780548555611380565b8280016001018555821561138057600052602060002091601f016020900482015b8281111561137f578254825591600101919060010190611364565b5b50905061138d91906113e3565b5090565b8280548282559060005260206000209081019282156113d25760005260206000209182015b828111156113d15782548255916001019190600101906113b6565b5b5090506113df91906113e3565b5090565b5b808211156113fc5760008160009055506001016113e4565b5090565b6000819050919050565b61141381611400565b82525050565b600060208201905061142e600083018461140a565b92915050565b6000604051905090565b600080fd5b600080fd5b600073ffffffffffffffffffffffffffffffffffffffff82169050919050565b600061147382611448565b9050919050565b61148381611468565b811461148e57600080fd5b50565b6000813590506114a08161147a565b92915050565b6114af81611400565b81146114ba57600080fd5b50565b6000813590506114cc816114a6565b92915050565b600080604083850312156114e9576114e861143e565b5b60006114f785828601611491565b9250506020611508858286016114bd565b9150509250929050565b6000602082840312156115285761152761143e565b5b6000611536848285016114bd565b91505092915050565b61154881611468565b82525050565b6000602082019050611563600083018461153f565b92915050565b600080604083850312156115805761157f61143e565b5b600061158e858286016114bd565b925050602061159f85828601611491565b9150509250929050565b6115b281611400565b82525050565b600081519050919050565b600082825260208201905092915050565b60005b838110156115f25780820151818401526020810190506115d7565b83811115611601576000848401525b50505050565b6000601f19601f8301169050919050565b6000611623826115b8565b61162d81856115c3565b935061163d8185602086016115d4565b61164681611607565b840191505092915050565b600061165c82611448565b9050919050565b61166c81611651565b82525050565b600081519050919050565b600082825260208201905092915050565b6000819050602082019050919050565b6116a781611468565b82525050565b60006116b9838361169e565b60208301905092915050565b6000602082019050919050565b60006116dd82611672565b6116e7818561167d565b93506116f28361168e565b8060005b8381101561172357815161170a88826116ad565b9750611715836116c5565b9250506001810190506116f6565b5085935050505092915050565b600060a08301600083015161174860008601826115a9565b50602083015161175b60208601826115a9565b50604083015184820360408601526117738282611618565b91505060608301516117886060860182611663565b50608083015184820360808601526117a082826116d2565b9150508091505092915050565b600060208201905081810360008301526117c78184611730565b905092915050565b600082825260208201905092915050565b60006117eb826115b8565b6117f581856117cf565b93506118058185602086016115d4565b61180e81611607565b840191505092915050565b61182281611651565b82525050565b600060808201905061183d600083018761140a565b61184a602083018661140a565b818103604083015261185c81856117e0565b905061186b6060830184611819565b95945050505050565b600080fd5b600080fd5b7f4e487b7100000000000000000000000000000000000000000000000000000000600052604160045260246000fd5b6118b682611607565b810181811067ffffffffffffffff821117156118d5576118d461187e565b5b80604052505050565b60006118e8611434565b90506118f482826118ad565b919050565b600067ffffffffffffffff8211156119145761191361187e565b5b61191d82611607565b9050602081019050919050565b82818337600083830152505050565b600061194c611947846118f9565b6118de565b90508281526020810184848401111561196857611967611879565b5b61197384828561192a565b509392505050565b600082601f8301126119905761198f611874565b5b81356119a0848260208601611939565b91505092915050565b600080604083850312156119c0576119bf61143e565b5b600083013567ffffffffffffffff8111156119de576119dd611443565b5b6119ea8582860161197b565b92505060206119fb858286016114bd565b9150509250929050565b600082825260208201905092915050565b6000611a2182611672565b611a2b8185611a05565b9350611a368361168e565b8060005b83811015611a67578151611a4e88826116ad565b9750611a59836116c5565b925050600181019050611a3a565b5085935050505092915050565b60006020820190508181036000830152611a8e8184611a16565b905092915050565b60008115159050919050565b611aab81611a96565b82525050565b6000602082019050611ac66000830184611aa2565b92915050565b600060208284031215611ae257611ae161143e565b5b6000611af084828501611491565b91505092915050565b60008060408385031215611b1057611b0f61143e565b5b6000611b1e858286016114bd565b9250506020611b2f858286016114bd565b9150509250929050565b7f4e487b7100000000000000000000000000000000000000000000000000000000600052601160045260246000fd5b6000611b7382611400565b9150611b7e83611400565b925082821015611b9157611b90611b39565b5b828203905092915050565b6000606082019050611bb1600083018661140a565b611bbe602083018561140a565b611bcb604083018461153f565b949350505050565b6000611bde82611400565b91507fffffffffffffffffffffffffffffffffffffffffffffffffffffffffffffffff821415611c1157611c10611b39565b5b600182019050919050565b7f4e487b7100000000000000000000000000000000000000000000000000000000600052602260045260246000fd5b60006002820490506001821680611c6357607f821691505b60208210811415611c7757611c76611c1c565b5b50919050565b6000819050919050565b6000819050919050565b6000611cac611ca7611ca284611c7d565b611c87565b611400565b9050919050565b611cbc81611c91565b82525050565b6000608082019050611cd7600083018761153f565b8181036020830152611ce981866117e0565b9050611cf86040830185611cb3565b611d05606083018461140a565b95945050505050565b7f4e487b7100000000000000000000000000000000000000000000000000000000600052601260045260246000fd5b6000611d4882611400565b9150611d5383611400565b925082611d6357611d62611d0e565b5b828204905092915050565b7f53656e6465722063616e27742062652061646472657373203000000000000000600082015250565b6000611da46019836117cf565b9150611daf82611d6e565b602082019050919050565b60006020820190508181036000830152611dd381611d97565b9050919050565b7f5573657220616c72656164792074697070656400000000000000000000000000600082015250565b6000611e106013836117cf565b9150611e1b82611dda565b602082019050919050565b60006020820190508181036000830152611e3f81611e03565b9050919050565b6000611e5182611400565b9150611e5c83611400565b9250827fffffffffffffffffffffffffffffffffffffffffffffffffffffffffffffffff03821115611e9157611e90611b39565b5b828201905092915050565b7f4e487b7100000000000000000000000000000000000000000000000000000000600052603260045260246000fd5b6000604082019050611ee0600083018561140a565b611eed602083018461140a565b939250505056fea264697066735822122061e9e4544e0dd4fdf3583a4341b454beb74192eae61d4f07c7320cc4c9a4d7d364736f6c63430008090033",
  "immutableReferences": {},
  "source": "// SPDX-License-Identifier: MIT\r\npragma solidity >=0.4.22 <0.9.0;\r\n\r\ncontract Comments {\r\n\r\n    event commentAdded(\r\n        address author,\r\n        string content,\r\n        uint256 tips,\r\n        uint timestamp\r\n    );\r\n\r\n    event commentTipped(\r\n        uint id,\r\n        uint amount\r\n    );\r\n    \r\n    event commentUnTipped(\r\n        uint id,\r\n        uint unTippedAmount,\r\n        address tipper\r\n    );\r\n\r\n    struct Comment {\r\n        uint id;\r\n        uint256 tips;\r\n        string content;\r\n        address payable author;\r\n        address[] tippers;\r\n    }\r\n\r\n    \r\n    uint public commentCount = 0;\r\n    address[] public addressesTipped;\r\n    \r\n    mapping(uint => Comment) public comments;\r\n    mapping(uint => mapping(address => bool)) public tippers; // (Comment.id => (tipper => bool))\r\n    mapping(uint => mapping(address => uint)) public addressToTips; // (Comment.id => (adres => wartosc tipa))\r\n    \r\n    \r\n    function getCommentTippers(uint _id) public view returns(address[] memory){\r\n        return comments[_id].tippers;\r\n    }\r\n    \r\n    // function setTips(address[] memory _tippers , uint[] memory _balances) public{\r\n    //     for(uint tipperId = 0; tipperId < _tippers.length; tipperId++) {\r\n    //         for(uint i = 0; i < commentCount; i++) {\r\n    //             if(tippers[i][_tippers[tipperId]] && addressToTips[i][_tippers[tipperId]] != _balances[tipperId]) {\r\n    //                 comments[i].tips -= addressToTips[i][_tippers[tipperId]] - _balances[tipperId];\r\n    //                 addressToTips[i][_tippers[tipperId]] = _balances[tipperId];\r\n    //             }\r\n    //         }\r\n    //     }\r\n    // }\r\n\r\n    function setTip(address _tipper, uint _balance) public{\r\n        for(uint i = 0; i < commentCount; i++) {\r\n            // Sprawdzenie czy _tipper zrobi tipa && sprawdzenie czy przybyo mu na konto albo wypyneo z konta\r\n            if(tippers[i][_tipper] && addressToTips[i][_tipper] != _balance) {\r\n                comments[i].tips -= addressToTips[i][_tipper] - _balance;\r\n                addressToTips[i][_tipper] = _balance;\r\n                emit commentUnTipped(i, comments[i].tips, _tipper);\r\n            }\r\n        }\r\n    }\r\n    \r\n    function getAddressToTips(uint _id, address _tipper) public view returns(uint){\r\n        return addressToTips[_id][_tipper];\r\n    }\r\n\r\n    function getTippers() public view returns (address[] memory) {\r\n        return addressesTipped;\r\n    }\r\n        \r\n    function addTipper(address _tipper) private returns(bool){\r\n        for(uint i = 0; i < addressesTipped.length; i++) {\r\n            if(_tipper == addressesTipped[i]) {\r\n                return false;\r\n            }\r\n        }\r\n        addressesTipped.push(_tipper);\r\n        return true;\r\n    }    \r\n        \r\n    function tipComment(uint _id, uint _amount) public {\r\n        require(msg.sender != address(0), \"Sender can't be address 0\");\r\n        require(tippers[_id][msg.sender] == false, \"User already tipped\");\r\n        \r\n        Comment storage _comment = comments[_id];\r\n        \r\n        _comment.tips += _amount;\r\n        \r\n        \r\n        tippers[_id][msg.sender] = true;\r\n        addressToTips[_id][msg.sender] += _amount;\r\n        _comment.tippers.push(msg.sender);\r\n        \r\n        \r\n        addTipper(msg.sender);\r\n        \r\n        // setTips\r\n        \r\n        comments[_id] = _comment;\r\n\r\n\r\n        for(uint i = 0; i < addressesTipped.length; i++ ) {\r\n            setTip(addressesTipped[i], addressesTipped[i].balance / (1 ether));\r\n        }\r\n\r\n        emit commentTipped(_id, _comment.tips);\r\n        \r\n    }\r\n\r\n    function getBalance(address _addr) external view returns (uint){\r\n        return _addr.balance/ (1 ether);\r\n    }\r\n\r\n    function addComment(string memory _content, uint _value) public {\r\n        address[] memory tab;\r\n        comments[commentCount] = Comment(commentCount, 0, _content, payable(msg.sender), tab);\r\n        emit commentAdded(msg.sender, _content, 0, block.timestamp);\r\n        tipComment(commentCount, _value);\r\n        commentCount++;\r\n    }\r\n    \r\n    function getCommentCount() public view returns (uint){\r\n        return commentCount;\r\n    }\r\n    \r\n\r\n    function getCommentById(uint _id) public view returns (Comment memory) {\r\n        return comments[_id];\r\n    }\r\n    \r\n    function pay() payable public {}\r\n    \r\n}",
  "sourcePath": "E:\\Projects\\HashUp\\hashup-contracts\\contracts\\Comments.sol",
  "compiler": {
    "name": "solc",
    "version": "0.8.9+commit.e5eed63a.Emscripten.clang"
  },
  "schemaVersion": "3.4.3",
  "updatedAt": "2021-11-27T12:19:01.798Z",
  "networkType": "ethereum",
  "devdoc": {
    "kind": "dev",
    "methods": {},
    "version": 1
  },
  "userdoc": {
    "kind": "user",
    "methods": {},
    "version": 1
  }
}