{
  "contractName": "Comments",
  "abi": [
    {
      "anonymous": false,
      "inputs": [
        {
          "indexed": false,
          "internalType": "address",
          "name": "author",
          "type": "address"
        },
        {
          "indexed": false,
          "internalType": "string",
          "name": "content",
          "type": "string"
        },
        {
          "indexed": false,
          "internalType": "uint256",
          "name": "tips",
          "type": "uint256"
        },
        {
          "indexed": false,
          "internalType": "uint256",
          "name": "timestamp",
          "type": "uint256"
        }
      ],
      "name": "commentAdded",
      "type": "event"
    },
    {
      "anonymous": false,
      "inputs": [
        {
          "indexed": false,
          "internalType": "uint256",
          "name": "id",
          "type": "uint256"
        },
        {
          "indexed": false,
          "internalType": "uint256",
          "name": "amount",
          "type": "uint256"
        }
      ],
      "name": "commentTipped",
      "type": "event"
    },
    {
      "inputs": [
        {
          "internalType": "uint256",
          "name": "",
          "type": "uint256"
        }
      ],
      "name": "addressesTipped",
      "outputs": [
        {
          "internalType": "address",
          "name": "",
          "type": "address"
        }
      ],
      "stateMutability": "view",
      "type": "function",
      "constant": true
    },
    {
      "inputs": [],
      "name": "commentCount",
      "outputs": [
        {
          "internalType": "uint256",
          "name": "",
          "type": "uint256"
        }
      ],
      "stateMutability": "view",
      "type": "function",
      "constant": true
    },
    {
      "inputs": [
        {
          "internalType": "uint256",
          "name": "",
          "type": "uint256"
        }
      ],
      "name": "comments",
      "outputs": [
        {
          "internalType": "uint256",
          "name": "id",
          "type": "uint256"
        },
        {
          "internalType": "uint256",
          "name": "tips",
          "type": "uint256"
        },
        {
          "internalType": "string",
          "name": "content",
          "type": "string"
        },
        {
          "internalType": "address payable",
          "name": "author",
          "type": "address"
        }
      ],
      "stateMutability": "view",
      "type": "function",
      "constant": true
    },
    {
      "inputs": [
        {
          "internalType": "uint256",
          "name": "",
          "type": "uint256"
        },
        {
          "internalType": "address",
          "name": "",
          "type": "address"
        }
      ],
      "name": "tippers",
      "outputs": [
        {
          "internalType": "bool",
          "name": "",
          "type": "bool"
        }
      ],
      "stateMutability": "view",
      "type": "function",
      "constant": true
    },
    {
      "inputs": [
        {
          "internalType": "uint256",
          "name": "_id",
          "type": "uint256"
        },
        {
          "internalType": "uint256",
          "name": "_amount",
          "type": "uint256"
        }
      ],
      "name": "tipComment",
      "outputs": [],
      "stateMutability": "payable",
      "type": "function",
      "payable": true
    },
    {
      "inputs": [
        {
          "internalType": "string",
          "name": "_content",
          "type": "string"
        },
        {
          "internalType": "uint256",
          "name": "_value",
          "type": "uint256"
        }
      ],
      "name": "addComment",
      "outputs": [],
      "stateMutability": "nonpayable",
      "type": "function"
    },
    {
      "inputs": [],
      "name": "getCommentCount",
      "outputs": [
        {
          "internalType": "uint256",
          "name": "",
          "type": "uint256"
        }
      ],
      "stateMutability": "view",
      "type": "function",
      "constant": true
    },
    {
      "inputs": [
        {
          "internalType": "uint256",
          "name": "_id",
          "type": "uint256"
        }
      ],
      "name": "getCommentById",
      "outputs": [
        {
          "components": [
            {
              "internalType": "uint256",
              "name": "id",
              "type": "uint256"
            },
            {
              "internalType": "uint256",
              "name": "tips",
              "type": "uint256"
            },
            {
              "internalType": "string",
              "name": "content",
              "type": "string"
            },
            {
              "internalType": "address payable",
              "name": "author",
              "type": "address"
            }
          ],
          "internalType": "struct Comments.Comment",
          "name": "",
          "type": "tuple"
        }
      ],
      "stateMutability": "view",
      "type": "function",
      "constant": true
    }
  ],
  "bytecode": "0x60806040526000805534801561001457600080fd5b50611225806100246000396000f3fe60806040526004361061007b5760003560e01c80638ebb4c151161004e5780638ebb4c151461015057806396a3d8d714610190578063e2f5e0df146101b9578063fc4fce1d146101f65761007b565b806316e31ea3146100805780632e217951146100ab57806345ff20de146100e85780636c43dbb414610113575b600080fd5b34801561008c57600080fd5b50610095610212565b6040516100a291906109e4565b60405180910390f35b3480156100b757600080fd5b506100d260048036038101906100cd9190610a3f565b61021b565b6040516100df9190610aad565b60405180910390f35b3480156100f457600080fd5b506100fd61025a565b60405161010a91906109e4565b60405180910390f35b34801561011f57600080fd5b5061013a60048036038101906101359190610a3f565b610260565b6040516101479190610bf4565b60405180910390f35b34801561015c57600080fd5b5061017760048036038101906101729190610a3f565b610389565b6040516101879493929190610c6f565b60405180910390f35b34801561019c57600080fd5b506101b760048036038101906101b29190610df0565b610461565b005b3480156101c557600080fd5b506101e060048036038101906101db9190610e78565b61058f565b6040516101ed9190610ed3565b60405180910390f35b610210600480360381019061020b9190610eee565b6105be565b005b60008054905090565b6001818154811061022b57600080fd5b906000526020600020016000915054906101000a900473ffffffffffffffffffffffffffffffffffffffff1681565b60005481565b61026861085d565b6002600083815260200190815260200160002060405180608001604052908160008201548152602001600182015481526020016002820180546102aa90610f5d565b80601f01602080910402602001604051908101604052809291908181526020018280546102d690610f5d565b80156103235780601f106102f857610100808354040283529160200191610323565b820191906000526020600020905b81548152906001019060200180831161030657829003601f168201915b505050505081526020016003820160009054906101000a900473ffffffffffffffffffffffffffffffffffffffff1673ffffffffffffffffffffffffffffffffffffffff1673ffffffffffffffffffffffffffffffffffffffff16815250509050919050565b60026020528060005260406000206000915090508060000154908060010154908060020180546103b890610f5d565b80601f01602080910402602001604051908101604052809291908181526020018280546103e490610f5d565b80156104315780601f1061040657610100808354040283529160200191610431565b820191906000526020600020905b81548152906001019060200180831161041457829003601f168201915b5050505050908060030160009054906101000a900473ffffffffffffffffffffffffffffffffffffffff16905084565b60405180608001604052806000548152602001600081526020018381526020013373ffffffffffffffffffffffffffffffffffffffff168152506002600080548152602001908152602001600020600082015181600001556020820151816001015560408201518160020190805190602001906104df92919061089b565b5060608201518160030160006101000a81548173ffffffffffffffffffffffffffffffffffffffff021916908373ffffffffffffffffffffffffffffffffffffffff1602179055509050507f83e3daed4f60a9f1f3f515f6fc6bcd2ea924cfc69b9781cf92a4251d588db90333836000426040516105609493929190610fd4565b60405180910390a1610574600054826105be565b6000808154809291906105869061104f565b91905055505050565b60036020528160005260406000206020528060005260406000206000915091509054906101000a900460ff1681565b600073ffffffffffffffffffffffffffffffffffffffff163373ffffffffffffffffffffffffffffffffffffffff16141561062e576040517f08c379a0000000000000000000000000000000000000000000000000000000008152600401610625906110e4565b60405180910390fd5b600015156003600084815260200190815260200160002060003373ffffffffffffffffffffffffffffffffffffffff1673ffffffffffffffffffffffffffffffffffffffff16815260200190815260200160002060009054906101000a900460ff161515146106d2576040517f08c379a00000000000000000000000000000000000000000000000000000000081526004016106c990611150565b60405180910390fd5b6000600260008481526020019081526020016000209050818160010160008282546106fd9190611170565b9250508190555060016003600085815260200190815260200160002060003373ffffffffffffffffffffffffffffffffffffffff1673ffffffffffffffffffffffffffffffffffffffff16815260200190815260200160002060006101000a81548160ff0219169083151502179055508060026000858152602001908152602001600020600082015481600001556001820154816001015560028201816002019080546107a990610f5d565b6107b4929190610921565b506003820160009054906101000a900473ffffffffffffffffffffffffffffffffffffffff168160030160006101000a81548173ffffffffffffffffffffffffffffffffffffffff021916908373ffffffffffffffffffffffffffffffffffffffff1602179055509050507f7a0ba520c66559516642648cf084154311abd5e3408c3ac4c16df3494c739d4a83836040516108509291906111c6565b60405180910390a1505050565b6040518060800160405280600081526020016000815260200160608152602001600073ffffffffffffffffffffffffffffffffffffffff1681525090565b8280546108a790610f5d565b90600052602060002090601f0160209004810192826108c95760008555610910565b82601f106108e257805160ff1916838001178555610910565b82800160010185558215610910579182015b8281111561090f5782518255916020019190600101906108f4565b5b50905061091d91906109ae565b5090565b82805461092d90610f5d565b90600052602060002090601f01602090048101928261094f576000855561099d565b82601f10610960578054855561099d565b8280016001018555821561099d57600052602060002091601f016020900482015b8281111561099c578254825591600101919060010190610981565b5b5090506109aa91906109ae565b5090565b5b808211156109c75760008160009055506001016109af565b5090565b6000819050919050565b6109de816109cb565b82525050565b60006020820190506109f960008301846109d5565b92915050565b6000604051905090565b600080fd5b600080fd5b610a1c816109cb565b8114610a2757600080fd5b50565b600081359050610a3981610a13565b92915050565b600060208284031215610a5557610a54610a09565b5b6000610a6384828501610a2a565b91505092915050565b600073ffffffffffffffffffffffffffffffffffffffff82169050919050565b6000610a9782610a6c565b9050919050565b610aa781610a8c565b82525050565b6000602082019050610ac26000830184610a9e565b92915050565b610ad1816109cb565b82525050565b600081519050919050565b600082825260208201905092915050565b60005b83811015610b11578082015181840152602081019050610af6565b83811115610b20576000848401525b50505050565b6000601f19601f8301169050919050565b6000610b4282610ad7565b610b4c8185610ae2565b9350610b5c818560208601610af3565b610b6581610b26565b840191505092915050565b6000610b7b82610a6c565b9050919050565b610b8b81610b70565b82525050565b6000608083016000830151610ba96000860182610ac8565b506020830151610bbc6020860182610ac8565b5060408301518482036040860152610bd48282610b37565b9150506060830151610be96060860182610b82565b508091505092915050565b60006020820190508181036000830152610c0e8184610b91565b905092915050565b600082825260208201905092915050565b6000610c3282610ad7565b610c3c8185610c16565b9350610c4c818560208601610af3565b610c5581610b26565b840191505092915050565b610c6981610b70565b82525050565b6000608082019050610c8460008301876109d5565b610c9160208301866109d5565b8181036040830152610ca38185610c27565b9050610cb26060830184610c60565b95945050505050565b600080fd5b600080fd5b7f4e487b7100000000000000000000000000000000000000000000000000000000600052604160045260246000fd5b610cfd82610b26565b810181811067ffffffffffffffff82111715610d1c57610d1b610cc5565b5b80604052505050565b6000610d2f6109ff565b9050610d3b8282610cf4565b919050565b600067ffffffffffffffff821115610d5b57610d5a610cc5565b5b610d6482610b26565b9050602081019050919050565b82818337600083830152505050565b6000610d93610d8e84610d40565b610d25565b905082815260208101848484011115610daf57610dae610cc0565b5b610dba848285610d71565b509392505050565b600082601f830112610dd757610dd6610cbb565b5b8135610de7848260208601610d80565b91505092915050565b60008060408385031215610e0757610e06610a09565b5b600083013567ffffffffffffffff811115610e2557610e24610a0e565b5b610e3185828601610dc2565b9250506020610e4285828601610a2a565b9150509250929050565b610e5581610a8c565b8114610e6057600080fd5b50565b600081359050610e7281610e4c565b92915050565b60008060408385031215610e8f57610e8e610a09565b5b6000610e9d85828601610a2a565b9250506020610eae85828601610e63565b9150509250929050565b60008115159050919050565b610ecd81610eb8565b82525050565b6000602082019050610ee86000830184610ec4565b92915050565b60008060408385031215610f0557610f04610a09565b5b6000610f1385828601610a2a565b9250506020610f2485828601610a2a565b9150509250929050565b7f4e487b7100000000000000000000000000000000000000000000000000000000600052602260045260246000fd5b60006002820490506001821680610f7557607f821691505b60208210811415610f8957610f88610f2e565b5b50919050565b6000819050919050565b6000819050919050565b6000610fbe610fb9610fb484610f8f565b610f99565b6109cb565b9050919050565b610fce81610fa3565b82525050565b6000608082019050610fe96000830187610a9e565b8181036020830152610ffb8186610c27565b905061100a6040830185610fc5565b61101760608301846109d5565b95945050505050565b7f4e487b7100000000000000000000000000000000000000000000000000000000600052601160045260246000fd5b600061105a826109cb565b91507fffffffffffffffffffffffffffffffffffffffffffffffffffffffffffffffff82141561108d5761108c611020565b5b600182019050919050565b7f53656e6465722063616e27742062652061646472657373203000000000000000600082015250565b60006110ce601983610c16565b91506110d982611098565b602082019050919050565b600060208201905081810360008301526110fd816110c1565b9050919050565b7f5573657220616c72656164792074697070656400000000000000000000000000600082015250565b600061113a601383610c16565b915061114582611104565b602082019050919050565b600060208201905081810360008301526111698161112d565b9050919050565b600061117b826109cb565b9150611186836109cb565b9250827fffffffffffffffffffffffffffffffffffffffffffffffffffffffffffffffff038211156111bb576111ba611020565b5b828201905092915050565b60006040820190506111db60008301856109d5565b6111e860208301846109d5565b939250505056fea264697066735822122016352418a5a73c1eab456bb4285edd184a0cb31d6c12fa8b2bff1ef47dde5fde64736f6c63430008090033",
  "immutableReferences": {},
  "source": "// SPDX-License-Identifier: MIT\npragma solidity >=0.4.22 <0.9.0;\npragma experimental ABIEncoderV2;\ncontract Comments {\n\n    event commentAdded(\n        address author,\n        string content,\n        uint256 tips,\n        uint timestamp\n    );\n\n    event commentTipped(\n        uint id,\n        uint amount\n    );\n\n    struct Comment {\n        uint id;\n        uint256 tips;\n        string content;\n        address payable author;\n    }\n\n    \n    uint public commentCount = 0;\n    address[] public addressesTipped;\n    \n    mapping(uint => Comment) public comments;\n    mapping(uint => mapping(address => bool)) public tippers; // Comment.id => (tipper => bool)\n\n\n    // function getTippers() public view returns (address[] memory){\n    //     address[] memory result;\n    //     for(uint i = 0; i < commentCount; i++){\n    //         if(tippers[i][])\n    //     }\n    // }\n\n    function tipComment(uint _id, uint _amount) public payable{\n        require(msg.sender != address(0), \"Sender can't be address 0\");\n        require(tippers[_id][msg.sender] == false, \"User already tipped\");\n        \n        Comment storage _comment = comments[_id];\n        \n        _comment.tips += _amount;\n        \n        // User tipped (can only once)\n        tippers[_id][msg.sender] = true;\n        \n        comments[_id] = _comment;\n\n        emit commentTipped(_id, _amount);\n        \n    }\n\n\n    function addComment(string memory _content, uint _value) public {\n        comments[commentCount] = Comment(commentCount, 0, _content, payable(msg.sender));\n        // Event dodania komentarza \n        emit commentAdded(msg.sender, _content, 0, block.timestamp);\n        // Tipowanie komentarza\n        tipComment(commentCount, _value);\n        commentCount++;\n    }\n    \n    function getCommentCount() public view returns(uint){\n        return commentCount;\n    }\n    \n    function getCommentById(uint _id) public view returns(Comment memory) {\n        return comments[_id];\n    }\n    \n    \n}",
  "sourcePath": "E:\\Projects\\HashUp\\hashup-contracts\\contracts\\Comments.sol",
  "compiler": {
    "name": "solc",
    "version": "0.8.9+commit.e5eed63a.Emscripten.clang"
  },
  "schemaVersion": "3.4.3",
  "updatedAt": "2021-11-20T12:41:06.096Z",
  "networkType": "ethereum",
  "devdoc": {
    "kind": "dev",
    "methods": {},
    "version": 1
  },
  "userdoc": {
    "kind": "user",
    "methods": {},
    "version": 1
  }
}