{
  "contractName": "Comments",
  "abi": [
    {
      "anonymous": false,
      "inputs": [
        {
          "indexed": false,
          "internalType": "address",
          "name": "author",
          "type": "address"
        },
        {
          "indexed": false,
          "internalType": "string",
          "name": "content",
          "type": "string"
        },
        {
          "indexed": false,
          "internalType": "uint256",
          "name": "tips",
          "type": "uint256"
        },
        {
          "indexed": false,
          "internalType": "uint256",
          "name": "timestamp",
          "type": "uint256"
        }
      ],
      "name": "commentAdded",
      "type": "event"
    },
    {
      "anonymous": false,
      "inputs": [
        {
          "indexed": false,
          "internalType": "uint256",
          "name": "id",
          "type": "uint256"
        },
        {
          "indexed": false,
          "internalType": "uint256",
          "name": "amount",
          "type": "uint256"
        }
      ],
      "name": "commentTipped",
      "type": "event"
    },
    {
      "inputs": [],
      "name": "commentCount",
      "outputs": [
        {
          "internalType": "uint256",
          "name": "",
          "type": "uint256"
        }
      ],
      "stateMutability": "view",
      "type": "function",
      "constant": true
    },
    {
      "inputs": [
        {
          "internalType": "uint256",
          "name": "",
          "type": "uint256"
        }
      ],
      "name": "comments",
      "outputs": [
        {
          "internalType": "uint256",
          "name": "id",
          "type": "uint256"
        },
        {
          "internalType": "uint256",
          "name": "tips",
          "type": "uint256"
        },
        {
          "internalType": "string",
          "name": "content",
          "type": "string"
        },
        {
          "internalType": "address payable",
          "name": "author",
          "type": "address"
        }
      ],
      "stateMutability": "view",
      "type": "function",
      "constant": true
    },
    {
      "inputs": [
        {
          "internalType": "uint256",
          "name": "_id",
          "type": "uint256"
        }
      ],
      "name": "tipComment",
      "outputs": [],
      "stateMutability": "payable",
      "type": "function",
      "payable": true
    },
    {
      "inputs": [
        {
          "internalType": "string",
          "name": "_content",
          "type": "string"
        }
      ],
      "name": "addComment",
      "outputs": [],
      "stateMutability": "nonpayable",
      "type": "function"
    },
    {
      "inputs": [],
      "name": "getCommentCount",
      "outputs": [
        {
          "internalType": "uint256",
          "name": "",
          "type": "uint256"
        }
      ],
      "stateMutability": "view",
      "type": "function",
      "constant": true
    },
    {
      "inputs": [
        {
          "internalType": "uint256",
          "name": "_id",
          "type": "uint256"
        }
      ],
      "name": "getCommentById",
      "outputs": [
        {
          "components": [
            {
              "internalType": "uint256",
              "name": "id",
              "type": "uint256"
            },
            {
              "internalType": "uint256",
              "name": "tips",
              "type": "uint256"
            },
            {
              "internalType": "string",
              "name": "content",
              "type": "string"
            },
            {
              "internalType": "address payable",
              "name": "author",
              "type": "address"
            }
          ],
          "internalType": "struct Comments.Comment",
          "name": "",
          "type": "tuple"
        }
      ],
      "stateMutability": "view",
      "type": "function",
      "constant": true
    }
  ],
  "bytecode": "0x60806040526000805534801561001457600080fd5b50610fbb806100246000396000f3fe6080604052600436106100555760003560e01c806316e31ea31461005a57806345ff20de146100855780634802a76c146100b05780636c43dbb4146100cc578063843b4386146101095780638ebb4c1514610132575b600080fd5b34801561006657600080fd5b5061006f610172565b60405161007c919061088a565b60405180910390f35b34801561009157600080fd5b5061009a61017b565b6040516100a7919061088a565b60405180910390f35b6100ca60048036038101906100c591906108e5565b610181565b005b3480156100d857600080fd5b506100f360048036038101906100ee91906108e5565b6103e1565b6040516101009190610a5e565b60405180910390f35b34801561011557600080fd5b50610130600480360381019061012b9190610bb5565b61050a565b005b34801561013e57600080fd5b50610159600480360381019061015491906108e5565b61062b565b6040516101699493929190610c57565b60405180910390f35b60008054905090565b60005481565b600073ffffffffffffffffffffffffffffffffffffffff163373ffffffffffffffffffffffffffffffffffffffff1614156101f1576040517f08c379a00000000000000000000000000000000000000000000000000000000081526004016101e890610cef565b60405180910390fd5b67016345785d8a000034101561023c576040517f08c379a000000000000000000000000000000000000000000000000000000000815260040161023390610d5b565b60405180910390fd5b600060016000838152602001908152602001600020905060006001600084815260200190815260200160002060030160009054906101000a900473ffffffffffffffffffffffffffffffffffffffff1690508073ffffffffffffffffffffffffffffffffffffffff166108fc349081150290604051600060405180830381858888f193505050501580156102d4573d6000803e3d6000fd5b5060018260010160008282546102ea9190610daa565b9250508190555081600160008581526020019081526020016000206000820154816000015560018201548160010155600282018160020190805461032d90610e2f565b610338929190610703565b506003820160009054906101000a900473ffffffffffffffffffffffffffffffffffffffff168160030160006101000a81548173ffffffffffffffffffffffffffffffffffffffff021916908373ffffffffffffffffffffffffffffffffffffffff1602179055509050507f7a0ba520c66559516642648cf084154311abd5e3408c3ac4c16df3494c739d4a83346040516103d4929190610e61565b60405180910390a1505050565b6103e9610790565b60016000838152602001908152602001600020604051806080016040529081600082015481526020016001820154815260200160028201805461042b90610e2f565b80601f016020809104026020016040519081016040528092919081815260200182805461045790610e2f565b80156104a45780601f10610479576101008083540402835291602001916104a4565b820191906000526020600020905b81548152906001019060200180831161048757829003601f168201915b505050505081526020016003820160009054906101000a900473ffffffffffffffffffffffffffffffffffffffff1673ffffffffffffffffffffffffffffffffffffffff1673ffffffffffffffffffffffffffffffffffffffff16815250509050919050565b60405180608001604052806000548152602001600081526020018281526020013373ffffffffffffffffffffffffffffffffffffffff168152506001600080548152602001908152602001600020600082015181600001556020820151816001015560408201518160020190805190602001906105889291906107ce565b5060608201518160030160006101000a81548173ffffffffffffffffffffffffffffffffffffffff021916908373ffffffffffffffffffffffffffffffffffffffff1602179055509050507f83e3daed4f60a9f1f3f515f6fc6bcd2ea924cfc69b9781cf92a4251d588db90333826000426040516106099493929190610ef0565b60405180910390a160008081548092919061062390610f3c565b919050555050565b600160205280600052604060002060009150905080600001549080600101549080600201805461065a90610e2f565b80601f016020809104026020016040519081016040528092919081815260200182805461068690610e2f565b80156106d35780601f106106a8576101008083540402835291602001916106d3565b820191906000526020600020905b8154815290600101906020018083116106b657829003601f168201915b5050505050908060030160009054906101000a900473ffffffffffffffffffffffffffffffffffffffff16905084565b82805461070f90610e2f565b90600052602060002090601f016020900481019282610731576000855561077f565b82601f10610742578054855561077f565b8280016001018555821561077f57600052602060002091601f016020900482015b8281111561077e578254825591600101919060010190610763565b5b50905061078c9190610854565b5090565b6040518060800160405280600081526020016000815260200160608152602001600073ffffffffffffffffffffffffffffffffffffffff1681525090565b8280546107da90610e2f565b90600052602060002090601f0160209004810192826107fc5760008555610843565b82601f1061081557805160ff1916838001178555610843565b82800160010185558215610843579182015b82811115610842578251825591602001919060010190610827565b5b5090506108509190610854565b5090565b5b8082111561086d576000816000905550600101610855565b5090565b6000819050919050565b61088481610871565b82525050565b600060208201905061089f600083018461087b565b92915050565b6000604051905090565b600080fd5b600080fd5b6108c281610871565b81146108cd57600080fd5b50565b6000813590506108df816108b9565b92915050565b6000602082840312156108fb576108fa6108af565b5b6000610909848285016108d0565b91505092915050565b61091b81610871565b82525050565b600081519050919050565b600082825260208201905092915050565b60005b8381101561095b578082015181840152602081019050610940565b8381111561096a576000848401525b50505050565b6000601f19601f8301169050919050565b600061098c82610921565b610996818561092c565b93506109a681856020860161093d565b6109af81610970565b840191505092915050565b600073ffffffffffffffffffffffffffffffffffffffff82169050919050565b60006109e5826109ba565b9050919050565b6109f5816109da565b82525050565b6000608083016000830151610a136000860182610912565b506020830151610a266020860182610912565b5060408301518482036040860152610a3e8282610981565b9150506060830151610a5360608601826109ec565b508091505092915050565b60006020820190508181036000830152610a7881846109fb565b905092915050565b600080fd5b600080fd5b7f4e487b7100000000000000000000000000000000000000000000000000000000600052604160045260246000fd5b610ac282610970565b810181811067ffffffffffffffff82111715610ae157610ae0610a8a565b5b80604052505050565b6000610af46108a5565b9050610b008282610ab9565b919050565b600067ffffffffffffffff821115610b2057610b1f610a8a565b5b610b2982610970565b9050602081019050919050565b82818337600083830152505050565b6000610b58610b5384610b05565b610aea565b905082815260208101848484011115610b7457610b73610a85565b5b610b7f848285610b36565b509392505050565b600082601f830112610b9c57610b9b610a80565b5b8135610bac848260208601610b45565b91505092915050565b600060208284031215610bcb57610bca6108af565b5b600082013567ffffffffffffffff811115610be957610be86108b4565b5b610bf584828501610b87565b91505092915050565b600082825260208201905092915050565b6000610c1a82610921565b610c248185610bfe565b9350610c3481856020860161093d565b610c3d81610970565b840191505092915050565b610c51816109da565b82525050565b6000608082019050610c6c600083018761087b565b610c79602083018661087b565b8181036040830152610c8b8185610c0f565b9050610c9a6060830184610c48565b95945050505050565b7f53656e6465722063616e27742062652061646472657373203000000000000000600082015250565b6000610cd9601983610bfe565b9150610ce482610ca3565b602082019050919050565b60006020820190508181036000830152610d0881610ccc565b9050919050565b7f546f20736d616c6c20616d6f756e74206f662065746865720000000000000000600082015250565b6000610d45601883610bfe565b9150610d5082610d0f565b602082019050919050565b60006020820190508181036000830152610d7481610d38565b9050919050565b7f4e487b7100000000000000000000000000000000000000000000000000000000600052601160045260246000fd5b6000610db582610871565b9150610dc083610871565b9250827fffffffffffffffffffffffffffffffffffffffffffffffffffffffffffffffff03821115610df557610df4610d7b565b5b828201905092915050565b7f4e487b7100000000000000000000000000000000000000000000000000000000600052602260045260246000fd5b60006002820490506001821680610e4757607f821691505b60208210811415610e5b57610e5a610e00565b5b50919050565b6000604082019050610e76600083018561087b565b610e83602083018461087b565b9392505050565b6000610e95826109ba565b9050919050565b610ea581610e8a565b82525050565b6000819050919050565b6000819050919050565b6000610eda610ed5610ed084610eab565b610eb5565b610871565b9050919050565b610eea81610ebf565b82525050565b6000608082019050610f056000830187610e9c565b8181036020830152610f178186610c0f565b9050610f266040830185610ee1565b610f33606083018461087b565b95945050505050565b6000610f4782610871565b91507fffffffffffffffffffffffffffffffffffffffffffffffffffffffffffffffff821415610f7a57610f79610d7b565b5b60018201905091905056fea26469706673582212205949f3540b986c4f9da2f7f963fbee6467f8a4f4aa0bdc6300ab201ea9c464c964736f6c63430008090033",
  "immutableReferences": {},
  "source": "// SPDX-License-Identifier: MIT\r\npragma solidity >=0.4.22 <0.9.0;\r\npragma experimental ABIEncoderV2;\r\ncontract Comments {\r\n\r\n    event commentAdded(\r\n        address author,\r\n        string content,\r\n        uint256 tips,\r\n        uint timestamp\r\n    );\r\n\r\n    event commentTipped(\r\n        uint id,\r\n        uint amount\r\n    );\r\n\r\n    struct Comment {\r\n        uint id;\r\n        uint256 tips;\r\n        string content;\r\n        address payable author;\r\n    }\r\n\r\n\r\n    uint public commentCount = 0;\r\n\r\n\r\n    mapping(uint => Comment) public comments;\r\n\r\n\r\n\r\n    function tipComment(uint _id) public payable{\r\n        require(msg.sender != address(0), \"Sender can't be address 0\");\r\n        require(msg.value >= 0.1 ether, \"To small amount of ether\");\r\n\r\n        \r\n        Comment storage _comment = comments[_id];\r\n\r\n        address payable _author = comments[_id].author;\r\n\r\n        _author.transfer(msg.value);\r\n\r\n        _comment.tips += 1;\r\n\r\n        comments[_id] = _comment;\r\n\r\n        emit commentTipped(_id, msg.value);\r\n\r\n    }\r\n\r\n\r\n    function addComment(string memory _content) public {\r\n        comments[commentCount] = Comment(commentCount, 0, _content, payable(msg.sender));\r\n        emit commentAdded(msg.sender, _content, 0, block.timestamp);\r\n        commentCount++;\r\n    }\r\n    \r\n    function getCommentCount() public view returns(uint){\r\n        return commentCount;\r\n    }\r\n    \r\n    function getCommentById(uint _id) public view returns(Comment memory) {\r\n        return comments[_id];\r\n    }\r\n}",
  "sourcePath": "C:\\Users\\Mariusz\\Documents\\GitHub\\hashup-contracts\\contracts\\Comments.sol",
  "compiler": {
    "name": "solc",
    "version": "0.8.9+commit.e5eed63a.Emscripten.clang"
  },
  "schemaVersion": "3.4.3",
  "updatedAt": "2021-11-17T08:32:33.363Z",
  "networkType": "ethereum",
  "devdoc": {
    "kind": "dev",
    "methods": {},
    "version": 1
  },
  "userdoc": {
    "kind": "user",
    "methods": {},
    "version": 1
  }
}