{
  "contractName": "Comments",
  "abi": [
    {
      "anonymous": false,
      "inputs": [
        {
          "indexed": false,
          "internalType": "address",
          "name": "author",
          "type": "address"
        },
        {
          "indexed": false,
          "internalType": "string",
          "name": "content",
          "type": "string"
        },
        {
          "indexed": false,
          "internalType": "uint256",
          "name": "tips",
          "type": "uint256"
        },
        {
          "indexed": false,
          "internalType": "uint256",
          "name": "timestamp",
          "type": "uint256"
        }
      ],
      "name": "commentAdded",
      "type": "event"
    },
    {
      "anonymous": false,
      "inputs": [
        {
          "indexed": false,
          "internalType": "uint256",
          "name": "id",
          "type": "uint256"
        },
        {
          "indexed": false,
          "internalType": "uint256",
          "name": "amount",
          "type": "uint256"
        }
      ],
      "name": "commentTipped",
      "type": "event"
    },
    {
      "inputs": [],
      "name": "commentCount",
      "outputs": [
        {
          "internalType": "uint256",
          "name": "",
          "type": "uint256"
        }
      ],
      "stateMutability": "view",
      "type": "function",
      "constant": true
    },
    {
      "inputs": [
        {
          "internalType": "uint256",
          "name": "",
          "type": "uint256"
        }
      ],
      "name": "comments",
      "outputs": [
        {
          "internalType": "uint256",
          "name": "id",
          "type": "uint256"
        },
        {
          "internalType": "uint256",
          "name": "tips",
          "type": "uint256"
        },
        {
          "internalType": "string",
          "name": "content",
          "type": "string"
        },
        {
          "internalType": "address payable",
          "name": "author",
          "type": "address"
        }
      ],
      "stateMutability": "view",
      "type": "function",
      "constant": true
    },
    {
      "inputs": [
        {
          "internalType": "uint256",
          "name": "",
          "type": "uint256"
        },
        {
          "internalType": "address",
          "name": "",
          "type": "address"
        }
      ],
      "name": "tippers",
      "outputs": [
        {
          "internalType": "bool",
          "name": "",
          "type": "bool"
        }
      ],
      "stateMutability": "view",
      "type": "function",
      "constant": true
    },
    {
      "inputs": [
        {
          "internalType": "uint256",
          "name": "_id",
          "type": "uint256"
        },
        {
          "internalType": "uint256",
          "name": "_amount",
          "type": "uint256"
        }
      ],
      "name": "tipComment",
      "outputs": [],
      "stateMutability": "payable",
      "type": "function",
      "payable": true
    },
    {
      "inputs": [
        {
          "internalType": "string",
          "name": "_content",
          "type": "string"
        }
      ],
      "name": "addComment",
      "outputs": [],
      "stateMutability": "nonpayable",
      "type": "function"
    },
    {
      "inputs": [],
      "name": "getCommentCount",
      "outputs": [
        {
          "internalType": "uint256",
          "name": "",
          "type": "uint256"
        }
      ],
      "stateMutability": "view",
      "type": "function",
      "constant": true
    },
    {
      "inputs": [
        {
          "internalType": "uint256",
          "name": "_id",
          "type": "uint256"
        }
      ],
      "name": "getCommentById",
      "outputs": [
        {
          "components": [
            {
              "internalType": "uint256",
              "name": "id",
              "type": "uint256"
            },
            {
              "internalType": "uint256",
              "name": "tips",
              "type": "uint256"
            },
            {
              "internalType": "string",
              "name": "content",
              "type": "string"
            },
            {
              "internalType": "address payable",
              "name": "author",
              "type": "address"
            }
          ],
          "internalType": "struct Comments.Comment",
          "name": "",
          "type": "tuple"
        }
      ],
      "stateMutability": "view",
      "type": "function",
      "constant": true
    }
  ],
  "bytecode": "0x60806040526000805534801561001457600080fd5b50611163806100246000396000f3fe6080604052600436106100705760003560e01c8063843b43861161004e578063843b4386146101085780638ebb4c1514610131578063e2f5e0df14610171578063fc4fce1d146101ae57610070565b806316e31ea31461007557806345ff20de146100a05780636c43dbb4146100cb575b600080fd5b34801561008157600080fd5b5061008a6101ca565b6040516100979190610950565b60405180910390f35b3480156100ac57600080fd5b506100b56101d3565b6040516100c29190610950565b60405180910390f35b3480156100d757600080fd5b506100f260048036038101906100ed91906109ab565b6101d9565b6040516100ff9190610b24565b60405180910390f35b34801561011457600080fd5b5061012f600480360381019061012a9190610c7b565b610302565b005b34801561013d57600080fd5b50610158600480360381019061015391906109ab565b610423565b6040516101689493929190610d1d565b60405180910390f35b34801561017d57600080fd5b5061019860048036038101906101939190610da7565b6104fb565b6040516101a59190610e02565b60405180910390f35b6101c860048036038101906101c39190610e1d565b61052a565b005b60008054905090565b60005481565b6101e16107c9565b60016000838152602001908152602001600020604051806080016040529081600082015481526020016001820154815260200160028201805461022390610e8c565b80601f016020809104026020016040519081016040528092919081815260200182805461024f90610e8c565b801561029c5780601f106102715761010080835404028352916020019161029c565b820191906000526020600020905b81548152906001019060200180831161027f57829003601f168201915b505050505081526020016003820160009054906101000a900473ffffffffffffffffffffffffffffffffffffffff1673ffffffffffffffffffffffffffffffffffffffff1673ffffffffffffffffffffffffffffffffffffffff16815250509050919050565b60405180608001604052806000548152602001600081526020018281526020013373ffffffffffffffffffffffffffffffffffffffff16815250600160008054815260200190815260200160002060008201518160000155602082015181600101556040820151816002019080519060200190610380929190610807565b5060608201518160030160006101000a81548173ffffffffffffffffffffffffffffffffffffffff021916908373ffffffffffffffffffffffffffffffffffffffff1602179055509050507f83e3daed4f60a9f1f3f515f6fc6bcd2ea924cfc69b9781cf92a4251d588db90333826000426040516104019493929190610f12565b60405180910390a160008081548092919061041b90610f8d565b919050555050565b600160205280600052604060002060009150905080600001549080600101549080600201805461045290610e8c565b80601f016020809104026020016040519081016040528092919081815260200182805461047e90610e8c565b80156104cb5780601f106104a0576101008083540402835291602001916104cb565b820191906000526020600020905b8154815290600101906020018083116104ae57829003601f168201915b5050505050908060030160009054906101000a900473ffffffffffffffffffffffffffffffffffffffff16905084565b60026020528160005260406000206020528060005260406000206000915091509054906101000a900460ff1681565b600073ffffffffffffffffffffffffffffffffffffffff163373ffffffffffffffffffffffffffffffffffffffff16141561059a576040517f08c379a000000000000000000000000000000000000000000000000000000000815260040161059190611022565b60405180910390fd5b600015156002600084815260200190815260200160002060003373ffffffffffffffffffffffffffffffffffffffff1673ffffffffffffffffffffffffffffffffffffffff16815260200190815260200160002060009054906101000a900460ff1615151461063e576040517f08c379a00000000000000000000000000000000000000000000000000000000081526004016106359061108e565b60405180910390fd5b60006001600084815260200190815260200160002090508181600101600082825461066991906110ae565b9250508190555060016002600085815260200190815260200160002060003373ffffffffffffffffffffffffffffffffffffffff1673ffffffffffffffffffffffffffffffffffffffff16815260200190815260200160002060006101000a81548160ff02191690831515021790555080600160008581526020019081526020016000206000820154816000015560018201548160010155600282018160020190805461071590610e8c565b61072092919061088d565b506003820160009054906101000a900473ffffffffffffffffffffffffffffffffffffffff168160030160006101000a81548173ffffffffffffffffffffffffffffffffffffffff021916908373ffffffffffffffffffffffffffffffffffffffff1602179055509050507f7a0ba520c66559516642648cf084154311abd5e3408c3ac4c16df3494c739d4a83836040516107bc929190611104565b60405180910390a1505050565b6040518060800160405280600081526020016000815260200160608152602001600073ffffffffffffffffffffffffffffffffffffffff1681525090565b82805461081390610e8c565b90600052602060002090601f016020900481019282610835576000855561087c565b82601f1061084e57805160ff191683800117855561087c565b8280016001018555821561087c579182015b8281111561087b578251825591602001919060010190610860565b5b509050610889919061091a565b5090565b82805461089990610e8c565b90600052602060002090601f0160209004810192826108bb5760008555610909565b82601f106108cc5780548555610909565b8280016001018555821561090957600052602060002091601f016020900482015b828111156109085782548255916001019190600101906108ed565b5b509050610916919061091a565b5090565b5b8082111561093357600081600090555060010161091b565b5090565b6000819050919050565b61094a81610937565b82525050565b60006020820190506109656000830184610941565b92915050565b6000604051905090565b600080fd5b600080fd5b61098881610937565b811461099357600080fd5b50565b6000813590506109a58161097f565b92915050565b6000602082840312156109c1576109c0610975565b5b60006109cf84828501610996565b91505092915050565b6109e181610937565b82525050565b600081519050919050565b600082825260208201905092915050565b60005b83811015610a21578082015181840152602081019050610a06565b83811115610a30576000848401525b50505050565b6000601f19601f8301169050919050565b6000610a52826109e7565b610a5c81856109f2565b9350610a6c818560208601610a03565b610a7581610a36565b840191505092915050565b600073ffffffffffffffffffffffffffffffffffffffff82169050919050565b6000610aab82610a80565b9050919050565b610abb81610aa0565b82525050565b6000608083016000830151610ad960008601826109d8565b506020830151610aec60208601826109d8565b5060408301518482036040860152610b048282610a47565b9150506060830151610b196060860182610ab2565b508091505092915050565b60006020820190508181036000830152610b3e8184610ac1565b905092915050565b600080fd5b600080fd5b7f4e487b7100000000000000000000000000000000000000000000000000000000600052604160045260246000fd5b610b8882610a36565b810181811067ffffffffffffffff82111715610ba757610ba6610b50565b5b80604052505050565b6000610bba61096b565b9050610bc68282610b7f565b919050565b600067ffffffffffffffff821115610be657610be5610b50565b5b610bef82610a36565b9050602081019050919050565b82818337600083830152505050565b6000610c1e610c1984610bcb565b610bb0565b905082815260208101848484011115610c3a57610c39610b4b565b5b610c45848285610bfc565b509392505050565b600082601f830112610c6257610c61610b46565b5b8135610c72848260208601610c0b565b91505092915050565b600060208284031215610c9157610c90610975565b5b600082013567ffffffffffffffff811115610caf57610cae61097a565b5b610cbb84828501610c4d565b91505092915050565b600082825260208201905092915050565b6000610ce0826109e7565b610cea8185610cc4565b9350610cfa818560208601610a03565b610d0381610a36565b840191505092915050565b610d1781610aa0565b82525050565b6000608082019050610d326000830187610941565b610d3f6020830186610941565b8181036040830152610d518185610cd5565b9050610d606060830184610d0e565b95945050505050565b6000610d7482610a80565b9050919050565b610d8481610d69565b8114610d8f57600080fd5b50565b600081359050610da181610d7b565b92915050565b60008060408385031215610dbe57610dbd610975565b5b6000610dcc85828601610996565b9250506020610ddd85828601610d92565b9150509250929050565b60008115159050919050565b610dfc81610de7565b82525050565b6000602082019050610e176000830184610df3565b92915050565b60008060408385031215610e3457610e33610975565b5b6000610e4285828601610996565b9250506020610e5385828601610996565b9150509250929050565b7f4e487b7100000000000000000000000000000000000000000000000000000000600052602260045260246000fd5b60006002820490506001821680610ea457607f821691505b60208210811415610eb857610eb7610e5d565b5b50919050565b610ec781610d69565b82525050565b6000819050919050565b6000819050919050565b6000610efc610ef7610ef284610ecd565b610ed7565b610937565b9050919050565b610f0c81610ee1565b82525050565b6000608082019050610f276000830187610ebe565b8181036020830152610f398186610cd5565b9050610f486040830185610f03565b610f556060830184610941565b95945050505050565b7f4e487b7100000000000000000000000000000000000000000000000000000000600052601160045260246000fd5b6000610f9882610937565b91507fffffffffffffffffffffffffffffffffffffffffffffffffffffffffffffffff821415610fcb57610fca610f5e565b5b600182019050919050565b7f53656e6465722063616e27742062652061646472657373203000000000000000600082015250565b600061100c601983610cc4565b915061101782610fd6565b602082019050919050565b6000602082019050818103600083015261103b81610fff565b9050919050565b7f5573657220616c72656164792074697070656400000000000000000000000000600082015250565b6000611078601383610cc4565b915061108382611042565b602082019050919050565b600060208201905081810360008301526110a78161106b565b9050919050565b60006110b982610937565b91506110c483610937565b9250827fffffffffffffffffffffffffffffffffffffffffffffffffffffffffffffffff038211156110f9576110f8610f5e565b5b828201905092915050565b60006040820190506111196000830185610941565b6111266020830184610941565b939250505056fea264697066735822122081882bc301ea69d7c0dc7e3a70576464bb3a7b4d158b13af98d1d9b2c58fd44d64736f6c63430008090033",
  "immutableReferences": {},
  "source": "// SPDX-License-Identifier: MIT\npragma solidity >=0.4.22 <0.9.0;\npragma experimental ABIEncoderV2;\ncontract Comments {\n\n    event commentAdded(\n        address author,\n        string content,\n        uint256 tips,\n        uint timestamp\n    );\n\n    event commentTipped(\n        uint id,\n        uint amount\n    );\n\n    struct Comment {\n        uint id;\n        uint256 tips;\n        string content;\n        address payable author;\n    }\n\n\n    uint public commentCount = 0;\n\n\n    mapping(uint => Comment) public comments;\n    mapping(uint => mapping(address => bool)) public tippers; // Comment.id => (tipper => bool)\n\n\n    function tipComment(uint _id, uint _amount) public payable{\n        require(msg.sender != address(0), \"Sender can't be address 0\");\n        require(tippers[_id][msg.sender] == false, \"User already tipped\");\n        \n        Comment storage _comment = comments[_id];\n        \n        _comment.tips += _amount;\n        \n        // User tipped (can only once)\n        tippers[_id][msg.sender] = true;\n        \n        comments[_id] = _comment;\n\n        emit commentTipped(_id, _amount);\n\n    }\n\n\n    function addComment(string memory _content) public {\n        comments[commentCount] = Comment(commentCount, 0, _content, payable(msg.sender));\n        emit commentAdded(msg.sender, _content, 0, block.timestamp);\n        commentCount++;\n    }\n    \n    function getCommentCount() public view returns(uint){\n        return commentCount;\n    }\n    \n    function getCommentById(uint _id) public view returns(Comment memory) {\n        return comments[_id];\n    }\n    \n    \n}",
  "sourcePath": "E:\\Projects\\HashUp\\hashup-contracts\\contracts\\Comments.sol",
  "compiler": {
    "name": "solc",
    "version": "0.8.9+commit.e5eed63a.Emscripten.clang"
  },
  "schemaVersion": "3.4.3",
  "updatedAt": "2021-11-18T19:10:01.916Z",
  "networkType": "ethereum",
  "devdoc": {
    "kind": "dev",
    "methods": {},
    "version": 1
  },
  "userdoc": {
    "kind": "user",
    "methods": {},
    "version": 1
  }
}