{
  "contractName": "Comments",
  "abi": [
    {
      "anonymous": false,
      "inputs": [
        {
          "indexed": false,
          "internalType": "address",
          "name": "author",
          "type": "address"
        },
        {
          "indexed": false,
          "internalType": "string",
          "name": "content",
          "type": "string"
        },
        {
          "indexed": false,
          "internalType": "uint256",
          "name": "tips",
          "type": "uint256"
        },
        {
          "indexed": false,
          "internalType": "uint256",
          "name": "timestamp",
          "type": "uint256"
        }
      ],
      "name": "commentAdded",
      "type": "event"
    },
    {
      "anonymous": false,
      "inputs": [
        {
          "indexed": false,
          "internalType": "uint256",
          "name": "id",
          "type": "uint256"
        },
        {
          "indexed": false,
          "internalType": "uint256",
          "name": "amount",
          "type": "uint256"
        }
      ],
      "name": "tipped",
      "type": "event"
    },
    {
      "inputs": [
        {
          "internalType": "uint256",
          "name": "",
          "type": "uint256"
        },
        {
          "internalType": "address",
          "name": "",
          "type": "address"
        }
      ],
      "name": "addressToTips",
      "outputs": [
        {
          "internalType": "uint256",
          "name": "",
          "type": "uint256"
        }
      ],
      "stateMutability": "view",
      "type": "function",
      "constant": true
    },
    {
      "inputs": [
        {
          "internalType": "uint256",
          "name": "",
          "type": "uint256"
        }
      ],
      "name": "addressesTipped",
      "outputs": [
        {
          "internalType": "address",
          "name": "",
          "type": "address"
        }
      ],
      "stateMutability": "view",
      "type": "function",
      "constant": true
    },
    {
      "inputs": [],
      "name": "commentCount",
      "outputs": [
        {
          "internalType": "uint256",
          "name": "",
          "type": "uint256"
        }
      ],
      "stateMutability": "view",
      "type": "function",
      "constant": true
    },
    {
      "inputs": [
        {
          "internalType": "uint256",
          "name": "",
          "type": "uint256"
        }
      ],
      "name": "comments",
      "outputs": [
        {
          "internalType": "uint256",
          "name": "id",
          "type": "uint256"
        },
        {
          "internalType": "uint256",
          "name": "tips",
          "type": "uint256"
        },
        {
          "internalType": "string",
          "name": "content",
          "type": "string"
        },
        {
          "internalType": "address payable",
          "name": "author",
          "type": "address"
        }
      ],
      "stateMutability": "view",
      "type": "function",
      "constant": true
    },
    {
      "inputs": [
        {
          "internalType": "uint256",
          "name": "",
          "type": "uint256"
        },
        {
          "internalType": "address",
          "name": "",
          "type": "address"
        }
      ],
      "name": "tippers",
      "outputs": [
        {
          "internalType": "bool",
          "name": "",
          "type": "bool"
        }
      ],
      "stateMutability": "view",
      "type": "function",
      "constant": true
    },
    {
      "inputs": [
        {
          "internalType": "uint256",
          "name": "_id",
          "type": "uint256"
        }
      ],
      "name": "getCommentTippers",
      "outputs": [
        {
          "internalType": "address[]",
          "name": "",
          "type": "address[]"
        }
      ],
      "stateMutability": "view",
      "type": "function",
      "constant": true
    },
    {
      "inputs": [
        {
          "internalType": "uint256",
          "name": "_id",
          "type": "uint256"
        },
        {
          "internalType": "address",
          "name": "_tipper",
          "type": "address"
        }
      ],
      "name": "getAddressToTips",
      "outputs": [
        {
          "internalType": "uint256",
          "name": "",
          "type": "uint256"
        }
      ],
      "stateMutability": "view",
      "type": "function",
      "constant": true
    },
    {
      "inputs": [],
      "name": "getTippers",
      "outputs": [
        {
          "internalType": "address[]",
          "name": "",
          "type": "address[]"
        }
      ],
      "stateMutability": "view",
      "type": "function",
      "constant": true
    },
    {
      "inputs": [
        {
          "internalType": "uint256",
          "name": "_id",
          "type": "uint256"
        },
        {
          "internalType": "uint256",
          "name": "_amount",
          "type": "uint256"
        }
      ],
      "name": "tipComment",
      "outputs": [],
      "stateMutability": "nonpayable",
      "type": "function"
    },
    {
      "inputs": [
        {
          "internalType": "address",
          "name": "_addr",
          "type": "address"
        }
      ],
      "name": "getBalance",
      "outputs": [
        {
          "internalType": "uint256",
          "name": "",
          "type": "uint256"
        }
      ],
      "stateMutability": "view",
      "type": "function",
      "constant": true
    },
    {
      "inputs": [
        {
          "internalType": "string",
          "name": "_content",
          "type": "string"
        },
        {
          "internalType": "uint256",
          "name": "_value",
          "type": "uint256"
        }
      ],
      "name": "addComment",
      "outputs": [],
      "stateMutability": "nonpayable",
      "type": "function"
    },
    {
      "inputs": [],
      "name": "getCommentCount",
      "outputs": [
        {
          "internalType": "uint256",
          "name": "",
          "type": "uint256"
        }
      ],
      "stateMutability": "view",
      "type": "function",
      "constant": true
    },
    {
      "inputs": [
        {
          "internalType": "uint256",
          "name": "_id",
          "type": "uint256"
        }
      ],
      "name": "getCommentById",
      "outputs": [
        {
          "components": [
            {
              "internalType": "uint256",
              "name": "id",
              "type": "uint256"
            },
            {
              "internalType": "uint256",
              "name": "tips",
              "type": "uint256"
            },
            {
              "internalType": "string",
              "name": "content",
              "type": "string"
            },
            {
              "internalType": "address payable",
              "name": "author",
              "type": "address"
            },
            {
              "internalType": "address[]",
              "name": "tippers",
              "type": "address[]"
            }
          ],
          "internalType": "struct Comments.Comment",
          "name": "",
          "type": "tuple"
        }
      ],
      "stateMutability": "view",
      "type": "function",
      "constant": true
    },
    {
      "inputs": [],
      "name": "pay",
      "outputs": [],
      "stateMutability": "payable",
      "type": "function",
      "payable": true
    }
  ],
  "bytecode": "0x60806040526000805534801561001457600080fd5b50611e97806100246000396000f3fe6080604052600436106100dd5760003560e01c80638ebb4c151161007f578063e2f5e0df11610059578063e2f5e0df146102dc578063e37f9b0a14610319578063f8b2cb4f14610344578063fc4fce1d14610381576100dd565b80638ebb4c151461023657806396a3d8d71461027657806399ffd94d1461029f576100dd565b80634126d13b116100bb5780634126d13b1461015457806345ff20de146101915780635c0397c2146101bc5780636c43dbb4146101f9576100dd565b806316e31ea3146100e25780631b9265b81461010d5780632e21795114610117575b600080fd5b3480156100ee57600080fd5b506100f76103aa565b6040516101049190611431565b60405180910390f35b6101156103b3565b005b34801561012357600080fd5b5061013e6004803603810190610139919061148c565b6103b5565b60405161014b91906114fa565b60405180910390f35b34801561016057600080fd5b5061017b60048036038101906101769190611541565b6103f4565b6040516101889190611431565b60405180910390f35b34801561019d57600080fd5b506101a6610419565b6040516101b39190611431565b60405180910390f35b3480156101c857600080fd5b506101e360048036038101906101de9190611541565b61041f565b6040516101f09190611431565b60405180910390f35b34801561020557600080fd5b50610220600480360381019061021b919061148c565b61047a565b60405161022d9190611785565b60405180910390f35b34801561024257600080fd5b5061025d6004803603810190610258919061148c565b610631565b60405161026d9493929190611800565b60405180910390f35b34801561028257600080fd5b5061029d60048036038101906102989190611981565b610709565b005b3480156102ab57600080fd5b506102c660048036038101906102c1919061148c565b61085d565b6040516102d39190611a4c565b60405180910390f35b3480156102e857600080fd5b5061030360048036038101906102fe9190611541565b610901565b6040516103109190611a89565b60405180910390f35b34801561032557600080fd5b5061032e610930565b60405161033b9190611a4c565b60405180910390f35b34801561035057600080fd5b5061036b60048036038101906103669190611aa4565b6109be565b6040516103789190611431565b60405180910390f35b34801561038d57600080fd5b506103a860048036038101906103a39190611ad1565b6109f2565b005b60008054905090565b565b600181815481106103c557600080fd5b906000526020600020016000915054906101000a900473ffffffffffffffffffffffffffffffffffffffff1681565b6004602052816000526040600020602052806000526040600020600091509150505481565b60005481565b60006004600084815260200190815260200160002060008373ffffffffffffffffffffffffffffffffffffffff1673ffffffffffffffffffffffffffffffffffffffff16815260200190815260200160002054905092915050565b6104826111c7565b600260008381526020019081526020016000206040518060a001604052908160008201548152602001600182015481526020016002820180546104c490611b40565b80601f01602080910402602001604051908101604052809291908181526020018280546104f090611b40565b801561053d5780601f106105125761010080835404028352916020019161053d565b820191906000526020600020905b81548152906001019060200180831161052057829003601f168201915b505050505081526020016003820160009054906101000a900473ffffffffffffffffffffffffffffffffffffffff1673ffffffffffffffffffffffffffffffffffffffff1673ffffffffffffffffffffffffffffffffffffffff1681526020016004820180548060200260200160405190810160405280929190818152602001828054801561062157602002820191906000526020600020905b8160009054906101000a900473ffffffffffffffffffffffffffffffffffffffff1673ffffffffffffffffffffffffffffffffffffffff16815260200190600101908083116105d7575b5050505050815250509050919050565b600260205280600052604060002060009150905080600001549080600101549080600201805461066090611b40565b80601f016020809104026020016040519081016040528092919081815260200182805461068c90611b40565b80156106d95780601f106106ae576101008083540402835291602001916106d9565b820191906000526020600020905b8154815290600101906020018083116106bc57829003601f168201915b5050505050908060030160009054906101000a900473ffffffffffffffffffffffffffffffffffffffff16905084565b60606040518060a001604052806000548152602001600081526020018481526020013373ffffffffffffffffffffffffffffffffffffffff1681526020018281525060026000805481526020019081526020016000206000820151816000015560208201518160010155604082015181600201908051906020019061078f92919061120c565b5060608201518160030160006101000a81548173ffffffffffffffffffffffffffffffffffffffff021916908373ffffffffffffffffffffffffffffffffffffffff16021790555060808201518160040190805190602001906107f3929190611292565b509050507f83e3daed4f60a9f1f3f515f6fc6bcd2ea924cfc69b9781cf92a4251d588db903338460004260405161082d9493929190611bb7565b60405180910390a1610841600054836109f2565b60008081548092919061085390611c32565b9190505550505050565b6060600260008381526020019081526020016000206004018054806020026020016040519081016040528092919081815260200182805480156108f557602002820191906000526020600020905b8160009054906101000a900473ffffffffffffffffffffffffffffffffffffffff1673ffffffffffffffffffffffffffffffffffffffff16815260200190600101908083116108ab575b50505050509050919050565b60036020528160005260406000206020528060005260406000206000915091509054906101000a900460ff1681565b606060018054806020026020016040519081016040528092919081815260200182805480156109b457602002820191906000526020600020905b8160009054906101000a900473ffffffffffffffffffffffffffffffffffffffff1673ffffffffffffffffffffffffffffffffffffffff168152602001906001019080831161096a575b5050505050905090565b6000670de0b6b3a76400008273ffffffffffffffffffffffffffffffffffffffff16316109eb9190611caa565b9050919050565b600073ffffffffffffffffffffffffffffffffffffffff163373ffffffffffffffffffffffffffffffffffffffff161415610a62576040517f08c379a0000000000000000000000000000000000000000000000000000000008152600401610a5990611d27565b60405180910390fd5b600015156003600084815260200190815260200160002060003373ffffffffffffffffffffffffffffffffffffffff1673ffffffffffffffffffffffffffffffffffffffff16815260200190815260200160002060009054906101000a900460ff16151514610b06576040517f08c379a0000000000000000000000000000000000000000000000000000000008152600401610afd90611d93565b60405180910390fd5b600060026000848152602001908152602001600020905081816001016000828254610b319190611db3565b9250508190555060016003600085815260200190815260200160002060003373ffffffffffffffffffffffffffffffffffffffff1673ffffffffffffffffffffffffffffffffffffffff16815260200190815260200160002060006101000a81548160ff021916908315150217905550816004600085815260200190815260200160002060003373ffffffffffffffffffffffffffffffffffffffff1673ffffffffffffffffffffffffffffffffffffffff1681526020019081526020016000206000828254610c019190611db3565b9250508190555080600401339080600181540180825580915050600190039060005260206000200160009091909190916101000a81548173ffffffffffffffffffffffffffffffffffffffff021916908373ffffffffffffffffffffffffffffffffffffffff160217905550610c76336110b5565b50806002600085815260200190815260200160002060008201548160000155600182015481600101556002820181600201908054610cb390611b40565b610cbe92919061131c565b506003820160009054906101000a900473ffffffffffffffffffffffffffffffffffffffff168160030160006101000a81548173ffffffffffffffffffffffffffffffffffffffff021916908373ffffffffffffffffffffffffffffffffffffffff1602179055506004820181600401908054610d3c9291906113a9565b5090505060005b600054811015611072576000600260008381526020019081526020016000206001018190555060005b600260008381526020019081526020016000206004018054905081101561105e57600260008381526020019081526020016000206004018181548110610db557610db4611e09565b5b9060005260206000200160009054906101000a900473ffffffffffffffffffffffffffffffffffffffff1673ffffffffffffffffffffffffffffffffffffffff1631600260008481526020019081526020016000206001016000828254610e1c9190611db3565b92505081905550600260008381526020019081526020016000206004018181548110610e4b57610e4a611e09565b5b9060005260206000200160009054906101000a900473ffffffffffffffffffffffffffffffffffffffff1673ffffffffffffffffffffffffffffffffffffffff1631600460008481526020019081526020016000206000600260008681526020019081526020016000206004018481548110610eca57610ec9611e09565b5b9060005260206000200160009054906101000a900473ffffffffffffffffffffffffffffffffffffffff1673ffffffffffffffffffffffffffffffffffffffff1673ffffffffffffffffffffffffffffffffffffffff168152602001908152602001600020819055507f1363ce50781907b8f206d8afd7a7f0c571c66ccce9fd66f8de4ccbf20821ddde826002600085815260200190815260200160002060010154604051610f7a929190611e38565b60405180910390a1826002600087815260200190815260200160002060008201548160000155600182015481600101556002820181600201908054610fbe90611b40565b610fc992919061131c565b506003820160009054906101000a900473ffffffffffffffffffffffffffffffffffffffff168160030160006101000a81548173ffffffffffffffffffffffffffffffffffffffff021916908373ffffffffffffffffffffffffffffffffffffffff16021790555060048201816004019080546110479291906113a9565b50905050808061105690611c32565b915050610d6c565b50808061106a90611c32565b915050610d43565b507f1363ce50781907b8f206d8afd7a7f0c571c66ccce9fd66f8de4ccbf20821ddde8382600101546040516110a8929190611e38565b60405180910390a1505050565b600080600090505b60018054905081101561115957600181815481106110de576110dd611e09565b5b9060005260206000200160009054906101000a900473ffffffffffffffffffffffffffffffffffffffff1673ffffffffffffffffffffffffffffffffffffffff168373ffffffffffffffffffffffffffffffffffffffff1614156111465760009150506111c2565b808061115190611c32565b9150506110bd565b506001829080600181540180825580915050600190039060005260206000200160009091909190916101000a81548173ffffffffffffffffffffffffffffffffffffffff021916908373ffffffffffffffffffffffffffffffffffffffff160217905550600190505b919050565b6040518060a00160405280600081526020016000815260200160608152602001600073ffffffffffffffffffffffffffffffffffffffff168152602001606081525090565b82805461121890611b40565b90600052602060002090601f01602090048101928261123a5760008555611281565b82601f1061125357805160ff1916838001178555611281565b82800160010185558215611281579182015b82811115611280578251825591602001919060010190611265565b5b50905061128e91906113fb565b5090565b82805482825590600052602060002090810192821561130b579160200282015b8281111561130a5782518260006101000a81548173ffffffffffffffffffffffffffffffffffffffff021916908373ffffffffffffffffffffffffffffffffffffffff160217905550916020019190600101906112b2565b5b50905061131891906113fb565b5090565b82805461132890611b40565b90600052602060002090601f01602090048101928261134a5760008555611398565b82601f1061135b5780548555611398565b8280016001018555821561139857600052602060002091601f016020900482015b8281111561139757825482559160010191906001019061137c565b5b5090506113a591906113fb565b5090565b8280548282559060005260206000209081019282156113ea5760005260206000209182015b828111156113e95782548255916001019190600101906113ce565b5b5090506113f791906113fb565b5090565b5b808211156114145760008160009055506001016113fc565b5090565b6000819050919050565b61142b81611418565b82525050565b60006020820190506114466000830184611422565b92915050565b6000604051905090565b600080fd5b600080fd5b61146981611418565b811461147457600080fd5b50565b60008135905061148681611460565b92915050565b6000602082840312156114a2576114a1611456565b5b60006114b084828501611477565b91505092915050565b600073ffffffffffffffffffffffffffffffffffffffff82169050919050565b60006114e4826114b9565b9050919050565b6114f4816114d9565b82525050565b600060208201905061150f60008301846114eb565b92915050565b61151e816114d9565b811461152957600080fd5b50565b60008135905061153b81611515565b92915050565b6000806040838503121561155857611557611456565b5b600061156685828601611477565b92505060206115778582860161152c565b9150509250929050565b61158a81611418565b82525050565b600081519050919050565b600082825260208201905092915050565b60005b838110156115ca5780820151818401526020810190506115af565b838111156115d9576000848401525b50505050565b6000601f19601f8301169050919050565b60006115fb82611590565b611605818561159b565b93506116158185602086016115ac565b61161e816115df565b840191505092915050565b6000611634826114b9565b9050919050565b61164481611629565b82525050565b600081519050919050565b600082825260208201905092915050565b6000819050602082019050919050565b61167f816114d9565b82525050565b60006116918383611676565b60208301905092915050565b6000602082019050919050565b60006116b58261164a565b6116bf8185611655565b93506116ca83611666565b8060005b838110156116fb5781516116e28882611685565b97506116ed8361169d565b9250506001810190506116ce565b5085935050505092915050565b600060a0830160008301516117206000860182611581565b5060208301516117336020860182611581565b506040830151848203604086015261174b82826115f0565b9150506060830151611760606086018261163b565b506080830151848203608086015261177882826116aa565b9150508091505092915050565b6000602082019050818103600083015261179f8184611708565b905092915050565b600082825260208201905092915050565b60006117c382611590565b6117cd81856117a7565b93506117dd8185602086016115ac565b6117e6816115df565b840191505092915050565b6117fa81611629565b82525050565b60006080820190506118156000830187611422565b6118226020830186611422565b818103604083015261183481856117b8565b905061184360608301846117f1565b95945050505050565b600080fd5b600080fd5b7f4e487b7100000000000000000000000000000000000000000000000000000000600052604160045260246000fd5b61188e826115df565b810181811067ffffffffffffffff821117156118ad576118ac611856565b5b80604052505050565b60006118c061144c565b90506118cc8282611885565b919050565b600067ffffffffffffffff8211156118ec576118eb611856565b5b6118f5826115df565b9050602081019050919050565b82818337600083830152505050565b600061192461191f846118d1565b6118b6565b9050828152602081018484840111156119405761193f611851565b5b61194b848285611902565b509392505050565b600082601f8301126119685761196761184c565b5b8135611978848260208601611911565b91505092915050565b6000806040838503121561199857611997611456565b5b600083013567ffffffffffffffff8111156119b6576119b561145b565b5b6119c285828601611953565b92505060206119d385828601611477565b9150509250929050565b600082825260208201905092915050565b60006119f98261164a565b611a0381856119dd565b9350611a0e83611666565b8060005b83811015611a3f578151611a268882611685565b9750611a318361169d565b925050600181019050611a12565b5085935050505092915050565b60006020820190508181036000830152611a6681846119ee565b905092915050565b60008115159050919050565b611a8381611a6e565b82525050565b6000602082019050611a9e6000830184611a7a565b92915050565b600060208284031215611aba57611ab9611456565b5b6000611ac88482850161152c565b91505092915050565b60008060408385031215611ae857611ae7611456565b5b6000611af685828601611477565b9250506020611b0785828601611477565b9150509250929050565b7f4e487b7100000000000000000000000000000000000000000000000000000000600052602260045260246000fd5b60006002820490506001821680611b5857607f821691505b60208210811415611b6c57611b6b611b11565b5b50919050565b6000819050919050565b6000819050919050565b6000611ba1611b9c611b9784611b72565b611b7c565b611418565b9050919050565b611bb181611b86565b82525050565b6000608082019050611bcc60008301876114eb565b8181036020830152611bde81866117b8565b9050611bed6040830185611ba8565b611bfa6060830184611422565b95945050505050565b7f4e487b7100000000000000000000000000000000000000000000000000000000600052601160045260246000fd5b6000611c3d82611418565b91507fffffffffffffffffffffffffffffffffffffffffffffffffffffffffffffffff821415611c7057611c6f611c03565b5b600182019050919050565b7f4e487b7100000000000000000000000000000000000000000000000000000000600052601260045260246000fd5b6000611cb582611418565b9150611cc083611418565b925082611cd057611ccf611c7b565b5b828204905092915050565b7f53656e6465722063616e27742062652061646472657373203000000000000000600082015250565b6000611d116019836117a7565b9150611d1c82611cdb565b602082019050919050565b60006020820190508181036000830152611d4081611d04565b9050919050565b7f5573657220616c72656164792074697070656400000000000000000000000000600082015250565b6000611d7d6013836117a7565b9150611d8882611d47565b602082019050919050565b60006020820190508181036000830152611dac81611d70565b9050919050565b6000611dbe82611418565b9150611dc983611418565b9250827fffffffffffffffffffffffffffffffffffffffffffffffffffffffffffffffff03821115611dfe57611dfd611c03565b5b828201905092915050565b7f4e487b7100000000000000000000000000000000000000000000000000000000600052603260045260246000fd5b6000604082019050611e4d6000830185611422565b611e5a6020830184611422565b939250505056fea2646970667358221220b63823c3215c0c04712e519f120f17edf771ca488962c106f05eb0757f84f89564736f6c63430008090033",
  "immutableReferences": {},
  "source": "// SPDX-License-Identifier: MIT\r\npragma solidity >=0.4.22 <0.9.0;\r\n\r\ncontract Comments {\r\n    event commentAdded(\r\n        address author,\r\n        string content,\r\n        uint256 tips,\r\n        uint256 timestamp\r\n    );\r\n\r\n    event tipped(uint256 id, uint256 amount);\r\n\r\n    struct Comment {\r\n        uint256 id;\r\n        uint256 tips;\r\n        string content;\r\n        address payable author;\r\n        address[] tippers;\r\n    }\r\n\r\n    uint256 public commentCount = 0;\r\n    address[] public addressesTipped;\r\n\r\n    mapping(uint256 => Comment) public comments;\r\n    mapping(uint256 => mapping(address => bool)) public tippers; // (Comment.id => (tipper => bool))\r\n    mapping(uint256 => mapping(address => uint256)) public addressToTips; // (Comment.id => (adres => wartosc tipa))\r\n\r\n    function getCommentTippers(uint256 _id)\r\n        public\r\n        view\r\n        returns (address[] memory)\r\n    {\r\n        return comments[_id].tippers;\r\n    }\r\n\r\n    function getAddressToTips(uint256 _id, address _tipper)\r\n        public\r\n        view\r\n        returns (uint256)\r\n    {\r\n        return addressToTips[_id][_tipper];\r\n    }\r\n\r\n    function getTippers() public view returns (address[] memory) {\r\n        return addressesTipped;\r\n    }\r\n\r\n    function addTipper(address _tipper) private returns (bool) {\r\n        for (uint256 i = 0; i < addressesTipped.length; i++) {\r\n            if (_tipper == addressesTipped[i]) {\r\n                return false;\r\n            }\r\n        }\r\n        addressesTipped.push(_tipper);\r\n        return true;\r\n    }\r\n\r\n    function tipComment(uint256 _id, uint256 _amount) public {\r\n        require(msg.sender != address(0), \"Sender can't be address 0\");\r\n        require(tippers[_id][msg.sender] == false, \"User already tipped\");\r\n\r\n        Comment storage _comment = comments[_id];\r\n\r\n        _comment.tips += _amount;\r\n\r\n        tippers[_id][msg.sender] = true;\r\n        addressToTips[_id][msg.sender] += _amount;\r\n        _comment.tippers.push(msg.sender);\r\n\r\n        addTipper(msg.sender);\r\n\r\n        // setTips\r\n\r\n        comments[_id] = _comment;\r\n\r\n        // Refreshing all balances for all comments \r\n        for (uint256 id = 0; id < commentCount; id++) {\r\n            comments[id].tips = 0;\r\n            for (uint256 i = 0; i < comments[id].tippers.length; i++) {\r\n                comments[id].tips += comments[id].tippers[i].balance;\r\n                addressToTips[id][comments[id].tippers[i]] = comments[id].tippers[i].balance;\r\n                emit tipped(id, comments[id].tips);\r\n                \r\n\r\n                comments[_id] = _comment;\r\n            }\r\n        }\r\n\r\n        emit tipped(_id, _comment.tips);\r\n    }\r\n\r\n    function getBalance(address _addr) external view returns (uint256) {\r\n        return _addr.balance / (1 ether);\r\n    }\r\n\r\n    function addComment(string memory _content, uint256 _value) public {\r\n        address[] memory tab;\r\n        comments[commentCount] = Comment(\r\n            commentCount,\r\n            0,\r\n            _content,\r\n            payable(msg.sender),\r\n            tab\r\n        );\r\n        emit commentAdded(msg.sender, _content, 0, block.timestamp);\r\n        tipComment(commentCount, _value);\r\n        commentCount++;\r\n    }\r\n\r\n    function getCommentCount() public view returns (uint256) {\r\n        return commentCount;\r\n    }\r\n\r\n    function getCommentById(uint256 _id) public view returns (Comment memory) {\r\n        return comments[_id];\r\n    }\r\n\r\n    function pay() public payable {}\r\n}\r\n",
  "sourcePath": "E:\\Projects\\HashUp\\hashup-contracts\\contracts\\Comments.sol",
  "compiler": {
    "name": "solc",
    "version": "0.8.9+commit.e5eed63a.Emscripten.clang"
  },
  "schemaVersion": "3.4.3",
  "updatedAt": "2021-11-28T10:57:48.239Z",
  "networkType": "ethereum",
  "devdoc": {
    "kind": "dev",
    "methods": {},
    "version": 1
  },
  "userdoc": {
    "kind": "user",
    "methods": {},
    "version": 1
  }
}