{
  "contractName": "Comments",
  "abi": [
    {
      "anonymous": false,
      "inputs": [
        {
          "indexed": false,
          "internalType": "address",
          "name": "author",
          "type": "address"
        },
        {
          "indexed": false,
          "internalType": "string",
          "name": "content",
          "type": "string"
        },
        {
          "indexed": false,
          "internalType": "uint256",
          "name": "tips",
          "type": "uint256"
        },
        {
          "indexed": false,
          "internalType": "uint256",
          "name": "timestamp",
          "type": "uint256"
        }
      ],
      "name": "commentAdded",
      "type": "event"
    },
    {
      "anonymous": false,
      "inputs": [
        {
          "indexed": false,
          "internalType": "uint256",
          "name": "id",
          "type": "uint256"
        },
        {
          "indexed": false,
          "internalType": "int256",
          "name": "amount",
          "type": "int256"
        }
      ],
      "name": "tipped",
      "type": "event"
    },
    {
      "inputs": [
        {
          "internalType": "uint256",
          "name": "",
          "type": "uint256"
        },
        {
          "internalType": "address",
          "name": "",
          "type": "address"
        }
      ],
      "name": "addressToTips",
      "outputs": [
        {
          "internalType": "uint256",
          "name": "",
          "type": "uint256"
        }
      ],
      "stateMutability": "view",
      "type": "function"
    },
    {
      "inputs": [
        {
          "internalType": "uint256",
          "name": "",
          "type": "uint256"
        },
        {
          "internalType": "address",
          "name": "",
          "type": "address"
        }
      ],
      "name": "addressToUnTips",
      "outputs": [
        {
          "internalType": "uint256",
          "name": "",
          "type": "uint256"
        }
      ],
      "stateMutability": "view",
      "type": "function"
    },
    {
      "inputs": [
        {
          "internalType": "uint256",
          "name": "",
          "type": "uint256"
        }
      ],
      "name": "addressesTipped",
      "outputs": [
        {
          "internalType": "address",
          "name": "",
          "type": "address"
        }
      ],
      "stateMutability": "view",
      "type": "function"
    },
    {
      "inputs": [],
      "name": "commentCount",
      "outputs": [
        {
          "internalType": "uint256",
          "name": "",
          "type": "uint256"
        }
      ],
      "stateMutability": "view",
      "type": "function"
    },
    {
      "inputs": [
        {
          "internalType": "uint256",
          "name": "",
          "type": "uint256"
        }
      ],
      "name": "comments",
      "outputs": [
        {
          "internalType": "uint256",
          "name": "id",
          "type": "uint256"
        },
        {
          "internalType": "uint256",
          "name": "tips",
          "type": "uint256"
        },
        {
          "internalType": "uint256",
          "name": "untips",
          "type": "uint256"
        },
        {
          "internalType": "string",
          "name": "content",
          "type": "string"
        },
        {
          "internalType": "address payable",
          "name": "author",
          "type": "address"
        }
      ],
      "stateMutability": "view",
      "type": "function"
    },
    {
      "inputs": [
        {
          "internalType": "uint256",
          "name": "",
          "type": "uint256"
        },
        {
          "internalType": "address",
          "name": "",
          "type": "address"
        }
      ],
      "name": "tippers",
      "outputs": [
        {
          "internalType": "bool",
          "name": "",
          "type": "bool"
        }
      ],
      "stateMutability": "view",
      "type": "function"
    },
    {
      "inputs": [
        {
          "internalType": "uint256",
          "name": "",
          "type": "uint256"
        },
        {
          "internalType": "address",
          "name": "",
          "type": "address"
        }
      ],
      "name": "unTippers",
      "outputs": [
        {
          "internalType": "bool",
          "name": "",
          "type": "bool"
        }
      ],
      "stateMutability": "view",
      "type": "function"
    },
    {
      "inputs": [
        {
          "internalType": "uint256",
          "name": "_id",
          "type": "uint256"
        },
        {
          "internalType": "uint256",
          "name": "_amount",
          "type": "uint256"
        }
      ],
      "name": "tipComment",
      "outputs": [],
      "stateMutability": "nonpayable",
      "type": "function"
    },
    {
      "inputs": [
        {
          "internalType": "uint256",
          "name": "_id",
          "type": "uint256"
        },
        {
          "internalType": "uint256",
          "name": "_amount",
          "type": "uint256"
        }
      ],
      "name": "unTipComment",
      "outputs": [],
      "stateMutability": "nonpayable",
      "type": "function"
    },
    {
      "inputs": [
        {
          "internalType": "string",
          "name": "_content",
          "type": "string"
        },
        {
          "internalType": "uint256",
          "name": "_value",
          "type": "uint256"
        }
      ],
      "name": "addComment",
      "outputs": [],
      "stateMutability": "nonpayable",
      "type": "function"
    }
  ],
  "bytecode": "0x60806040526000805534801561001457600080fd5b50611dcc806100246000396000f3fe608060405234801561001057600080fd5b506004361061009e5760003560e01c806396a3d8d71161006657806396a3d8d714610171578063e2f5e0df1461018d578063f2ca8418146101bd578063fb51a018146101ed578063fc4fce1d1461021d5761009e565b80632e217951146100a35780634126d13b146100d357806345ff20de146101035780634b947fa5146101215780638ebb4c151461013d575b600080fd5b6100bd60048036038101906100b89190611553565b610239565b6040516100ca91906115c1565b60405180910390f35b6100ed60048036038101906100e89190611608565b610278565b6040516100fa9190611657565b60405180910390f35b61010b61029d565b6040516101189190611657565b60405180910390f35b61013b60048036038101906101369190611672565b6102a3565b005b61015760048036038101906101529190611553565b610941565b60405161016895949392919061176c565b60405180910390f35b61018b600480360381019061018691906118fb565b610a1f565b005b6101a760048036038101906101a29190611608565b610ba9565b6040516101b49190611972565b60405180910390f35b6101d760048036038101906101d29190611608565b610bd8565b6040516101e49190611972565b60405180910390f35b61020760048036038101906102029190611608565b610c07565b6040516102149190611657565b60405180910390f35b61023760048036038101906102329190611672565b610c2c565b005b6001818154811061024957600080fd5b906000526020600020016000915054906101000a900473ffffffffffffffffffffffffffffffffffffffff1681565b6004602052816000526040600020602052806000526040600020600091509150505481565b60005481565b600073ffffffffffffffffffffffffffffffffffffffff163373ffffffffffffffffffffffffffffffffffffffff161415610313576040517f08c379a000000000000000000000000000000000000000000000000000000000815260040161030a906119d9565b60405180910390fd5b600015156003600084815260200190815260200160002060003373ffffffffffffffffffffffffffffffffffffffff1673ffffffffffffffffffffffffffffffffffffffff16815260200190815260200160002060009054906101000a900460ff161515146103b7576040517f08c379a00000000000000000000000000000000000000000000000000000000081526004016103ae90611a45565b60405180910390fd5b600015156005600084815260200190815260200160002060003373ffffffffffffffffffffffffffffffffffffffff1673ffffffffffffffffffffffffffffffffffffffff16815260200190815260200160002060009054906101000a900460ff1615151461045b576040517f08c379a000000000000000000000000000000000000000000000000000000000815260040161045290611ab1565b60405180910390fd5b806002600084815260200190815260200160002060020160008282546104819190611b00565b9250508190555060016005600084815260200190815260200160002060003373ffffffffffffffffffffffffffffffffffffffff1673ffffffffffffffffffffffffffffffffffffffff16815260200190815260200160002060006101000a81548160ff02191690831515021790555060016003600084815260200190815260200160002060003373ffffffffffffffffffffffffffffffffffffffff1673ffffffffffffffffffffffffffffffffffffffff16815260200190815260200160002060006101000a81548160ff021916908315150217905550806006600084815260200190815260200160002060003373ffffffffffffffffffffffffffffffffffffffff1673ffffffffffffffffffffffffffffffffffffffff16815260200190815260200160002060008282546105ba9190611b00565b9250508190555060026000838152602001908152602001600020600601339080600181540180825580915050600190039060005260206000200160009091909190916101000a81548173ffffffffffffffffffffffffffffffffffffffff021916908373ffffffffffffffffffffffffffffffffffffffff160217905550610641336112ca565b5060005b6000548110156108cc576000600260008381526020019081526020016000206002018190555060005b60026000838152602001908152602001600020600601805490508110156108b8576002600083815260200190815260200160002060060181815481106106b7576106b6611b56565b5b9060005260206000200160009054906101000a900473ffffffffffffffffffffffffffffffffffffffff1673ffffffffffffffffffffffffffffffffffffffff163160026000848152602001908152602001600020600201600082825461071e9190611b00565b9250508190555060026000838152602001908152602001600020600601818154811061074d5761074c611b56565b5b9060005260206000200160009054906101000a900473ffffffffffffffffffffffffffffffffffffffff1673ffffffffffffffffffffffffffffffffffffffff16316006600084815260200190815260200160002060006002600086815260200190815260200160002060060184815481106107cc576107cb611b56565b5b9060005260206000200160009054906101000a900473ffffffffffffffffffffffffffffffffffffffff1673ffffffffffffffffffffffffffffffffffffffff1673ffffffffffffffffffffffffffffffffffffffff168152602001908152602001600020819055507f13a4aeb0498fa63ebd9ca430675e3e60fa47b504c3ba8eb015b149ec8a8b6439826002600085815260200190815260200160002060020154600260008681526020019081526020016000206001015461088f9190611b8f565b60405161089d929190611c32565b60405180910390a180806108b090611c5b565b91505061066e565b5080806108c490611c5b565b915050610645565b507f13a4aeb0498fa63ebd9ca430675e3e60fa47b504c3ba8eb015b149ec8a8b643982600260008581526020019081526020016000206002015460026000868152602001908152602001600020600101546109279190611b8f565b604051610935929190611c32565b60405180910390a15050565b600260205280600052604060002060009150905080600001549080600101549080600201549080600301805461097690611cd3565b80601f01602080910402602001604051908101604052809291908181526020018280546109a290611cd3565b80156109ef5780601f106109c4576101008083540402835291602001916109ef565b820191906000526020600020905b8154815290600101906020018083116109d257829003601f168201915b5050505050908060040160009054906101000a900473ffffffffffffffffffffffffffffffffffffffff16905085565b6060806040518060e00160405280600054815260200160008152602001600081526020018581526020013373ffffffffffffffffffffffffffffffffffffffff1681526020018381526020018281525060026000805481526020019081526020016000206000820151816000015560208201518160010155604082015181600201556060820151816003019080519060200190610abd9291906113dc565b5060808201518160040160006101000a81548173ffffffffffffffffffffffffffffffffffffffff021916908373ffffffffffffffffffffffffffffffffffffffff16021790555060a0820151816005019080519060200190610b21929190611462565b5060c0820151816006019080519060200190610b3e929190611462565b509050507f83e3daed4f60a9f1f3f515f6fc6bcd2ea924cfc69b9781cf92a4251d588db9033385600042604051610b789493929190611d4a565b60405180910390a1610b8c60005484610c2c565b600080815480929190610b9e90611c5b565b919050555050505050565b60036020528160005260406000206020528060005260406000206000915091509054906101000a900460ff1681565b60056020528160005260406000206020528060005260406000206000915091509054906101000a900460ff1681565b6006602052816000526040600020602052806000526040600020600091509150505481565b600073ffffffffffffffffffffffffffffffffffffffff163373ffffffffffffffffffffffffffffffffffffffff161415610c9c576040517f08c379a0000000000000000000000000000000000000000000000000000000008152600401610c93906119d9565b60405180910390fd5b600015156003600084815260200190815260200160002060003373ffffffffffffffffffffffffffffffffffffffff1673ffffffffffffffffffffffffffffffffffffffff16815260200190815260200160002060009054906101000a900460ff16151514610d40576040517f08c379a0000000000000000000000000000000000000000000000000000000008152600401610d3790611a45565b60405180910390fd5b600015156005600084815260200190815260200160002060003373ffffffffffffffffffffffffffffffffffffffff1673ffffffffffffffffffffffffffffffffffffffff16815260200190815260200160002060009054906101000a900460ff16151514610de4576040517f08c379a0000000000000000000000000000000000000000000000000000000008152600401610ddb90611ab1565b60405180910390fd5b80600260008481526020019081526020016000206001016000828254610e0a9190611b00565b9250508190555060016005600084815260200190815260200160002060003373ffffffffffffffffffffffffffffffffffffffff1673ffffffffffffffffffffffffffffffffffffffff16815260200190815260200160002060006101000a81548160ff02191690831515021790555060016003600084815260200190815260200160002060003373ffffffffffffffffffffffffffffffffffffffff1673ffffffffffffffffffffffffffffffffffffffff16815260200190815260200160002060006101000a81548160ff021916908315150217905550806004600084815260200190815260200160002060003373ffffffffffffffffffffffffffffffffffffffff1673ffffffffffffffffffffffffffffffffffffffff1681526020019081526020016000206000828254610f439190611b00565b9250508190555060026000838152602001908152602001600020600501339080600181540180825580915050600190039060005260206000200160009091909190916101000a81548173ffffffffffffffffffffffffffffffffffffffff021916908373ffffffffffffffffffffffffffffffffffffffff160217905550610fca336112ca565b5060005b600054811015611255576000600260008381526020019081526020016000206001018190555060005b6002600083815260200190815260200160002060050180549050811015611241576002600083815260200190815260200160002060050181815481106110405761103f611b56565b5b9060005260206000200160009054906101000a900473ffffffffffffffffffffffffffffffffffffffff1673ffffffffffffffffffffffffffffffffffffffff16316002600084815260200190815260200160002060010160008282546110a79190611b00565b925050819055506002600083815260200190815260200160002060050181815481106110d6576110d5611b56565b5b9060005260206000200160009054906101000a900473ffffffffffffffffffffffffffffffffffffffff1673ffffffffffffffffffffffffffffffffffffffff163160046000848152602001908152602001600020600060026000868152602001908152602001600020600501848154811061115557611154611b56565b5b9060005260206000200160009054906101000a900473ffffffffffffffffffffffffffffffffffffffff1673ffffffffffffffffffffffffffffffffffffffff1673ffffffffffffffffffffffffffffffffffffffff168152602001908152602001600020819055507f13a4aeb0498fa63ebd9ca430675e3e60fa47b504c3ba8eb015b149ec8a8b643982600260008581526020019081526020016000206002015460026000868152602001908152602001600020600101546112189190611b8f565b604051611226929190611c32565b60405180910390a1808061123990611c5b565b915050610ff7565b50808061124d90611c5b565b915050610fce565b507f13a4aeb0498fa63ebd9ca430675e3e60fa47b504c3ba8eb015b149ec8a8b643982600260008581526020019081526020016000206002015460026000868152602001908152602001600020600101546112b09190611b8f565b6040516112be929190611c32565b60405180910390a15050565b600080600090505b60018054905081101561136e57600181815481106112f3576112f2611b56565b5b9060005260206000200160009054906101000a900473ffffffffffffffffffffffffffffffffffffffff1673ffffffffffffffffffffffffffffffffffffffff168373ffffffffffffffffffffffffffffffffffffffff16141561135b5760009150506113d7565b808061136690611c5b565b9150506112d2565b506001829080600181540180825580915050600190039060005260206000200160009091909190916101000a81548173ffffffffffffffffffffffffffffffffffffffff021916908373ffffffffffffffffffffffffffffffffffffffff160217905550600190505b919050565b8280546113e890611cd3565b90600052602060002090601f01602090048101928261140a5760008555611451565b82601f1061142357805160ff1916838001178555611451565b82800160010185558215611451579182015b82811115611450578251825591602001919060010190611435565b5b50905061145e91906114ec565b5090565b8280548282559060005260206000209081019282156114db579160200282015b828111156114da5782518260006101000a81548173ffffffffffffffffffffffffffffffffffffffff021916908373ffffffffffffffffffffffffffffffffffffffff16021790555091602001919060010190611482565b5b5090506114e891906114ec565b5090565b5b808211156115055760008160009055506001016114ed565b5090565b6000604051905090565b600080fd5b600080fd5b6000819050919050565b6115308161151d565b811461153b57600080fd5b50565b60008135905061154d81611527565b92915050565b60006020828403121561156957611568611513565b5b60006115778482850161153e565b91505092915050565b600073ffffffffffffffffffffffffffffffffffffffff82169050919050565b60006115ab82611580565b9050919050565b6115bb816115a0565b82525050565b60006020820190506115d660008301846115b2565b92915050565b6115e5816115a0565b81146115f057600080fd5b50565b600081359050611602816115dc565b92915050565b6000806040838503121561161f5761161e611513565b5b600061162d8582860161153e565b925050602061163e858286016115f3565b9150509250929050565b6116518161151d565b82525050565b600060208201905061166c6000830184611648565b92915050565b6000806040838503121561168957611688611513565b5b60006116978582860161153e565b92505060206116a88582860161153e565b9150509250929050565b600081519050919050565b600082825260208201905092915050565b60005b838110156116ec5780820151818401526020810190506116d1565b838111156116fb576000848401525b50505050565b6000601f19601f8301169050919050565b600061171d826116b2565b61172781856116bd565b93506117378185602086016116ce565b61174081611701565b840191505092915050565b600061175682611580565b9050919050565b6117668161174b565b82525050565b600060a0820190506117816000830188611648565b61178e6020830187611648565b61179b6040830186611648565b81810360608301526117ad8185611712565b90506117bc608083018461175d565b9695505050505050565b600080fd5b600080fd5b7f4e487b7100000000000000000000000000000000000000000000000000000000600052604160045260246000fd5b61180882611701565b810181811067ffffffffffffffff82111715611827576118266117d0565b5b80604052505050565b600061183a611509565b905061184682826117ff565b919050565b600067ffffffffffffffff821115611866576118656117d0565b5b61186f82611701565b9050602081019050919050565b82818337600083830152505050565b600061189e6118998461184b565b611830565b9050828152602081018484840111156118ba576118b96117cb565b5b6118c584828561187c565b509392505050565b600082601f8301126118e2576118e16117c6565b5b81356118f284826020860161188b565b91505092915050565b6000806040838503121561191257611911611513565b5b600083013567ffffffffffffffff8111156119305761192f611518565b5b61193c858286016118cd565b925050602061194d8582860161153e565b9150509250929050565b60008115159050919050565b61196c81611957565b82525050565b60006020820190506119876000830184611963565b92915050565b7f53656e6465722063616e27742062652061646472657373203000000000000000600082015250565b60006119c36019836116bd565b91506119ce8261198d565b602082019050919050565b600060208201905081810360008301526119f2816119b6565b9050919050565b7f5573657220616c72656164792074697070656400000000000000000000000000600082015250565b6000611a2f6013836116bd565b9150611a3a826119f9565b602082019050919050565b60006020820190508181036000830152611a5e81611a22565b9050919050565b7f5573657220616c726561647920756e5469707065640000000000000000000000600082015250565b6000611a9b6015836116bd565b9150611aa682611a65565b602082019050919050565b60006020820190508181036000830152611aca81611a8e565b9050919050565b7f4e487b7100000000000000000000000000000000000000000000000000000000600052601160045260246000fd5b6000611b0b8261151d565b9150611b168361151d565b9250827fffffffffffffffffffffffffffffffffffffffffffffffffffffffffffffffff03821115611b4b57611b4a611ad1565b5b828201905092915050565b7f4e487b7100000000000000000000000000000000000000000000000000000000600052603260045260246000fd5b6000819050919050565b6000611b9a82611b85565b9150611ba583611b85565b9250827f800000000000000000000000000000000000000000000000000000000000000001821260008412151615611be057611bdf611ad1565b5b827f7fffffffffffffffffffffffffffffffffffffffffffffffffffffffffffffff018213600084121615611c1857611c17611ad1565b5b828203905092915050565b611c2c81611b85565b82525050565b6000604082019050611c476000830185611648565b611c546020830184611c23565b9392505050565b6000611c668261151d565b91507fffffffffffffffffffffffffffffffffffffffffffffffffffffffffffffffff821415611c9957611c98611ad1565b5b600182019050919050565b7f4e487b7100000000000000000000000000000000000000000000000000000000600052602260045260246000fd5b60006002820490506001821680611ceb57607f821691505b60208210811415611cff57611cfe611ca4565b5b50919050565b6000819050919050565b6000819050919050565b6000611d34611d2f611d2a84611d05565b611d0f565b61151d565b9050919050565b611d4481611d19565b82525050565b6000608082019050611d5f60008301876115b2565b8181036020830152611d718186611712565b9050611d806040830185611d3b565b611d8d6060830184611648565b9594505050505056fea26469706673582212201afd7adf8f7b9e8d1a73ed508a97fec13d80ffe53fa74d1cd4a23c13e334b81264736f6c63430008090033",
  "immutableReferences": {},
  "source": "// SPDX-License-Identifier: MIT\r\npragma solidity >=0.4.22 <0.9.0;\r\n\r\ncontract Comments {\r\n    event commentAdded(\r\n        address author,\r\n        string content,\r\n        uint tips,\r\n        uint timestamp\r\n    );\r\n\r\n    event tipped(uint256 id, int amount);\r\n\r\n    struct Comment {\r\n        uint id;\r\n        uint tips;\r\n        uint untips;\r\n        string content;\r\n        address payable author;\r\n        address[] tippers;\r\n        address[] unTippers;\r\n    }\r\n\r\n    uint256 public commentCount = 0;\r\n    address[] public addressesTipped;\r\n\r\n    mapping(uint256 => Comment) public comments;\r\n    mapping(uint256 => mapping(address => bool)) public tippers; // (Comment.id => (tipper => bool))\r\n    mapping(uint256 => mapping(address => uint256)) public addressToTips; // (Comment.id => (adres => wartosc tipa))\r\n\r\n    mapping(uint256 => mapping(address => bool)) public unTippers; // (Comment.id => (tipper => bool))\r\n    mapping(uint256 => mapping(address => uint)) public addressToUnTips; // (Comment.id => (adres => wartosc tipa))\r\n\r\n    /*\r\n     * @param {address} _tipper - New tipper address\r\n     * Returns true if the address does not belong to the and array has been added, else false\r\n     */\r\n    function addTipper(address _tipper) private returns (bool) {\r\n        for (uint256 i = 0; i < addressesTipped.length; i++) {\r\n            if (_tipper == addressesTipped[i]) {\r\n                return false;\r\n            }\r\n        }\r\n        addressesTipped.push(_tipper);\r\n        return true;\r\n    }\r\n\r\n    /*\r\n     * @param {uint} _id - Comment id \r\n     * @param {uint} _amount - Value of tip \r\n     * emits event tipped\r\n     */\r\n    function tipComment(uint _id, uint256 _amount) public {\r\n        require(msg.sender != address(0), \"Sender can't be address 0\");\r\n        require(tippers[_id][msg.sender] == false, \"User already tipped\");\r\n        require(unTippers[_id][msg.sender] == false, \"User already unTipped\");\r\n\r\n        comments[_id].tips += _amount;\r\n\r\n        unTippers[_id][msg.sender] = true;\r\n        tippers[_id][msg.sender] = true;\r\n\r\n        addressToTips[_id][msg.sender] += _amount;\r\n        comments[_id].tippers.push(msg.sender);\r\n\r\n        addTipper(msg.sender);\r\n\r\n        for (uint256 id = 0; id < commentCount; id++) {\r\n            comments[id].tips = 0;\r\n            for (uint256 i = 0; i < comments[id].tippers.length; i++) {\r\n                comments[id].tips += comments[id].tippers[i].balance;\r\n                addressToTips[id][comments[id].tippers[i]] = comments[id].tippers[i].balance;\r\n                emit tipped(id, int(int(comments[id].tips) - int(comments[id].untips)));\r\n            }\r\n        }\r\n\r\n        emit tipped(_id, int(int(comments[_id].tips) - int(comments[_id].untips)));\r\n    }\r\n\r\n    /*\r\n     * @param {uint} _id - Comment id \r\n     * @param {uint} _amount - Value of tip \r\n     * emits event tipped\r\n     */\r\n    function unTipComment(uint _id, uint _amount) public {\r\n        require(msg.sender != address(0), \"Sender can't be address 0\");\r\n        require(tippers[_id][msg.sender] == false, \"User already tipped\");\r\n        require(unTippers[_id][msg.sender] == false, \"User already unTipped\");\r\n        \r\n        comments[_id].untips += _amount;\r\n\r\n        unTippers[_id][msg.sender] = true;\r\n        tippers[_id][msg.sender] = true;\r\n\r\n        addressToUnTips[_id][msg.sender] += _amount;\r\n        comments[_id].unTippers.push(msg.sender);\r\n\r\n        addTipper(msg.sender);\r\n\r\n\r\n        for (uint256 id = 0; id < commentCount; id++) {\r\n            comments[id].untips = 0;\r\n            for (uint256 i = 0; i < comments[id].unTippers.length; i++) {\r\n                comments[id].untips += comments[id].unTippers[i].balance;\r\n                addressToUnTips[id][comments[id].unTippers[i]] = comments[id].unTippers[i].balance;\r\n                emit tipped(id, int(int(comments[id].tips) - int(comments[id].untips)));\r\n            }\r\n        }\r\n        emit tipped(_id, int(int(comments[_id].tips) - int(comments[_id].untips)));\r\n    }\r\n    \r\n\r\n    /*\r\n     * @param {string} _content - Comment content \r\n     * @param {uint} _value - Comment initial tips value\r\n     * emits event commentAdded\r\n     */\r\n    function addComment(\r\n        string memory _content, \r\n        uint256 _value\r\n    ) public {\r\n        address[] memory tab;\r\n        address[] memory tab1;\r\n\r\n        comments[commentCount] = Comment(\r\n            commentCount,\r\n            0,\r\n            0,\r\n            _content,\r\n            payable(msg.sender),\r\n            tab,\r\n            tab1\r\n        );\r\n        emit commentAdded(msg.sender, _content, 0, block.timestamp);\r\n        tipComment(commentCount, _value);\r\n        commentCount++;\r\n    }\r\n\r\n}\r\n",
  "sourcePath": "C:\\Users\\Mariusz\\Documents\\GitHub\\hashup-contracts\\contracts\\Comments.sol",
  "compiler": {
    "name": "solc",
    "version": "0.8.9+commit.e5eed63a.Emscripten.clang"
  },
  "schemaVersion": "3.4.3",
  "updatedAt": "2021-11-29T08:06:23.264Z",
  "devdoc": {
    "kind": "dev",
    "methods": {},
    "version": 1
  },
  "userdoc": {
    "kind": "user",
    "methods": {},
    "version": 1
  }
}