{
  "contractName": "Comments",
  "abi": [
    {
      "anonymous": false,
      "inputs": [
        {
          "indexed": false,
          "internalType": "address",
          "name": "author",
          "type": "address"
        },
        {
          "indexed": false,
          "internalType": "string",
          "name": "content",
          "type": "string"
        },
        {
          "indexed": false,
          "internalType": "uint256",
          "name": "tips",
          "type": "uint256"
        },
        {
          "indexed": false,
          "internalType": "uint256",
          "name": "timestamp",
          "type": "uint256"
        }
      ],
      "name": "commentAdded",
      "type": "event"
    },
    {
      "anonymous": false,
      "inputs": [
        {
          "indexed": false,
          "internalType": "uint256",
          "name": "id",
          "type": "uint256"
        },
        {
          "indexed": false,
          "internalType": "uint256",
          "name": "amount",
          "type": "uint256"
        }
      ],
      "name": "commentTipped",
      "type": "event"
    },
    {
      "anonymous": false,
      "inputs": [
        {
          "indexed": false,
          "internalType": "uint256",
          "name": "id",
          "type": "uint256"
        },
        {
          "indexed": false,
          "internalType": "uint256",
          "name": "unTippedAmount",
          "type": "uint256"
        },
        {
          "indexed": false,
          "internalType": "address",
          "name": "tipper",
          "type": "address"
        }
      ],
      "name": "commentUnTipped",
      "type": "event"
    },
    {
      "inputs": [
        {
          "internalType": "uint256",
          "name": "",
          "type": "uint256"
        },
        {
          "internalType": "address",
          "name": "",
          "type": "address"
        }
      ],
      "name": "addressToTips",
      "outputs": [
        {
          "internalType": "uint256",
          "name": "",
          "type": "uint256"
        }
      ],
      "stateMutability": "view",
      "type": "function",
      "constant": true
    },
    {
      "inputs": [
        {
          "internalType": "uint256",
          "name": "",
          "type": "uint256"
        }
      ],
      "name": "addressesTipped",
      "outputs": [
        {
          "internalType": "address",
          "name": "",
          "type": "address"
        }
      ],
      "stateMutability": "view",
      "type": "function",
      "constant": true
    },
    {
      "inputs": [],
      "name": "commentCount",
      "outputs": [
        {
          "internalType": "uint256",
          "name": "",
          "type": "uint256"
        }
      ],
      "stateMutability": "view",
      "type": "function",
      "constant": true
    },
    {
      "inputs": [
        {
          "internalType": "uint256",
          "name": "",
          "type": "uint256"
        }
      ],
      "name": "comments",
      "outputs": [
        {
          "internalType": "uint256",
          "name": "id",
          "type": "uint256"
        },
        {
          "internalType": "uint256",
          "name": "tips",
          "type": "uint256"
        },
        {
          "internalType": "string",
          "name": "content",
          "type": "string"
        },
        {
          "internalType": "address payable",
          "name": "author",
          "type": "address"
        }
      ],
      "stateMutability": "view",
      "type": "function",
      "constant": true
    },
    {
      "inputs": [
        {
          "internalType": "uint256",
          "name": "",
          "type": "uint256"
        },
        {
          "internalType": "address",
          "name": "",
          "type": "address"
        }
      ],
      "name": "tippers",
      "outputs": [
        {
          "internalType": "bool",
          "name": "",
          "type": "bool"
        }
      ],
      "stateMutability": "view",
      "type": "function",
      "constant": true
    },
    {
      "inputs": [
        {
          "internalType": "uint256",
          "name": "_id",
          "type": "uint256"
        }
      ],
      "name": "getCommentTippers",
      "outputs": [
        {
          "internalType": "address[]",
          "name": "",
          "type": "address[]"
        }
      ],
      "stateMutability": "view",
      "type": "function",
      "constant": true
    },
    {
      "inputs": [
        {
          "internalType": "uint256",
          "name": "_id",
          "type": "uint256"
        },
        {
          "internalType": "address",
          "name": "_tipper",
          "type": "address"
        }
      ],
      "name": "getAddressToTips",
      "outputs": [
        {
          "internalType": "uint256",
          "name": "",
          "type": "uint256"
        }
      ],
      "stateMutability": "view",
      "type": "function",
      "constant": true
    },
    {
      "inputs": [],
      "name": "getTippers",
      "outputs": [
        {
          "internalType": "address[]",
          "name": "",
          "type": "address[]"
        }
      ],
      "stateMutability": "view",
      "type": "function",
      "constant": true
    },
    {
      "inputs": [
        {
          "internalType": "uint256",
          "name": "_id",
          "type": "uint256"
        },
        {
          "internalType": "uint256",
          "name": "_amount",
          "type": "uint256"
        }
      ],
      "name": "tipComment",
      "outputs": [],
      "stateMutability": "nonpayable",
      "type": "function"
    },
    {
      "inputs": [
        {
          "internalType": "address",
          "name": "_addr",
          "type": "address"
        }
      ],
      "name": "getBalance",
      "outputs": [
        {
          "internalType": "uint256",
          "name": "",
          "type": "uint256"
        }
      ],
      "stateMutability": "view",
      "type": "function",
      "constant": true
    },
    {
      "inputs": [
        {
          "internalType": "string",
          "name": "_content",
          "type": "string"
        },
        {
          "internalType": "uint256",
          "name": "_value",
          "type": "uint256"
        }
      ],
      "name": "addComment",
      "outputs": [],
      "stateMutability": "nonpayable",
      "type": "function"
    },
    {
      "inputs": [],
      "name": "getCommentCount",
      "outputs": [
        {
          "internalType": "uint256",
          "name": "",
          "type": "uint256"
        }
      ],
      "stateMutability": "view",
      "type": "function",
      "constant": true
    },
    {
      "inputs": [
        {
          "internalType": "uint256",
          "name": "_id",
          "type": "uint256"
        }
      ],
      "name": "getCommentById",
      "outputs": [
        {
          "components": [
            {
              "internalType": "uint256",
              "name": "id",
              "type": "uint256"
            },
            {
              "internalType": "uint256",
              "name": "tips",
              "type": "uint256"
            },
            {
              "internalType": "string",
              "name": "content",
              "type": "string"
            },
            {
              "internalType": "address payable",
              "name": "author",
              "type": "address"
            },
            {
              "internalType": "address[]",
              "name": "tippers",
              "type": "address[]"
            }
          ],
          "internalType": "struct Comments.Comment",
          "name": "",
          "type": "tuple"
        }
      ],
      "stateMutability": "view",
      "type": "function",
      "constant": true
    },
    {
      "inputs": [],
      "name": "pay",
      "outputs": [],
      "stateMutability": "payable",
      "type": "function",
      "payable": true
    }
  ],
  "bytecode": "0x60806040526000805534801561001457600080fd5b50611da6806100246000396000f3fe6080604052600436106100dd5760003560e01c80638ebb4c151161007f578063e2f5e0df11610059578063e2f5e0df146102dc578063e37f9b0a14610319578063f8b2cb4f14610344578063fc4fce1d14610381576100dd565b80638ebb4c151461023657806396a3d8d71461027657806399ffd94d1461029f576100dd565b80634126d13b116100bb5780634126d13b1461015457806345ff20de146101915780635c0397c2146101bc5780636c43dbb4146101f9576100dd565b806316e31ea3146100e25780631b9265b81461010d5780632e21795114610117575b600080fd5b3480156100ee57600080fd5b506100f76103aa565b6040516101049190611309565b60405180910390f35b6101156103b3565b005b34801561012357600080fd5b5061013e60048036038101906101399190611364565b6103b5565b60405161014b91906113d2565b60405180910390f35b34801561016057600080fd5b5061017b60048036038101906101769190611419565b6103f4565b6040516101889190611309565b60405180910390f35b34801561019d57600080fd5b506101a6610419565b6040516101b39190611309565b60405180910390f35b3480156101c857600080fd5b506101e360048036038101906101de9190611419565b61041f565b6040516101f09190611309565b60405180910390f35b34801561020557600080fd5b50610220600480360381019061021b9190611364565b61047a565b60405161022d919061165d565b60405180910390f35b34801561024257600080fd5b5061025d60048036038101906102589190611364565b610631565b60405161026d94939291906116d8565b60405180910390f35b34801561028257600080fd5b5061029d60048036038101906102989190611859565b610709565b005b3480156102ab57600080fd5b506102c660048036038101906102c19190611364565b61085d565b6040516102d39190611924565b60405180910390f35b3480156102e857600080fd5b5061030360048036038101906102fe9190611419565b610901565b6040516103109190611961565b60405180910390f35b34801561032557600080fd5b5061032e610930565b60405161033b9190611924565b60405180910390f35b34801561035057600080fd5b5061036b6004803603810190610366919061197c565b6109be565b6040516103789190611309565b60405180910390f35b34801561038d57600080fd5b506103a860048036038101906103a391906119a9565b6109f2565b005b60008054905090565b565b600181815481106103c557600080fd5b906000526020600020016000915054906101000a900473ffffffffffffffffffffffffffffffffffffffff1681565b6004602052816000526040600020602052806000526040600020600091509150505481565b60005481565b60006004600084815260200190815260200160002060008373ffffffffffffffffffffffffffffffffffffffff1673ffffffffffffffffffffffffffffffffffffffff16815260200190815260200160002054905092915050565b61048261109f565b600260008381526020019081526020016000206040518060a001604052908160008201548152602001600182015481526020016002820180546104c490611a18565b80601f01602080910402602001604051908101604052809291908181526020018280546104f090611a18565b801561053d5780601f106105125761010080835404028352916020019161053d565b820191906000526020600020905b81548152906001019060200180831161052057829003601f168201915b505050505081526020016003820160009054906101000a900473ffffffffffffffffffffffffffffffffffffffff1673ffffffffffffffffffffffffffffffffffffffff1673ffffffffffffffffffffffffffffffffffffffff1681526020016004820180548060200260200160405190810160405280929190818152602001828054801561062157602002820191906000526020600020905b8160009054906101000a900473ffffffffffffffffffffffffffffffffffffffff1673ffffffffffffffffffffffffffffffffffffffff16815260200190600101908083116105d7575b5050505050815250509050919050565b600260205280600052604060002060009150905080600001549080600101549080600201805461066090611a18565b80601f016020809104026020016040519081016040528092919081815260200182805461068c90611a18565b80156106d95780601f106106ae576101008083540402835291602001916106d9565b820191906000526020600020905b8154815290600101906020018083116106bc57829003601f168201915b5050505050908060030160009054906101000a900473ffffffffffffffffffffffffffffffffffffffff16905084565b60606040518060a001604052806000548152602001600081526020018481526020013373ffffffffffffffffffffffffffffffffffffffff1681526020018281525060026000805481526020019081526020016000206000820151816000015560208201518160010155604082015181600201908051906020019061078f9291906110e4565b5060608201518160030160006101000a81548173ffffffffffffffffffffffffffffffffffffffff021916908373ffffffffffffffffffffffffffffffffffffffff16021790555060808201518160040190805190602001906107f392919061116a565b509050507f83e3daed4f60a9f1f3f515f6fc6bcd2ea924cfc69b9781cf92a4251d588db903338460004260405161082d9493929190611a8f565b60405180910390a1610841600054836109f2565b60008081548092919061085390611b0a565b9190505550505050565b6060600260008381526020019081526020016000206004018054806020026020016040519081016040528092919081815260200182805480156108f557602002820191906000526020600020905b8160009054906101000a900473ffffffffffffffffffffffffffffffffffffffff1673ffffffffffffffffffffffffffffffffffffffff16815260200190600101908083116108ab575b50505050509050919050565b60036020528160005260406000206020528060005260406000206000915091509054906101000a900460ff1681565b606060018054806020026020016040519081016040528092919081815260200182805480156109b457602002820191906000526020600020905b8160009054906101000a900473ffffffffffffffffffffffffffffffffffffffff1673ffffffffffffffffffffffffffffffffffffffff168152602001906001019080831161096a575b5050505050905090565b6000670de0b6b3a76400008273ffffffffffffffffffffffffffffffffffffffff16316109eb9190611b82565b9050919050565b600073ffffffffffffffffffffffffffffffffffffffff163373ffffffffffffffffffffffffffffffffffffffff161415610a62576040517f08c379a0000000000000000000000000000000000000000000000000000000008152600401610a5990611bff565b60405180910390fd5b600015156003600084815260200190815260200160002060003373ffffffffffffffffffffffffffffffffffffffff1673ffffffffffffffffffffffffffffffffffffffff16815260200190815260200160002060009054906101000a900460ff16151514610b06576040517f08c379a0000000000000000000000000000000000000000000000000000000008152600401610afd90611c6b565b60405180910390fd5b600060026000848152602001908152602001600020905081816001016000828254610b319190611c8b565b9250508190555060016003600085815260200190815260200160002060003373ffffffffffffffffffffffffffffffffffffffff1673ffffffffffffffffffffffffffffffffffffffff16815260200190815260200160002060006101000a81548160ff021916908315150217905550816004600085815260200190815260200160002060003373ffffffffffffffffffffffffffffffffffffffff1673ffffffffffffffffffffffffffffffffffffffff1681526020019081526020016000206000828254610c019190611c8b565b9250508190555080600401339080600181540180825580915050600190039060005260206000200160009091909190916101000a81548173ffffffffffffffffffffffffffffffffffffffff021916908373ffffffffffffffffffffffffffffffffffffffff160217905550610c7633610f8d565b50806002600085815260200190815260200160002060008201548160000155600182015481600101556002820181600201908054610cb390611a18565b610cbe9291906111f4565b506003820160009054906101000a900473ffffffffffffffffffffffffffffffffffffffff168160030160006101000a81548173ffffffffffffffffffffffffffffffffffffffff021916908373ffffffffffffffffffffffffffffffffffffffff1602179055506004820181600401908054610d3c929190611281565b5090505060005b600054811015610f4a576000600260008381526020019081526020016000206001018190555060005b6002600083815260200190815260200160002060040180549050811015610f36576000600260008481526020019081526020016000206004018281548110610db757610db6611ce1565b5b9060005260206000200160009054906101000a900473ffffffffffffffffffffffffffffffffffffffff16905060008173ffffffffffffffffffffffffffffffffffffffff163190506003600085815260200190815260200160002060008373ffffffffffffffffffffffffffffffffffffffff1673ffffffffffffffffffffffffffffffffffffffff16815260200190815260200160002060009054906101000a900460ff1615610f215780600260008681526020019081526020016000206001016000828254610e899190611c8b565b92505081905550806004600085815260200190815260200160002060008473ffffffffffffffffffffffffffffffffffffffff1673ffffffffffffffffffffffffffffffffffffffff168152602001908152602001600020819055507f12acb37b084712c6154943d0c7df0982d0d9ac29ea123f73a09334c4d9b7f96f848284604051610f1893929190611d10565b60405180910390a15b50508080610f2e90611b0a565b915050610d6c565b508080610f4290611b0a565b915050610d43565b507f7a0ba520c66559516642648cf084154311abd5e3408c3ac4c16df3494c739d4a838260010154604051610f80929190611d47565b60405180910390a1505050565b600080600090505b6001805490508110156110315760018181548110610fb657610fb5611ce1565b5b9060005260206000200160009054906101000a900473ffffffffffffffffffffffffffffffffffffffff1673ffffffffffffffffffffffffffffffffffffffff168373ffffffffffffffffffffffffffffffffffffffff16141561101e57600091505061109a565b808061102990611b0a565b915050610f95565b506001829080600181540180825580915050600190039060005260206000200160009091909190916101000a81548173ffffffffffffffffffffffffffffffffffffffff021916908373ffffffffffffffffffffffffffffffffffffffff160217905550600190505b919050565b6040518060a00160405280600081526020016000815260200160608152602001600073ffffffffffffffffffffffffffffffffffffffff168152602001606081525090565b8280546110f090611a18565b90600052602060002090601f0160209004810192826111125760008555611159565b82601f1061112b57805160ff1916838001178555611159565b82800160010185558215611159579182015b8281111561115857825182559160200191906001019061113d565b5b50905061116691906112d3565b5090565b8280548282559060005260206000209081019282156111e3579160200282015b828111156111e25782518260006101000a81548173ffffffffffffffffffffffffffffffffffffffff021916908373ffffffffffffffffffffffffffffffffffffffff1602179055509160200191906001019061118a565b5b5090506111f091906112d3565b5090565b82805461120090611a18565b90600052602060002090601f0160209004810192826112225760008555611270565b82601f106112335780548555611270565b8280016001018555821561127057600052602060002091601f016020900482015b8281111561126f578254825591600101919060010190611254565b5b50905061127d91906112d3565b5090565b8280548282559060005260206000209081019282156112c25760005260206000209182015b828111156112c15782548255916001019190600101906112a6565b5b5090506112cf91906112d3565b5090565b5b808211156112ec5760008160009055506001016112d4565b5090565b6000819050919050565b611303816112f0565b82525050565b600060208201905061131e60008301846112fa565b92915050565b6000604051905090565b600080fd5b600080fd5b611341816112f0565b811461134c57600080fd5b50565b60008135905061135e81611338565b92915050565b60006020828403121561137a5761137961132e565b5b60006113888482850161134f565b91505092915050565b600073ffffffffffffffffffffffffffffffffffffffff82169050919050565b60006113bc82611391565b9050919050565b6113cc816113b1565b82525050565b60006020820190506113e760008301846113c3565b92915050565b6113f6816113b1565b811461140157600080fd5b50565b600081359050611413816113ed565b92915050565b600080604083850312156114305761142f61132e565b5b600061143e8582860161134f565b925050602061144f85828601611404565b9150509250929050565b611462816112f0565b82525050565b600081519050919050565b600082825260208201905092915050565b60005b838110156114a2578082015181840152602081019050611487565b838111156114b1576000848401525b50505050565b6000601f19601f8301169050919050565b60006114d382611468565b6114dd8185611473565b93506114ed818560208601611484565b6114f6816114b7565b840191505092915050565b600061150c82611391565b9050919050565b61151c81611501565b82525050565b600081519050919050565b600082825260208201905092915050565b6000819050602082019050919050565b611557816113b1565b82525050565b6000611569838361154e565b60208301905092915050565b6000602082019050919050565b600061158d82611522565b611597818561152d565b93506115a28361153e565b8060005b838110156115d35781516115ba888261155d565b97506115c583611575565b9250506001810190506115a6565b5085935050505092915050565b600060a0830160008301516115f86000860182611459565b50602083015161160b6020860182611459565b506040830151848203604086015261162382826114c8565b91505060608301516116386060860182611513565b50608083015184820360808601526116508282611582565b9150508091505092915050565b6000602082019050818103600083015261167781846115e0565b905092915050565b600082825260208201905092915050565b600061169b82611468565b6116a5818561167f565b93506116b5818560208601611484565b6116be816114b7565b840191505092915050565b6116d281611501565b82525050565b60006080820190506116ed60008301876112fa565b6116fa60208301866112fa565b818103604083015261170c8185611690565b905061171b60608301846116c9565b95945050505050565b600080fd5b600080fd5b7f4e487b7100000000000000000000000000000000000000000000000000000000600052604160045260246000fd5b611766826114b7565b810181811067ffffffffffffffff821117156117855761178461172e565b5b80604052505050565b6000611798611324565b90506117a4828261175d565b919050565b600067ffffffffffffffff8211156117c4576117c361172e565b5b6117cd826114b7565b9050602081019050919050565b82818337600083830152505050565b60006117fc6117f7846117a9565b61178e565b90508281526020810184848401111561181857611817611729565b5b6118238482856117da565b509392505050565b600082601f8301126118405761183f611724565b5b81356118508482602086016117e9565b91505092915050565b600080604083850312156118705761186f61132e565b5b600083013567ffffffffffffffff81111561188e5761188d611333565b5b61189a8582860161182b565b92505060206118ab8582860161134f565b9150509250929050565b600082825260208201905092915050565b60006118d182611522565b6118db81856118b5565b93506118e68361153e565b8060005b838110156119175781516118fe888261155d565b975061190983611575565b9250506001810190506118ea565b5085935050505092915050565b6000602082019050818103600083015261193e81846118c6565b905092915050565b60008115159050919050565b61195b81611946565b82525050565b60006020820190506119766000830184611952565b92915050565b6000602082840312156119925761199161132e565b5b60006119a084828501611404565b91505092915050565b600080604083850312156119c0576119bf61132e565b5b60006119ce8582860161134f565b92505060206119df8582860161134f565b9150509250929050565b7f4e487b7100000000000000000000000000000000000000000000000000000000600052602260045260246000fd5b60006002820490506001821680611a3057607f821691505b60208210811415611a4457611a436119e9565b5b50919050565b6000819050919050565b6000819050919050565b6000611a79611a74611a6f84611a4a565b611a54565b6112f0565b9050919050565b611a8981611a5e565b82525050565b6000608082019050611aa460008301876113c3565b8181036020830152611ab68186611690565b9050611ac56040830185611a80565b611ad260608301846112fa565b95945050505050565b7f4e487b7100000000000000000000000000000000000000000000000000000000600052601160045260246000fd5b6000611b15826112f0565b91507fffffffffffffffffffffffffffffffffffffffffffffffffffffffffffffffff821415611b4857611b47611adb565b5b600182019050919050565b7f4e487b7100000000000000000000000000000000000000000000000000000000600052601260045260246000fd5b6000611b8d826112f0565b9150611b98836112f0565b925082611ba857611ba7611b53565b5b828204905092915050565b7f53656e6465722063616e27742062652061646472657373203000000000000000600082015250565b6000611be960198361167f565b9150611bf482611bb3565b602082019050919050565b60006020820190508181036000830152611c1881611bdc565b9050919050565b7f5573657220616c72656164792074697070656400000000000000000000000000600082015250565b6000611c5560138361167f565b9150611c6082611c1f565b602082019050919050565b60006020820190508181036000830152611c8481611c48565b9050919050565b6000611c96826112f0565b9150611ca1836112f0565b9250827fffffffffffffffffffffffffffffffffffffffffffffffffffffffffffffffff03821115611cd657611cd5611adb565b5b828201905092915050565b7f4e487b7100000000000000000000000000000000000000000000000000000000600052603260045260246000fd5b6000606082019050611d2560008301866112fa565b611d3260208301856112fa565b611d3f60408301846113c3565b949350505050565b6000604082019050611d5c60008301856112fa565b611d6960208301846112fa565b939250505056fea2646970667358221220b3e11ab87f73fee757c8522ab0a6fc275c129764b305c1db2f2eef3de3debbe464736f6c63430008090033",
  "immutableReferences": {},
  "source": "// SPDX-License-Identifier: MIT\r\npragma solidity >=0.4.22 <0.9.0;\r\n\r\ncontract Comments {\r\n\r\n    event commentAdded(\r\n        address author,\r\n        string content,\r\n        uint256 tips,\r\n        uint timestamp\r\n    );\r\n\r\n    event commentTipped(\r\n        uint id,\r\n        uint amount\r\n    );\r\n    \r\n    event commentUnTipped(\r\n        uint id,\r\n        uint unTippedAmount,\r\n        address tipper\r\n    );\r\n\r\n    struct Comment {\r\n        uint id;\r\n        uint256 tips;\r\n        string content;\r\n        address payable author;\r\n        address[] tippers;\r\n    }\r\n\r\n    \r\n    uint public commentCount = 0;\r\n    address[] public addressesTipped;\r\n    \r\n    mapping(uint => Comment) public comments;\r\n    mapping(uint => mapping(address => bool)) public tippers; // (Comment.id => (tipper => bool))\r\n    mapping(uint => mapping(address => uint)) public addressToTips; // (Comment.id => (adres => wartosc tipa))\r\n    \r\n    \r\n    function getCommentTippers(uint _id) public view returns(address[] memory){\r\n        return comments[_id].tippers;\r\n    }\r\n    \r\n    // function setTips(address[] memory _tippers , uint[] memory _balances) public{\r\n    //     for(uint tipperId = 0; tipperId < _tippers.length; tipperId++) {\r\n    //         for(uint i = 0; i < commentCount; i++) {\r\n    //             if(tippers[i][_tippers[tipperId]] && addressToTips[i][_tippers[tipperId]] != _balances[tipperId]) {\r\n    //                 comments[i].tips -= addressToTips[i][_tippers[tipperId]] - _balances[tipperId];\r\n    //                 addressToTips[i][_tippers[tipperId]] = _balances[tipperId];\r\n    //             }\r\n    //         }\r\n    //     }\r\n    // }\r\n\r\n    \r\n\r\n    // function refreshBalances(address _tipper, uint _balance) public{\r\n    //     for(uint i = 0; i < commentCount; i++) {\r\n    //         if(tippers[i][_tipper] && addressToTips[i][_tipper] != _balance) {\r\n    //             comments[i].tips -= addressToTips[i][_tipper] - _balance;\r\n    //             addressToTips[i][_tipper] = _balance;\r\n    //             emit commentUnTipped(i, comments[i].tips, _tipper);\r\n    //         }\r\n    //     }\r\n    // }\r\n\r\n    // function refreshBalances(uint _id) private  {\r\n    //     comments[_id].tips = 0;\r\n    //     for(uint i = 0; i < addressesTipped.length; i++) {\r\n    //         address tipper = addressesTipped[i];\r\n    //         uint tipperBalance = tipper.balance;\r\n    //         // uint newBalance = (addressToTips[i][tipper] - tipperBalance);\r\n    //         // comments[_id].tips = newBalance;\r\n    //         comments[_id].tips += tipperBalance;\r\n    //         addressToTips[i][tipper] = tipperBalance;\r\n    //         emit commentUnTipped(i, tipperBalance, tipper);\r\n    //     }\r\n    // }\r\n    \r\n    function getAddressToTips(uint _id, address _tipper) public view returns(uint){\r\n        return addressToTips[_id][_tipper];\r\n    }\r\n\r\n    function getTippers() public view returns (address[] memory) {\r\n        return addressesTipped;\r\n    }\r\n        \r\n    function addTipper(address _tipper) private returns(bool){\r\n        for(uint i = 0; i < addressesTipped.length; i++) {\r\n            if(_tipper == addressesTipped[i]) {\r\n                return false;\r\n            }\r\n        }\r\n        addressesTipped.push(_tipper);\r\n        return true;\r\n    }    \r\n        \r\n    function tipComment(uint _id, uint _amount) public {\r\n        require(msg.sender != address(0), \"Sender can't be address 0\");\r\n        require(tippers[_id][msg.sender] == false, \"User already tipped\");\r\n        \r\n        Comment storage _comment = comments[_id];\r\n        \r\n        _comment.tips += _amount;\r\n        \r\n        \r\n        tippers[_id][msg.sender] = true;\r\n        addressToTips[_id][msg.sender] += _amount;\r\n        _comment.tippers.push(msg.sender);\r\n        \r\n        \r\n        addTipper(msg.sender);\r\n        \r\n        // setTips\r\n        \r\n        comments[_id] = _comment;\r\n        \r\n        // refreshBalances(_id);\r\n        for(uint j = 0; j < commentCount; j++) {\r\n            comments[j].tips = 0;\r\n            for(uint i = 0; i < comments[j].tippers.length; i++) {\r\n                address tipper = comments[j].tippers[i];\r\n                uint tipperBalance = tipper.balance;\r\n                if(tippers[j][tipper]) {\r\n                    // uint newBalance = (addressToTips[i][tipper] - tipperBalance);\r\n                    // comments[_id].tips = newBalance;\r\n                    comments[j].tips += tipperBalance;\r\n                    addressToTips[i][tipper] = tipperBalance;\r\n                    emit commentUnTipped(j, tipperBalance, tipper);\r\n                }\r\n\r\n\r\n            }\r\n        }\r\n\r\n\r\n        emit commentTipped(_id, _comment.tips);\r\n        \r\n    }\r\n\r\n    function getBalance(address _addr) external view returns (uint){\r\n        return _addr.balance/ (1 ether);\r\n    }\r\n\r\n    function addComment(string memory _content, uint _value) public {\r\n        address[] memory tab;\r\n        comments[commentCount] = Comment(commentCount, 0, _content, payable(msg.sender), tab);\r\n        emit commentAdded(msg.sender, _content, 0, block.timestamp);\r\n        tipComment(commentCount, _value);\r\n        commentCount++;\r\n    }\r\n    \r\n    function getCommentCount() public view returns (uint){\r\n        return commentCount;\r\n    }\r\n    \r\n\r\n    function getCommentById(uint _id) public view returns (Comment memory) {\r\n        return comments[_id];\r\n    }\r\n    \r\n    function pay() payable public {}\r\n    \r\n}",
  "sourcePath": "E:\\Projects\\HashUp\\hashup-contracts\\contracts\\Comments.sol",
  "compiler": {
    "name": "solc",
    "version": "0.8.9+commit.e5eed63a.Emscripten.clang"
  },
  "schemaVersion": "3.4.3",
  "updatedAt": "2021-11-27T23:01:48.517Z",
  "networkType": "ethereum",
  "devdoc": {
    "kind": "dev",
    "methods": {},
    "version": 1
  },
  "userdoc": {
    "kind": "user",
    "methods": {},
    "version": 1
  }
}