{
  "contractName": "Comments",
  "abi": [
    {
      "anonymous": false,
      "inputs": [
        {
          "indexed": false,
          "internalType": "address",
          "name": "author",
          "type": "address"
        },
        {
          "indexed": false,
          "internalType": "string",
          "name": "content",
          "type": "string"
        },
        {
          "indexed": false,
          "internalType": "uint256",
          "name": "tips",
          "type": "uint256"
        },
        {
          "indexed": false,
          "internalType": "uint256",
          "name": "timestamp",
          "type": "uint256"
        }
      ],
      "name": "commentAdded",
      "type": "event"
    },
    {
      "anonymous": false,
      "inputs": [
        {
          "indexed": false,
          "internalType": "uint256",
          "name": "id",
          "type": "uint256"
        },
        {
          "indexed": false,
          "internalType": "uint256",
          "name": "amount",
          "type": "uint256"
        }
      ],
      "name": "commentTipped",
      "type": "event"
    },
    {
      "anonymous": false,
      "inputs": [
        {
          "indexed": false,
          "internalType": "uint256",
          "name": "id",
          "type": "uint256"
        },
        {
          "indexed": false,
          "internalType": "uint256",
          "name": "amount",
          "type": "uint256"
        }
      ],
      "name": "commentUnTipped",
      "type": "event"
    },
    {
      "inputs": [
        {
          "internalType": "uint256",
          "name": "",
          "type": "uint256"
        },
        {
          "internalType": "address",
          "name": "",
          "type": "address"
        }
      ],
      "name": "addressToTips",
      "outputs": [
        {
          "internalType": "uint256",
          "name": "",
          "type": "uint256"
        }
      ],
      "stateMutability": "view",
      "type": "function",
      "constant": true
    },
    {
      "inputs": [
        {
          "internalType": "uint256",
          "name": "",
          "type": "uint256"
        }
      ],
      "name": "addressesTipped",
      "outputs": [
        {
          "internalType": "address",
          "name": "",
          "type": "address"
        }
      ],
      "stateMutability": "view",
      "type": "function",
      "constant": true
    },
    {
      "inputs": [],
      "name": "commentCount",
      "outputs": [
        {
          "internalType": "uint256",
          "name": "",
          "type": "uint256"
        }
      ],
      "stateMutability": "view",
      "type": "function",
      "constant": true
    },
    {
      "inputs": [
        {
          "internalType": "uint256",
          "name": "",
          "type": "uint256"
        }
      ],
      "name": "comments",
      "outputs": [
        {
          "internalType": "uint256",
          "name": "id",
          "type": "uint256"
        },
        {
          "internalType": "uint256",
          "name": "tips",
          "type": "uint256"
        },
        {
          "internalType": "string",
          "name": "content",
          "type": "string"
        },
        {
          "internalType": "address payable",
          "name": "author",
          "type": "address"
        }
      ],
      "stateMutability": "view",
      "type": "function",
      "constant": true
    },
    {
      "inputs": [
        {
          "internalType": "uint256",
          "name": "",
          "type": "uint256"
        },
        {
          "internalType": "address",
          "name": "",
          "type": "address"
        }
      ],
      "name": "tippers",
      "outputs": [
        {
          "internalType": "bool",
          "name": "",
          "type": "bool"
        }
      ],
      "stateMutability": "view",
      "type": "function",
      "constant": true
    },
    {
      "inputs": [],
      "name": "tipsSum",
      "outputs": [
        {
          "internalType": "uint256",
          "name": "",
          "type": "uint256"
        }
      ],
      "stateMutability": "view",
      "type": "function",
      "constant": true
    },
    {
      "inputs": [
        {
          "internalType": "uint256",
          "name": "_id",
          "type": "uint256"
        }
      ],
      "name": "getCommentTippers",
      "outputs": [
        {
          "internalType": "address[]",
          "name": "",
          "type": "address[]"
        }
      ],
      "stateMutability": "view",
      "type": "function",
      "constant": true
    },
    {
      "inputs": [
        {
          "internalType": "address",
          "name": "_tipper",
          "type": "address"
        }
      ],
      "name": "setTip",
      "outputs": [],
      "stateMutability": "nonpayable",
      "type": "function"
    },
    {
      "inputs": [],
      "name": "getTotalTipsSum",
      "outputs": [
        {
          "internalType": "uint256",
          "name": "",
          "type": "uint256"
        }
      ],
      "stateMutability": "view",
      "type": "function",
      "constant": true
    },
    {
      "inputs": [],
      "name": "getTippers",
      "outputs": [
        {
          "internalType": "address[]",
          "name": "",
          "type": "address[]"
        }
      ],
      "stateMutability": "view",
      "type": "function",
      "constant": true
    },
    {
      "inputs": [
        {
          "internalType": "uint256",
          "name": "_id",
          "type": "uint256"
        },
        {
          "internalType": "uint256",
          "name": "_amount",
          "type": "uint256"
        }
      ],
      "name": "tipComment",
      "outputs": [],
      "stateMutability": "nonpayable",
      "type": "function"
    },
    {
      "inputs": [
        {
          "internalType": "string",
          "name": "_content",
          "type": "string"
        },
        {
          "internalType": "uint256",
          "name": "_value",
          "type": "uint256"
        }
      ],
      "name": "addComment",
      "outputs": [],
      "stateMutability": "nonpayable",
      "type": "function"
    },
    {
      "inputs": [],
      "name": "getCommentCount",
      "outputs": [
        {
          "internalType": "uint256",
          "name": "",
          "type": "uint256"
        }
      ],
      "stateMutability": "view",
      "type": "function",
      "constant": true
    },
    {
      "inputs": [
        {
          "internalType": "uint256",
          "name": "_id",
          "type": "uint256"
        }
      ],
      "name": "getCommentById",
      "outputs": [
        {
          "components": [
            {
              "internalType": "uint256",
              "name": "id",
              "type": "uint256"
            },
            {
              "internalType": "uint256",
              "name": "tips",
              "type": "uint256"
            },
            {
              "internalType": "string",
              "name": "content",
              "type": "string"
            },
            {
              "internalType": "address payable",
              "name": "author",
              "type": "address"
            },
            {
              "internalType": "address[]",
              "name": "tippers",
              "type": "address[]"
            }
          ],
          "internalType": "struct Comments.Comment",
          "name": "",
          "type": "tuple"
        }
      ],
      "stateMutability": "view",
      "type": "function",
      "constant": true
    }
  ],
  "bytecode": "0x60806040526000805534801561001457600080fd5b50611b22806100246000396000f3fe608060405234801561001057600080fd5b50600436106100ea5760003560e01c806396a3d8d71161008c578063e2f5e0df11610066578063e2f5e0df14610274578063e37f9b0a146102a4578063fb4061ce146102c2578063fc4fce1d146102e0576100ea565b806396a3d8d71461020c57806399ffd94d146102285780639b0ffa1a14610258576100ea565b806345ff20de116100c857806345ff20de1461016d5780635427c40a1461018b5780636c43dbb4146101a95780638ebb4c15146101d9576100ea565b806316e31ea3146100ef5780632e2179511461010d5780634126d13b1461013d575b600080fd5b6100f76102fc565b60405161010491906110bc565b60405180910390f35b61012760048036038101906101229190611117565b610305565b6040516101349190611185565b60405180910390f35b610157600480360381019061015291906111cc565b610344565b60405161016491906110bc565b60405180910390f35b610175610369565b60405161018291906110bc565b60405180910390f35b61019361036f565b6040516101a091906110bc565b60405180910390f35b6101c360048036038101906101be9190611117565b610375565b6040516101d09190611410565b60405180910390f35b6101f360048036038101906101ee9190611117565b61052c565b604051610203949392919061148b565b60405180910390f35b6102266004803603810190610221919061160c565b610604565b005b610242600480360381019061023d9190611117565b610758565b60405161024f91906116d7565b60405180910390f35b610272600480360381019061026d91906116f9565b6107fc565b005b61028e600480360381019061028991906111cc565b6108cb565b60405161029b9190611741565b60405180910390f35b6102ac6108fa565b6040516102b991906116d7565b60405180910390f35b6102ca610988565b6040516102d791906110bc565b60405180910390f35b6102fa60048036038101906102f5919061175c565b610992565b005b60008054905090565b6002818154811061031557600080fd5b906000526020600020016000915054906101000a900473ffffffffffffffffffffffffffffffffffffffff1681565b6005602052816000526040600020602052806000526040600020600091509150505481565b60005481565b60015481565b61037d610e52565b600360008381526020019081526020016000206040518060a001604052908160008201548152602001600182015481526020016002820180546103bf906117cb565b80601f01602080910402602001604051908101604052809291908181526020018280546103eb906117cb565b80156104385780601f1061040d57610100808354040283529160200191610438565b820191906000526020600020905b81548152906001019060200180831161041b57829003601f168201915b505050505081526020016003820160009054906101000a900473ffffffffffffffffffffffffffffffffffffffff1673ffffffffffffffffffffffffffffffffffffffff1673ffffffffffffffffffffffffffffffffffffffff1681526020016004820180548060200260200160405190810160405280929190818152602001828054801561051c57602002820191906000526020600020905b8160009054906101000a900473ffffffffffffffffffffffffffffffffffffffff1673ffffffffffffffffffffffffffffffffffffffff16815260200190600101908083116104d2575b5050505050815250509050919050565b600360205280600052604060002060009150905080600001549080600101549080600201805461055b906117cb565b80601f0160208091040260200160405190810160405280929190818152602001828054610587906117cb565b80156105d45780601f106105a9576101008083540402835291602001916105d4565b820191906000526020600020905b8154815290600101906020018083116105b757829003601f168201915b5050505050908060030160009054906101000a900473ffffffffffffffffffffffffffffffffffffffff16905084565b60606040518060a001604052806000548152602001600081526020018481526020013373ffffffffffffffffffffffffffffffffffffffff1681526020018281525060036000805481526020019081526020016000206000820151816000015560208201518160010155604082015181600201908051906020019061068a929190610e97565b5060608201518160030160006101000a81548173ffffffffffffffffffffffffffffffffffffffff021916908373ffffffffffffffffffffffffffffffffffffffff16021790555060808201518160040190805190602001906106ee929190610f1d565b509050507f83e3daed4f60a9f1f3f515f6fc6bcd2ea924cfc69b9781cf92a4251d588db90333846000426040516107289493929190611842565b60405180910390a161073c60005483610992565b60008081548092919061074e906118bd565b9190505550505050565b6060600360008381526020019081526020016000206004018054806020026020016040519081016040528092919081815260200182805480156107f057602002820191906000526020600020905b8160009054906101000a900473ffffffffffffffffffffffffffffffffffffffff1673ffffffffffffffffffffffffffffffffffffffff16815260200190600101908083116107a6575b50505050509050919050565b60005b6000548110156108c7576000600360008381526020019081526020016000206001018190555060005b60036000838152602001908152602001600020600401805490508110156108b357670de0b6b3a76400008373ffffffffffffffffffffffffffffffffffffffff16316108749190611935565b6003600084815260200190815260200160002060010160008282546108999190611966565b9250508190555080806108ab906118bd565b915050610828565b5080806108bf906118bd565b9150506107ff565b5050565b60046020528160005260406000206020528060005260406000206000915091509054906101000a900460ff1681565b6060600280548060200260200160405190810160405280929190818152602001828054801561097e57602002820191906000526020600020905b8160009054906101000a900473ffffffffffffffffffffffffffffffffffffffff1673ffffffffffffffffffffffffffffffffffffffff1681526020019060010190808311610934575b5050505050905090565b6000600154905090565b600073ffffffffffffffffffffffffffffffffffffffff163373ffffffffffffffffffffffffffffffffffffffff161415610a02576040517f08c379a00000000000000000000000000000000000000000000000000000000081526004016109f990611a08565b60405180910390fd5b600015156004600084815260200190815260200160002060003373ffffffffffffffffffffffffffffffffffffffff1673ffffffffffffffffffffffffffffffffffffffff16815260200190815260200160002060009054906101000a900460ff16151514610aa6576040517f08c379a0000000000000000000000000000000000000000000000000000000008152600401610a9d90611a74565b60405180910390fd5b600060036000848152602001908152602001600020905081816001016000828254610ad19190611966565b925050819055508160016000828254610aea9190611966565b9250508190555060016004600085815260200190815260200160002060003373ffffffffffffffffffffffffffffffffffffffff1673ffffffffffffffffffffffffffffffffffffffff16815260200190815260200160002060006101000a81548160ff021916908315150217905550816005600085815260200190815260200160002060003373ffffffffffffffffffffffffffffffffffffffff1673ffffffffffffffffffffffffffffffffffffffff1681526020019081526020016000206000828254610bba9190611966565b9250508190555080600401339080600181540180825580915050600190039060005260206000200160009091909190916101000a81548173ffffffffffffffffffffffffffffffffffffffff021916908373ffffffffffffffffffffffffffffffffffffffff160217905550610c2f33610d40565b50806003600085815260200190815260200160002060008201548160000155600182015481600101556002820181600201908054610c6c906117cb565b610c77929190610fa7565b506003820160009054906101000a900473ffffffffffffffffffffffffffffffffffffffff168160030160006101000a81548173ffffffffffffffffffffffffffffffffffffffff021916908373ffffffffffffffffffffffffffffffffffffffff1602179055506004820181600401908054610cf5929190611034565b50905050610d02336107fc565b7f7a0ba520c66559516642648cf084154311abd5e3408c3ac4c16df3494c739d4a8383604051610d33929190611a94565b60405180910390a1505050565b600080600090505b600280549050811015610de45760028181548110610d6957610d68611abd565b5b9060005260206000200160009054906101000a900473ffffffffffffffffffffffffffffffffffffffff1673ffffffffffffffffffffffffffffffffffffffff168373ffffffffffffffffffffffffffffffffffffffff161415610dd1576000915050610e4d565b8080610ddc906118bd565b915050610d48565b506002829080600181540180825580915050600190039060005260206000200160009091909190916101000a81548173ffffffffffffffffffffffffffffffffffffffff021916908373ffffffffffffffffffffffffffffffffffffffff160217905550600190505b919050565b6040518060a00160405280600081526020016000815260200160608152602001600073ffffffffffffffffffffffffffffffffffffffff168152602001606081525090565b828054610ea3906117cb565b90600052602060002090601f016020900481019282610ec55760008555610f0c565b82601f10610ede57805160ff1916838001178555610f0c565b82800160010185558215610f0c579182015b82811115610f0b578251825591602001919060010190610ef0565b5b509050610f199190611086565b5090565b828054828255906000526020600020908101928215610f96579160200282015b82811115610f955782518260006101000a81548173ffffffffffffffffffffffffffffffffffffffff021916908373ffffffffffffffffffffffffffffffffffffffff16021790555091602001919060010190610f3d565b5b509050610fa39190611086565b5090565b828054610fb3906117cb565b90600052602060002090601f016020900481019282610fd55760008555611023565b82601f10610fe65780548555611023565b8280016001018555821561102357600052602060002091601f016020900482015b82811115611022578254825591600101919060010190611007565b5b5090506110309190611086565b5090565b8280548282559060005260206000209081019282156110755760005260206000209182015b82811115611074578254825591600101919060010190611059565b5b5090506110829190611086565b5090565b5b8082111561109f576000816000905550600101611087565b5090565b6000819050919050565b6110b6816110a3565b82525050565b60006020820190506110d160008301846110ad565b92915050565b6000604051905090565b600080fd5b600080fd5b6110f4816110a3565b81146110ff57600080fd5b50565b600081359050611111816110eb565b92915050565b60006020828403121561112d5761112c6110e1565b5b600061113b84828501611102565b91505092915050565b600073ffffffffffffffffffffffffffffffffffffffff82169050919050565b600061116f82611144565b9050919050565b61117f81611164565b82525050565b600060208201905061119a6000830184611176565b92915050565b6111a981611164565b81146111b457600080fd5b50565b6000813590506111c6816111a0565b92915050565b600080604083850312156111e3576111e26110e1565b5b60006111f185828601611102565b9250506020611202858286016111b7565b9150509250929050565b611215816110a3565b82525050565b600081519050919050565b600082825260208201905092915050565b60005b8381101561125557808201518184015260208101905061123a565b83811115611264576000848401525b50505050565b6000601f19601f8301169050919050565b60006112868261121b565b6112908185611226565b93506112a0818560208601611237565b6112a98161126a565b840191505092915050565b60006112bf82611144565b9050919050565b6112cf816112b4565b82525050565b600081519050919050565b600082825260208201905092915050565b6000819050602082019050919050565b61130a81611164565b82525050565b600061131c8383611301565b60208301905092915050565b6000602082019050919050565b6000611340826112d5565b61134a81856112e0565b9350611355836112f1565b8060005b8381101561138657815161136d8882611310565b975061137883611328565b925050600181019050611359565b5085935050505092915050565b600060a0830160008301516113ab600086018261120c565b5060208301516113be602086018261120c565b50604083015184820360408601526113d6828261127b565b91505060608301516113eb60608601826112c6565b50608083015184820360808601526114038282611335565b9150508091505092915050565b6000602082019050818103600083015261142a8184611393565b905092915050565b600082825260208201905092915050565b600061144e8261121b565b6114588185611432565b9350611468818560208601611237565b6114718161126a565b840191505092915050565b611485816112b4565b82525050565b60006080820190506114a060008301876110ad565b6114ad60208301866110ad565b81810360408301526114bf8185611443565b90506114ce606083018461147c565b95945050505050565b600080fd5b600080fd5b7f4e487b7100000000000000000000000000000000000000000000000000000000600052604160045260246000fd5b6115198261126a565b810181811067ffffffffffffffff82111715611538576115376114e1565b5b80604052505050565b600061154b6110d7565b90506115578282611510565b919050565b600067ffffffffffffffff821115611577576115766114e1565b5b6115808261126a565b9050602081019050919050565b82818337600083830152505050565b60006115af6115aa8461155c565b611541565b9050828152602081018484840111156115cb576115ca6114dc565b5b6115d684828561158d565b509392505050565b600082601f8301126115f3576115f26114d7565b5b813561160384826020860161159c565b91505092915050565b60008060408385031215611623576116226110e1565b5b600083013567ffffffffffffffff811115611641576116406110e6565b5b61164d858286016115de565b925050602061165e85828601611102565b9150509250929050565b600082825260208201905092915050565b6000611684826112d5565b61168e8185611668565b9350611699836112f1565b8060005b838110156116ca5781516116b18882611310565b97506116bc83611328565b92505060018101905061169d565b5085935050505092915050565b600060208201905081810360008301526116f18184611679565b905092915050565b60006020828403121561170f5761170e6110e1565b5b600061171d848285016111b7565b91505092915050565b60008115159050919050565b61173b81611726565b82525050565b60006020820190506117566000830184611732565b92915050565b60008060408385031215611773576117726110e1565b5b600061178185828601611102565b925050602061179285828601611102565b9150509250929050565b7f4e487b7100000000000000000000000000000000000000000000000000000000600052602260045260246000fd5b600060028204905060018216806117e357607f821691505b602082108114156117f7576117f661179c565b5b50919050565b6000819050919050565b6000819050919050565b600061182c611827611822846117fd565b611807565b6110a3565b9050919050565b61183c81611811565b82525050565b60006080820190506118576000830187611176565b81810360208301526118698186611443565b90506118786040830185611833565b61188560608301846110ad565b95945050505050565b7f4e487b7100000000000000000000000000000000000000000000000000000000600052601160045260246000fd5b60006118c8826110a3565b91507fffffffffffffffffffffffffffffffffffffffffffffffffffffffffffffffff8214156118fb576118fa61188e565b5b600182019050919050565b7f4e487b7100000000000000000000000000000000000000000000000000000000600052601260045260246000fd5b6000611940826110a3565b915061194b836110a3565b92508261195b5761195a611906565b5b828204905092915050565b6000611971826110a3565b915061197c836110a3565b9250827fffffffffffffffffffffffffffffffffffffffffffffffffffffffffffffffff038211156119b1576119b061188e565b5b828201905092915050565b7f53656e6465722063616e27742062652061646472657373203000000000000000600082015250565b60006119f2601983611432565b91506119fd826119bc565b602082019050919050565b60006020820190508181036000830152611a21816119e5565b9050919050565b7f5573657220616c72656164792074697070656400000000000000000000000000600082015250565b6000611a5e601383611432565b9150611a6982611a28565b602082019050919050565b60006020820190508181036000830152611a8d81611a51565b9050919050565b6000604082019050611aa960008301856110ad565b611ab660208301846110ad565b9392505050565b7f4e487b7100000000000000000000000000000000000000000000000000000000600052603260045260246000fdfea2646970667358221220928b1efbe270fb6c9a22b3bc03af928bf9a19312847c69d68e5d335c906b8c2264736f6c63430008090033",
  "immutableReferences": {},
  "source": "// SPDX-License-Identifier: MIT\r\npragma solidity >=0.4.22 <0.9.0;\r\n\r\n/*\r\n    1. Dodanie msg.sender do listy \r\n    2. Przy pierwszym onLoad na strone zapisanie id bloku + sprawdzenie czy w liscie msg.sender zawiera sie adres ktory wykonywa transakcje\r\n    3.1 Jeli msg.sender zrobi transakcje to \r\n*/\r\n\r\ncontract Comments {\r\n    event commentAdded(\r\n        address author,\r\n        string content,\r\n        uint256 tips,\r\n        uint256 timestamp\r\n    );\r\n\r\n    event commentTipped(uint256 id, uint256 amount);\r\n\r\n    event commentUnTipped(uint256 id, uint256 amount);\r\n\r\n    struct Comment {\r\n        uint256 id;\r\n        uint256 tips;\r\n        string content;\r\n        address payable author;\r\n        address[] tippers;\r\n    }\r\n\r\n    uint256 public commentCount = 0;\r\n    uint256 public tipsSum;\r\n    address[] public addressesTipped;\r\n\r\n    mapping(uint256 => Comment) public comments;\r\n    mapping(uint256 => mapping(address => bool)) public tippers; // (Comment.id => (tipper => bool))\r\n    mapping(uint256 => mapping(address => uint256)) public addressToTips; // (Comment.id => (adres => wartosc tipa))\r\n\r\n    function getCommentTippers(uint256 _id)\r\n        public\r\n        view\r\n        returns (address[] memory)\r\n    {\r\n        return comments[_id].tippers;\r\n    }\r\n\r\n    function setTip(address _tipper) public {\r\n        for (uint256 i = 0; i < commentCount; i++) {\r\n            comments[i].tips = 0;\r\n            for (uint256 j = 0; j < comments[i].tippers.length; j++) {\r\n                comments[i].tips += _tipper.balance/(1 ether);\r\n            }\r\n        }\r\n        // function setTip(address _tipper, uint _balance) public{\r\n        //     for(uint i = 0; i < commentCount; i++) {\r\n        //         if(tippers[i][_tipper] && addressToTips[i][_tipper] != _balance) {\r\n        //             comments[i].tips -= addressToTips[i][_tipper] - _balance;\r\n        //             addressToTips[i][_tipper] = _balance;\r\n        //         }\r\n        //     }\r\n        // }\r\n    }\r\n\r\n    function getTotalTipsSum() public view returns (uint256) {\r\n        return tipsSum;\r\n    }\r\n\r\n    function getTippers() public view returns (address[] memory) {\r\n        return addressesTipped;\r\n    }\r\n\r\n    function addTipper(address _tipper) private returns (bool) {\r\n        for (uint256 i = 0; i < addressesTipped.length; i++) {\r\n            if (_tipper == addressesTipped[i]) {\r\n                return false;\r\n            }\r\n        }\r\n        addressesTipped.push(_tipper);\r\n        return true;\r\n    }\r\n\r\n    function tipComment(uint256 _id, uint256 _amount) public {\r\n        require(msg.sender != address(0), \"Sender can't be address 0\");\r\n        require(tippers[_id][msg.sender] == false, \"User already tipped\");\r\n\r\n        Comment storage _comment = comments[_id];\r\n\r\n        _comment.tips += _amount;\r\n        tipsSum += _amount;\r\n\r\n        tippers[_id][msg.sender] = true;\r\n        addressToTips[_id][msg.sender] += _amount;\r\n        _comment.tippers.push(msg.sender);\r\n\r\n        addTipper(msg.sender);\r\n\r\n        comments[_id] = _comment;\r\n        setTip(msg.sender);\r\n        emit commentTipped(_id, _amount);\r\n    }\r\n\r\n    function addComment(string memory _content, uint256 _value) public {\r\n        address[] memory tab;\r\n        comments[commentCount] = Comment(\r\n            commentCount,\r\n            0,\r\n            _content,\r\n            payable(msg.sender),\r\n            tab\r\n        );\r\n        emit commentAdded(msg.sender, _content, 0, block.timestamp);\r\n        tipComment(commentCount, _value);\r\n        commentCount++;\r\n    }\r\n\r\n    function getCommentCount() public view returns (uint256) {\r\n        return commentCount;\r\n    }\r\n\r\n    function getCommentById(uint256 _id) public view returns (Comment memory) {\r\n        return comments[_id];\r\n    }\r\n}\r\n",
  "sourcePath": "C:\\Users\\Mariusz\\Documents\\GitHub\\hashup-contracts\\contracts\\Comments.sol",
  "compiler": {
    "name": "solc",
    "version": "0.8.9+commit.e5eed63a.Emscripten.clang"
  },
  "schemaVersion": "3.4.3",
  "updatedAt": "2021-11-26T19:26:25.977Z",
  "networkType": "ethereum",
  "devdoc": {
    "kind": "dev",
    "methods": {},
    "version": 1
  },
  "userdoc": {
    "kind": "user",
    "methods": {},
    "version": 1
  }
}